{
  "_format": "hh-sol-artifact-1",
  "contractName": "NFTDinamic",
  "sourceName": "src/blockchain/hardhat/contracts/NFTDinamic.sol",
  "abi": [
    {
      "inputs": [],
      "stateMutability": "nonpayable",
      "type": "constructor"
    },
    {
      "anonymous": false,
      "inputs": [
        {
          "indexed": true,
          "internalType": "address",
          "name": "owner",
          "type": "address"
        },
        {
          "indexed": true,
          "internalType": "address",
          "name": "approved",
          "type": "address"
        },
        {
          "indexed": true,
          "internalType": "uint256",
          "name": "tokenId",
          "type": "uint256"
        }
      ],
      "name": "Approval",
      "type": "event"
    },
    {
      "anonymous": false,
      "inputs": [
        {
          "indexed": true,
          "internalType": "address",
          "name": "owner",
          "type": "address"
        },
        {
          "indexed": true,
          "internalType": "address",
          "name": "operator",
          "type": "address"
        },
        {
          "indexed": false,
          "internalType": "bool",
          "name": "approved",
          "type": "bool"
        }
      ],
      "name": "ApprovalForAll",
      "type": "event"
    },
    {
      "anonymous": false,
      "inputs": [
        {
          "indexed": true,
          "internalType": "address",
          "name": "previousOwner",
          "type": "address"
        },
        {
          "indexed": true,
          "internalType": "address",
          "name": "newOwner",
          "type": "address"
        }
      ],
      "name": "OwnershipTransferred",
      "type": "event"
    },
    {
      "anonymous": false,
      "inputs": [
        {
          "indexed": true,
          "internalType": "address",
          "name": "from",
          "type": "address"
        },
        {
          "indexed": true,
          "internalType": "address",
          "name": "to",
          "type": "address"
        },
        {
          "indexed": true,
          "internalType": "uint256",
          "name": "tokenId",
          "type": "uint256"
        }
      ],
      "name": "Transfer",
      "type": "event"
    },
    {
      "inputs": [
        {
          "internalType": "address",
          "name": "to",
          "type": "address"
        },
        {
          "internalType": "uint256",
          "name": "tokenId",
          "type": "uint256"
        }
      ],
      "name": "approve",
      "outputs": [],
      "stateMutability": "nonpayable",
      "type": "function"
    },
    {
      "inputs": [
        {
          "internalType": "address",
          "name": "owner",
          "type": "address"
        }
      ],
      "name": "balanceOf",
      "outputs": [
        {
          "internalType": "uint256",
          "name": "",
          "type": "uint256"
        }
      ],
      "stateMutability": "view",
      "type": "function"
    },
    {
      "inputs": [
        {
          "internalType": "uint256",
          "name": "_tokenId",
          "type": "uint256"
        }
      ],
      "name": "changeData",
      "outputs": [],
      "stateMutability": "nonpayable",
      "type": "function"
    },
    {
      "inputs": [
        {
          "internalType": "uint256",
          "name": "tokenId",
          "type": "uint256"
        }
      ],
      "name": "getApproved",
      "outputs": [
        {
          "internalType": "address",
          "name": "",
          "type": "address"
        }
      ],
      "stateMutability": "view",
      "type": "function"
    },
    {
      "inputs": [
        {
          "internalType": "address",
          "name": "owner",
          "type": "address"
        },
        {
          "internalType": "address",
          "name": "operator",
          "type": "address"
        }
      ],
      "name": "isApprovedForAll",
      "outputs": [
        {
          "internalType": "bool",
          "name": "",
          "type": "bool"
        }
      ],
      "stateMutability": "view",
      "type": "function"
    },
    {
      "inputs": [],
      "name": "name",
      "outputs": [
        {
          "internalType": "string",
          "name": "",
          "type": "string"
        }
      ],
      "stateMutability": "view",
      "type": "function"
    },
    {
      "inputs": [],
      "name": "owner",
      "outputs": [
        {
          "internalType": "address",
          "name": "",
          "type": "address"
        }
      ],
      "stateMutability": "view",
      "type": "function"
    },
    {
      "inputs": [
        {
          "internalType": "uint256",
          "name": "tokenId",
          "type": "uint256"
        }
      ],
      "name": "ownerOf",
      "outputs": [
        {
          "internalType": "address",
          "name": "",
          "type": "address"
        }
      ],
      "stateMutability": "view",
      "type": "function"
    },
    {
      "inputs": [],
      "name": "renounceOwnership",
      "outputs": [],
      "stateMutability": "nonpayable",
      "type": "function"
    },
    {
      "inputs": [
        {
          "internalType": "address",
          "name": "to",
          "type": "address"
        }
      ],
      "name": "safeMint",
      "outputs": [],
      "stateMutability": "nonpayable",
      "type": "function"
    },
    {
      "inputs": [
        {
          "internalType": "address",
          "name": "from",
          "type": "address"
        },
        {
          "internalType": "address",
          "name": "to",
          "type": "address"
        },
        {
          "internalType": "uint256",
          "name": "tokenId",
          "type": "uint256"
        }
      ],
      "name": "safeTransferFrom",
      "outputs": [],
      "stateMutability": "nonpayable",
      "type": "function"
    },
    {
      "inputs": [
        {
          "internalType": "address",
          "name": "from",
          "type": "address"
        },
        {
          "internalType": "address",
          "name": "to",
          "type": "address"
        },
        {
          "internalType": "uint256",
          "name": "tokenId",
          "type": "uint256"
        },
        {
          "internalType": "bytes",
          "name": "data",
          "type": "bytes"
        }
      ],
      "name": "safeTransferFrom",
      "outputs": [],
      "stateMutability": "nonpayable",
      "type": "function"
    },
    {
      "inputs": [
        {
          "internalType": "address",
          "name": "operator",
          "type": "address"
        },
        {
          "internalType": "bool",
          "name": "approved",
          "type": "bool"
        }
      ],
      "name": "setApprovalForAll",
      "outputs": [],
      "stateMutability": "nonpayable",
      "type": "function"
    },
    {
      "inputs": [
        {
          "internalType": "bytes4",
          "name": "interfaceId",
          "type": "bytes4"
        }
      ],
      "name": "supportsInterface",
      "outputs": [
        {
          "internalType": "bool",
          "name": "",
          "type": "bool"
        }
      ],
      "stateMutability": "view",
      "type": "function"
    },
    {
      "inputs": [],
      "name": "symbol",
      "outputs": [
        {
          "internalType": "string",
          "name": "",
          "type": "string"
        }
      ],
      "stateMutability": "view",
      "type": "function"
    },
    {
      "inputs": [
        {
          "internalType": "uint256",
          "name": "tokenId",
          "type": "uint256"
        }
      ],
      "name": "tokenURI",
      "outputs": [
        {
          "internalType": "string",
          "name": "",
          "type": "string"
        }
      ],
      "stateMutability": "view",
      "type": "function"
    },
    {
      "inputs": [
        {
          "internalType": "address",
          "name": "from",
          "type": "address"
        },
        {
          "internalType": "address",
          "name": "to",
          "type": "address"
        },
        {
          "internalType": "uint256",
          "name": "tokenId",
          "type": "uint256"
        }
      ],
      "name": "transferFrom",
      "outputs": [],
      "stateMutability": "nonpayable",
      "type": "function"
    },
    {
      "inputs": [
        {
          "internalType": "address",
          "name": "newOwner",
          "type": "address"
        }
      ],
      "name": "transferOwnership",
      "outputs": [],
      "stateMutability": "nonpayable",
      "type": "function"
    }
  ],
  "bytecode": "0x608060405260405180604001604052806040518060800160405280605f815260200162003107605f913981526020016040518060800160405280605f815260200162003166605f913981525060089060026200005d92919062000200565b503480156200006b57600080fd5b506040518060400160405280600a81526020017f4e465444696e616d6963000000000000000000000000000000000000000000008152506040518060400160405280600381526020017f444e4300000000000000000000000000000000000000000000000000000000008152508160009080519060200190620000f092919062000267565b5080600190805190602001906200010992919062000267565b5050506200012c620001206200013260201b60201c565b6200013a60201b60201c565b620003ea565b600033905090565b6000600760009054906101000a900473ffffffffffffffffffffffffffffffffffffffff16905081600760006101000a81548173ffffffffffffffffffffffffffffffffffffffff021916908373ffffffffffffffffffffffffffffffffffffffff1602179055508173ffffffffffffffffffffffffffffffffffffffff168173ffffffffffffffffffffffffffffffffffffffff167f8be0079c531659141344cd1fd0a4f28419497f9722a3daafe3b4186f6b6457e060405160405180910390a35050565b82805482825590600052602060002090810192821562000254579160200282015b82811115620002535782518290805190602001906200024292919062000267565b509160200191906001019062000221565b5b509050620002639190620002f8565b5090565b8280546200027590620003b4565b90600052602060002090601f016020900481019282620002995760008555620002e5565b82601f10620002b457805160ff1916838001178555620002e5565b82800160010185558215620002e5579182015b82811115620002e4578251825591602001919060010190620002c7565b5b509050620002f4919062000320565b5090565b5b808211156200031c57600081816200031291906200033f565b50600101620002f9565b5090565b5b808211156200033b57600081600090555060010162000321565b5090565b5080546200034d90620003b4565b6000825580601f1062000361575062000382565b601f01602090049060005260206000209081019062000381919062000320565b5b50565b7f4e487b7100000000000000000000000000000000000000000000000000000000600052602260045260246000fd5b60006002820490506001821680620003cd57607f821691505b60208210811415620003e457620003e362000385565b5b50919050565b612d0d80620003fa6000396000f3fe608060405234801561001057600080fd5b50600436106101165760003560e01c8063715018a6116100a2578063a22cb46511610071578063a22cb465146102cb578063b88d4fde146102e7578063c87b56dd14610303578063e985e9c514610333578063f2fde38b1461036357610116565b8063715018a6146102695780638a4d5514146102735780638da5cb5b1461028f57806395d89b41146102ad57610116565b806323b872dd116100e957806323b872dd146101b557806340d097c3146101d157806342842e0e146101ed5780636352211e1461020957806370a082311461023957610116565b806301ffc9a71461011b57806306fdde031461014b578063081812fc14610169578063095ea7b314610199575b600080fd5b61013560048036038101906101309190611cdc565b61037f565b6040516101429190611d24565b60405180910390f35b610153610461565b6040516101609190611dd8565b60405180910390f35b610183600480360381019061017e9190611e30565b6104f3565b6040516101909190611e9e565b60405180910390f35b6101b360048036038101906101ae9190611ee5565b610539565b005b6101cf60048036038101906101ca9190611f25565b610651565b005b6101eb60048036038101906101e69190611f78565b6106b1565b005b61020760048036038101906102029190611f25565b610790565b005b610223600480360381019061021e9190611e30565b6107b0565b6040516102309190611e9e565b60405180910390f35b610253600480360381019061024e9190611f78565b610862565b6040516102609190611fb4565b60405180910390f35b61027161091a565b005b61028d60048036038101906102889190611e30565b61092e565b005b6102976109e2565b6040516102a49190611e9e565b60405180910390f35b6102b5610a0c565b6040516102c29190611dd8565b60405180910390f35b6102e560048036038101906102e09190611ffb565b610a9e565b005b61030160048036038101906102fc9190612170565b610ab4565b005b61031d60048036038101906103189190611e30565b610b16565b60405161032a9190611dd8565b60405180910390f35b61034d600480360381019061034891906121f3565b610b28565b60405161035a9190611d24565b60405180910390f35b61037d60048036038101906103789190611f78565b610bbc565b005b60007f80ac58cd000000000000000000000000000000000000000000000000000000007bffffffffffffffffffffffffffffffffffffffffffffffffffffffff1916827bffffffffffffffffffffffffffffffffffffffffffffffffffffffff1916148061044a57507f5b5e139f000000000000000000000000000000000000000000000000000000007bffffffffffffffffffffffffffffffffffffffffffffffffffffffff1916827bffffffffffffffffffffffffffffffffffffffffffffffffffffffff1916145b8061045a575061045982610c40565b5b9050919050565b60606000805461047090612262565b80601f016020809104026020016040519081016040528092919081815260200182805461049c90612262565b80156104e95780601f106104be576101008083540402835291602001916104e9565b820191906000526020600020905b8154815290600101906020018083116104cc57829003601f168201915b5050505050905090565b60006104fe82610caa565b6004600083815260200190815260200160002060009054906101000a900473ffffffffffffffffffffffffffffffffffffffff169050919050565b6000610544826107b0565b90508073ffffffffffffffffffffffffffffffffffffffff168373ffffffffffffffffffffffffffffffffffffffff1614156105b5576040517f08c379a00000000000000000000000000000000000000000000000000000000081526004016105ac90612306565b60405180910390fd5b8073ffffffffffffffffffffffffffffffffffffffff166105d4610cf5565b73ffffffffffffffffffffffffffffffffffffffff1614806106035750610602816105fd610cf5565b610b28565b5b610642576040517f08c379a000000000000000000000000000000000000000000000000000000000815260040161063990612398565b60405180910390fd5b61064c8383610cfd565b505050565b61066261065c610cf5565b82610db6565b6106a1576040517f08c379a00000000000000000000000000000000000000000000000000000000081526004016106989061242a565b60405180910390fd5b6106ac838383610e4b565b505050565b6106b96110b2565b60006106c56009611130565b90506106d1600961113e565b6106db8282611154565b61078c8160086000815481106106f4576106f361244a565b5b90600052602060002001805461070990612262565b80601f016020809104026020016040519081016040528092919081815260200182805461073590612262565b80156107825780601f1061075757610100808354040283529160200191610782565b820191906000526020600020905b81548152906001019060200180831161076557829003601f168201915b5050505050611172565b5050565b6107ab83838360405180602001604052806000815250610ab4565b505050565b6000806002600084815260200190815260200160002060009054906101000a900473ffffffffffffffffffffffffffffffffffffffff169050600073ffffffffffffffffffffffffffffffffffffffff168173ffffffffffffffffffffffffffffffffffffffff161415610859576040517f08c379a0000000000000000000000000000000000000000000000000000000008152600401610850906124c5565b60405180910390fd5b80915050919050565b60008073ffffffffffffffffffffffffffffffffffffffff168273ffffffffffffffffffffffffffffffffffffffff1614156108d3576040517f08c379a00000000000000000000000000000000000000000000000000000000081526004016108ca90612557565b60405180910390fd5b600360008373ffffffffffffffffffffffffffffffffffffffff1673ffffffffffffffffffffffffffffffffffffffff168152602001908152602001600020549050919050565b6109226110b2565b61092c60006111e6565b565b6109df8160086001815481106109475761094661244a565b5b90600052602060002001805461095c90612262565b80601f016020809104026020016040519081016040528092919081815260200182805461098890612262565b80156109d55780601f106109aa576101008083540402835291602001916109d5565b820191906000526020600020905b8154815290600101906020018083116109b857829003601f168201915b5050505050611172565b50565b6000600760009054906101000a900473ffffffffffffffffffffffffffffffffffffffff16905090565b606060018054610a1b90612262565b80601f0160208091040260200160405190810160405280929190818152602001828054610a4790612262565b8015610a945780601f10610a6957610100808354040283529160200191610a94565b820191906000526020600020905b815481529060010190602001808311610a7757829003601f168201915b5050505050905090565b610ab0610aa9610cf5565b83836112ac565b5050565b610ac5610abf610cf5565b83610db6565b610b04576040517f08c379a0000000000000000000000000000000000000000000000000000000008152600401610afb9061242a565b60405180910390fd5b610b1084848484611419565b50505050565b6060610b2182611475565b9050919050565b6000600560008473ffffffffffffffffffffffffffffffffffffffff1673ffffffffffffffffffffffffffffffffffffffff16815260200190815260200160002060008373ffffffffffffffffffffffffffffffffffffffff1673ffffffffffffffffffffffffffffffffffffffff16815260200190815260200160002060009054906101000a900460ff16905092915050565b610bc46110b2565b600073ffffffffffffffffffffffffffffffffffffffff168173ffffffffffffffffffffffffffffffffffffffff161415610c34576040517f08c379a0000000000000000000000000000000000000000000000000000000008152600401610c2b906125e9565b60405180910390fd5b610c3d816111e6565b50565b60007f01ffc9a7000000000000000000000000000000000000000000000000000000007bffffffffffffffffffffffffffffffffffffffffffffffffffffffff1916827bffffffffffffffffffffffffffffffffffffffffffffffffffffffff1916149050919050565b610cb381611588565b610cf2576040517f08c379a0000000000000000000000000000000000000000000000000000000008152600401610ce9906124c5565b60405180910390fd5b50565b600033905090565b816004600083815260200190815260200160002060006101000a81548173ffffffffffffffffffffffffffffffffffffffff021916908373ffffffffffffffffffffffffffffffffffffffff160217905550808273ffffffffffffffffffffffffffffffffffffffff16610d70836107b0565b73ffffffffffffffffffffffffffffffffffffffff167f8c5be1e5ebec7d5bd14f71427d1e84f3dd0314c0f7b2291e5b200ac8c7c3b92560405160405180910390a45050565b600080610dc2836107b0565b90508073ffffffffffffffffffffffffffffffffffffffff168473ffffffffffffffffffffffffffffffffffffffff161480610e045750610e038185610b28565b5b80610e4257508373ffffffffffffffffffffffffffffffffffffffff16610e2a846104f3565b73ffffffffffffffffffffffffffffffffffffffff16145b91505092915050565b8273ffffffffffffffffffffffffffffffffffffffff16610e6b826107b0565b73ffffffffffffffffffffffffffffffffffffffff1614610ec1576040517f08c379a0000000000000000000000000000000000000000000000000000000008152600401610eb89061267b565b60405180910390fd5b600073ffffffffffffffffffffffffffffffffffffffff168273ffffffffffffffffffffffffffffffffffffffff161415610f31576040517f08c379a0000000000000000000000000000000000000000000000000000000008152600401610f289061270d565b60405180910390fd5b610f3c8383836115f4565b610f47600082610cfd565b6001600360008573ffffffffffffffffffffffffffffffffffffffff1673ffffffffffffffffffffffffffffffffffffffff1681526020019081526020016000206000828254610f97919061275c565b925050819055506001600360008473ffffffffffffffffffffffffffffffffffffffff1673ffffffffffffffffffffffffffffffffffffffff1681526020019081526020016000206000828254610fee9190612790565b92505081905550816002600083815260200190815260200160002060006101000a81548173ffffffffffffffffffffffffffffffffffffffff021916908373ffffffffffffffffffffffffffffffffffffffff160217905550808273ffffffffffffffffffffffffffffffffffffffff168473ffffffffffffffffffffffffffffffffffffffff167fddf252ad1be2c89b69c2b068fc378daa952ba7f163c4a11628f55a4df523b3ef60405160405180910390a46110ad8383836115f9565b505050565b6110ba610cf5565b73ffffffffffffffffffffffffffffffffffffffff166110d86109e2565b73ffffffffffffffffffffffffffffffffffffffff161461112e576040517f08c379a000000000000000000000000000000000000000000000000000000000815260040161112590612832565b60405180910390fd5b565b600081600001549050919050565b6001816000016000828254019250508190555050565b61116e8282604051806020016040528060008152506115fe565b5050565b61117b82611588565b6111ba576040517f08c379a00000000000000000000000000000000000000000000000000000000081526004016111b1906128c4565b60405180910390fd5b806006600084815260200190815260200160002090805190602001906111e1929190611bcd565b505050565b6000600760009054906101000a900473ffffffffffffffffffffffffffffffffffffffff16905081600760006101000a81548173ffffffffffffffffffffffffffffffffffffffff021916908373ffffffffffffffffffffffffffffffffffffffff1602179055508173ffffffffffffffffffffffffffffffffffffffff168173ffffffffffffffffffffffffffffffffffffffff167f8be0079c531659141344cd1fd0a4f28419497f9722a3daafe3b4186f6b6457e060405160405180910390a35050565b8173ffffffffffffffffffffffffffffffffffffffff168373ffffffffffffffffffffffffffffffffffffffff16141561131b576040517f08c379a000000000000000000000000000000000000000000000000000000000815260040161131290612930565b60405180910390fd5b80600560008573ffffffffffffffffffffffffffffffffffffffff1673ffffffffffffffffffffffffffffffffffffffff16815260200190815260200160002060008473ffffffffffffffffffffffffffffffffffffffff1673ffffffffffffffffffffffffffffffffffffffff16815260200190815260200160002060006101000a81548160ff0219169083151502179055508173ffffffffffffffffffffffffffffffffffffffff168373ffffffffffffffffffffffffffffffffffffffff167f17307eab39ab6107e8899845ad3d59bd9653f200f220920489ca2b5937696c318360405161140c9190611d24565b60405180910390a3505050565b611424848484610e4b565b61143084848484611659565b61146f576040517f08c379a0000000000000000000000000000000000000000000000000000000008152600401611466906129c2565b60405180910390fd5b50505050565b606061148082610caa565b60006006600084815260200190815260200160002080546114a090612262565b80601f01602080910402602001604051908101604052809291908181526020018280546114cc90612262565b80156115195780601f106114ee57610100808354040283529160200191611519565b820191906000526020600020905b8154815290600101906020018083116114fc57829003601f168201915b50505050509050600061152a6117f0565b9050600081511415611540578192505050611583565b60008251111561157557808260405160200161155d929190612a1e565b60405160208183030381529060405292505050611583565b61157e84611807565b925050505b919050565b60008073ffffffffffffffffffffffffffffffffffffffff166002600084815260200190815260200160002060009054906101000a900473ffffffffffffffffffffffffffffffffffffffff1673ffffffffffffffffffffffffffffffffffffffff1614159050919050565b505050565b505050565b611608838361186f565b6116156000848484611659565b611654576040517f08c379a000000000000000000000000000000000000000000000000000000000815260040161164b906129c2565b60405180910390fd5b505050565b600061167a8473ffffffffffffffffffffffffffffffffffffffff16611a49565b156117e3578373ffffffffffffffffffffffffffffffffffffffff1663150b7a026116a3610cf5565b8786866040518563ffffffff1660e01b81526004016116c59493929190612a97565b602060405180830381600087803b1580156116df57600080fd5b505af192505050801561171057506040513d601f19601f8201168201806040525081019061170d9190612af8565b60015b611793573d8060008114611740576040519150601f19603f3d011682016040523d82523d6000602084013e611745565b606091505b5060008151141561178b576040517f08c379a0000000000000000000000000000000000000000000000000000000008152600401611782906129c2565b60405180910390fd5b805181602001fd5b63150b7a0260e01b7bffffffffffffffffffffffffffffffffffffffffffffffffffffffff1916817bffffffffffffffffffffffffffffffffffffffffffffffffffffffff1916149150506117e8565b600190505b949350505050565b606060405180602001604052806000815250905090565b606061181282610caa565b600061181c6117f0565b9050600081511161183c5760405180602001604052806000815250611867565b8061184684611a6c565b604051602001611857929190612a1e565b6040516020818303038152906040525b915050919050565b600073ffffffffffffffffffffffffffffffffffffffff168273ffffffffffffffffffffffffffffffffffffffff1614156118df576040517f08c379a00000000000000000000000000000000000000000000000000000000081526004016118d690612b71565b60405180910390fd5b6118e881611588565b15611928576040517f08c379a000000000000000000000000000000000000000000000000000000000815260040161191f90612bdd565b60405180910390fd5b611934600083836115f4565b6001600360008473ffffffffffffffffffffffffffffffffffffffff1673ffffffffffffffffffffffffffffffffffffffff16815260200190815260200160002060008282546119849190612790565b92505081905550816002600083815260200190815260200160002060006101000a81548173ffffffffffffffffffffffffffffffffffffffff021916908373ffffffffffffffffffffffffffffffffffffffff160217905550808273ffffffffffffffffffffffffffffffffffffffff16600073ffffffffffffffffffffffffffffffffffffffff167fddf252ad1be2c89b69c2b068fc378daa952ba7f163c4a11628f55a4df523b3ef60405160405180910390a4611a45600083836115f9565b5050565b6000808273ffffffffffffffffffffffffffffffffffffffff163b119050919050565b60606000821415611ab4576040518060400160405280600181526020017f30000000000000000000000000000000000000000000000000000000000000008152509050611bc8565b600082905060005b60008214611ae6578080611acf90612bfd565b915050600a82611adf9190612c75565b9150611abc565b60008167ffffffffffffffff811115611b0257611b01612045565b5b6040519080825280601f01601f191660200182016040528015611b345781602001600182028036833780820191505090505b5090505b60008514611bc157600182611b4d919061275c565b9150600a85611b5c9190612ca6565b6030611b689190612790565b60f81b818381518110611b7e57611b7d61244a565b5b60200101907effffffffffffffffffffffffffffffffffffffffffffffffffffffffffffff1916908160001a905350600a85611bba9190612c75565b9450611b38565b8093505050505b919050565b828054611bd990612262565b90600052602060002090601f016020900481019282611bfb5760008555611c42565b82601f10611c1457805160ff1916838001178555611c42565b82800160010185558215611c42579182015b82811115611c41578251825591602001919060010190611c26565b5b509050611c4f9190611c53565b5090565b5b80821115611c6c576000816000905550600101611c54565b5090565b6000604051905090565b600080fd5b600080fd5b60007fffffffff0000000000000000000000000000000000000000000000000000000082169050919050565b611cb981611c84565b8114611cc457600080fd5b50565b600081359050611cd681611cb0565b92915050565b600060208284031215611cf257611cf1611c7a565b5b6000611d0084828501611cc7565b91505092915050565b60008115159050919050565b611d1e81611d09565b82525050565b6000602082019050611d396000830184611d15565b92915050565b600081519050919050565b600082825260208201905092915050565b60005b83811015611d79578082015181840152602081019050611d5e565b83811115611d88576000848401525b50505050565b6000601f19601f8301169050919050565b6000611daa82611d3f565b611db48185611d4a565b9350611dc4818560208601611d5b565b611dcd81611d8e565b840191505092915050565b60006020820190508181036000830152611df28184611d9f565b905092915050565b6000819050919050565b611e0d81611dfa565b8114611e1857600080fd5b50565b600081359050611e2a81611e04565b92915050565b600060208284031215611e4657611e45611c7a565b5b6000611e5484828501611e1b565b91505092915050565b600073ffffffffffffffffffffffffffffffffffffffff82169050919050565b6000611e8882611e5d565b9050919050565b611e9881611e7d565b82525050565b6000602082019050611eb36000830184611e8f565b92915050565b611ec281611e7d565b8114611ecd57600080fd5b50565b600081359050611edf81611eb9565b92915050565b60008060408385031215611efc57611efb611c7a565b5b6000611f0a85828601611ed0565b9250506020611f1b85828601611e1b565b9150509250929050565b600080600060608486031215611f3e57611f3d611c7a565b5b6000611f4c86828701611ed0565b9350506020611f5d86828701611ed0565b9250506040611f6e86828701611e1b565b9150509250925092565b600060208284031215611f8e57611f8d611c7a565b5b6000611f9c84828501611ed0565b91505092915050565b611fae81611dfa565b82525050565b6000602082019050611fc96000830184611fa5565b92915050565b611fd881611d09565b8114611fe357600080fd5b50565b600081359050611ff581611fcf565b92915050565b6000806040838503121561201257612011611c7a565b5b600061202085828601611ed0565b925050602061203185828601611fe6565b9150509250929050565b600080fd5b600080fd5b7f4e487b7100000000000000000000000000000000000000000000000000000000600052604160045260246000fd5b61207d82611d8e565b810181811067ffffffffffffffff8211171561209c5761209b612045565b5b80604052505050565b60006120af611c70565b90506120bb8282612074565b919050565b600067ffffffffffffffff8211156120db576120da612045565b5b6120e482611d8e565b9050602081019050919050565b82818337600083830152505050565b600061211361210e846120c0565b6120a5565b90508281526020810184848401111561212f5761212e612040565b5b61213a8482856120f1565b509392505050565b600082601f8301126121575761215661203b565b5b8135612167848260208601612100565b91505092915050565b6000806000806080858703121561218a57612189611c7a565b5b600061219887828801611ed0565b94505060206121a987828801611ed0565b93505060406121ba87828801611e1b565b925050606085013567ffffffffffffffff8111156121db576121da611c7f565b5b6121e787828801612142565b91505092959194509250565b6000806040838503121561220a57612209611c7a565b5b600061221885828601611ed0565b925050602061222985828601611ed0565b9150509250929050565b7f4e487b7100000000000000000000000000000000000000000000000000000000600052602260045260246000fd5b6000600282049050600182168061227a57607f821691505b6020821081141561228e5761228d612233565b5b50919050565b7f4552433732313a20617070726f76616c20746f2063757272656e74206f776e6560008201527f7200000000000000000000000000000000000000000000000000000000000000602082015250565b60006122f0602183611d4a565b91506122fb82612294565b604082019050919050565b6000602082019050818103600083015261231f816122e3565b9050919050565b7f4552433732313a20617070726f76652063616c6c6572206973206e6f7420746f60008201527f6b656e206f776e6572206e6f7220617070726f76656420666f7220616c6c0000602082015250565b6000612382603e83611d4a565b915061238d82612326565b604082019050919050565b600060208201905081810360008301526123b181612375565b9050919050565b7f4552433732313a2063616c6c6572206973206e6f7420746f6b656e206f776e6560008201527f72206e6f7220617070726f766564000000000000000000000000000000000000602082015250565b6000612414602e83611d4a565b915061241f826123b8565b604082019050919050565b6000602082019050818103600083015261244381612407565b9050919050565b7f4e487b7100000000000000000000000000000000000000000000000000000000600052603260045260246000fd5b7f4552433732313a20696e76616c696420746f6b656e2049440000000000000000600082015250565b60006124af601883611d4a565b91506124ba82612479565b602082019050919050565b600060208201905081810360008301526124de816124a2565b9050919050565b7f4552433732313a2061646472657373207a65726f206973206e6f74206120766160008201527f6c6964206f776e65720000000000000000000000000000000000000000000000602082015250565b6000612541602983611d4a565b915061254c826124e5565b604082019050919050565b6000602082019050818103600083015261257081612534565b9050919050565b7f4f776e61626c653a206e6577206f776e657220697320746865207a65726f206160008201527f6464726573730000000000000000000000000000000000000000000000000000602082015250565b60006125d3602683611d4a565b91506125de82612577565b604082019050919050565b60006020820190508181036000830152612602816125c6565b9050919050565b7f4552433732313a207472616e736665722066726f6d20696e636f72726563742060008201527f6f776e6572000000000000000000000000000000000000000000000000000000602082015250565b6000612665602583611d4a565b915061267082612609565b604082019050919050565b6000602082019050818103600083015261269481612658565b9050919050565b7f4552433732313a207472616e7366657220746f20746865207a65726f2061646460008201527f7265737300000000000000000000000000000000000000000000000000000000602082015250565b60006126f7602483611d4a565b91506127028261269b565b604082019050919050565b60006020820190508181036000830152612726816126ea565b9050919050565b7f4e487b7100000000000000000000000000000000000000000000000000000000600052601160045260246000fd5b600061276782611dfa565b915061277283611dfa565b9250828210156127855761278461272d565b5b828203905092915050565b600061279b82611dfa565b91506127a683611dfa565b9250827fffffffffffffffffffffffffffffffffffffffffffffffffffffffffffffffff038211156127db576127da61272d565b5b828201905092915050565b7f4f776e61626c653a2063616c6c6572206973206e6f7420746865206f776e6572600082015250565b600061281c602083611d4a565b9150612827826127e6565b602082019050919050565b6000602082019050818103600083015261284b8161280f565b9050919050565b7f45524337323155524953746f726167653a2055524920736574206f66206e6f6e60008201527f6578697374656e7420746f6b656e000000000000000000000000000000000000602082015250565b60006128ae602e83611d4a565b91506128b982612852565b604082019050919050565b600060208201905081810360008301526128dd816128a1565b9050919050565b7f4552433732313a20617070726f766520746f2063616c6c657200000000000000600082015250565b600061291a601983611d4a565b9150612925826128e4565b602082019050919050565b600060208201905081810360008301526129498161290d565b9050919050565b7f4552433732313a207472616e7366657220746f206e6f6e20455243373231526560008201527f63656976657220696d706c656d656e7465720000000000000000000000000000602082015250565b60006129ac603283611d4a565b91506129b782612950565b604082019050919050565b600060208201905081810360008301526129db8161299f565b9050919050565b600081905092915050565b60006129f882611d3f565b612a0281856129e2565b9350612a12818560208601611d5b565b80840191505092915050565b6000612a2a82856129ed565b9150612a3682846129ed565b91508190509392505050565b600081519050919050565b600082825260208201905092915050565b6000612a6982612a42565b612a738185612a4d565b9350612a83818560208601611d5b565b612a8c81611d8e565b840191505092915050565b6000608082019050612aac6000830187611e8f565b612ab96020830186611e8f565b612ac66040830185611fa5565b8181036060830152612ad88184612a5e565b905095945050505050565b600081519050612af281611cb0565b92915050565b600060208284031215612b0e57612b0d611c7a565b5b6000612b1c84828501612ae3565b91505092915050565b7f4552433732313a206d696e7420746f20746865207a65726f2061646472657373600082015250565b6000612b5b602083611d4a565b9150612b6682612b25565b602082019050919050565b60006020820190508181036000830152612b8a81612b4e565b9050919050565b7f4552433732313a20746f6b656e20616c7265616479206d696e74656400000000600082015250565b6000612bc7601c83611d4a565b9150612bd282612b91565b602082019050919050565b60006020820190508181036000830152612bf681612bba565b9050919050565b6000612c0882611dfa565b91507fffffffffffffffffffffffffffffffffffffffffffffffffffffffffffffffff821415612c3b57612c3a61272d565b5b600182019050919050565b7f4e487b7100000000000000000000000000000000000000000000000000000000600052601260045260246000fd5b6000612c8082611dfa565b9150612c8b83611dfa565b925082612c9b57612c9a612c46565b5b828204905092915050565b6000612cb182611dfa565b9150612cbc83611dfa565b925082612ccc57612ccb612c46565b5b82820690509291505056fea26469706673582212204f55cc69bdfdabf4460f4b33958a97f83139874ff533243cb4800f2cd477b65264736f6c6343000809003368747470733a2f2f676174657761792e70696e6174612e636c6f75642f697066732f516d513550534e445a457a5576635064476437337a7a466959364e4a4841797a776e557a56634a6e5567793758732f6372656369656e646f2e6a736f6e68747470733a2f2f676174657761792e70696e6174612e636c6f75642f697066732f516d513550534e445a457a5576635064476437337a7a466959364e4a4841797a776e557a56634a6e5567793758732f666c6f7265636964612e6a736f6e",
  "linkReferences": {},
  "deployedLinkReferences": {}
}