{
  "_format": "hh-sol-artifact-1",
  "contractName": "NFTDinamic",
  "sourceName": "src/blockchain/hardhat/contracts/NFTDinamic.sol",
  "abi": [
    {
      "inputs": [
        {
          "internalType": "uint256",
          "name": "_interval",
          "type": "uint256"
        }
      ],
      "stateMutability": "nonpayable",
      "type": "constructor"
    },
    {
      "anonymous": false,
      "inputs": [
        {
          "indexed": true,
          "internalType": "address",
          "name": "owner",
          "type": "address"
        },
        {
          "indexed": true,
          "internalType": "address",
          "name": "approved",
          "type": "address"
        },
        {
          "indexed": true,
          "internalType": "uint256",
          "name": "tokenId",
          "type": "uint256"
        }
      ],
      "name": "Approval",
      "type": "event"
    },
    {
      "anonymous": false,
      "inputs": [
        {
          "indexed": true,
          "internalType": "address",
          "name": "owner",
          "type": "address"
        },
        {
          "indexed": true,
          "internalType": "address",
          "name": "operator",
          "type": "address"
        },
        {
          "indexed": false,
          "internalType": "bool",
          "name": "approved",
          "type": "bool"
        }
      ],
      "name": "ApprovalForAll",
      "type": "event"
    },
    {
      "anonymous": false,
      "inputs": [
        {
          "indexed": true,
          "internalType": "address",
          "name": "from",
          "type": "address"
        },
        {
          "indexed": true,
          "internalType": "address",
          "name": "to",
          "type": "address"
        },
        {
          "indexed": true,
          "internalType": "uint256",
          "name": "tokenId",
          "type": "uint256"
        }
      ],
      "name": "Transfer",
      "type": "event"
    },
    {
      "inputs": [
        {
          "internalType": "address",
          "name": "to",
          "type": "address"
        },
        {
          "internalType": "uint256",
          "name": "tokenId",
          "type": "uint256"
        }
      ],
      "name": "approve",
      "outputs": [],
      "stateMutability": "nonpayable",
      "type": "function"
    },
    {
      "inputs": [
        {
          "internalType": "address",
          "name": "owner",
          "type": "address"
        }
      ],
      "name": "balanceOf",
      "outputs": [
        {
          "internalType": "uint256",
          "name": "",
          "type": "uint256"
        }
      ],
      "stateMutability": "view",
      "type": "function"
    },
    {
      "inputs": [
        {
          "internalType": "uint256",
          "name": "_tokenId",
          "type": "uint256"
        }
      ],
      "name": "changeNumber",
      "outputs": [],
      "stateMutability": "nonpayable",
      "type": "function"
    },
    {
      "inputs": [
        {
          "internalType": "bytes",
          "name": "",
          "type": "bytes"
        }
      ],
      "name": "checkUpkeep",
      "outputs": [
        {
          "internalType": "bool",
          "name": "upkeepNeeded",
          "type": "bool"
        },
        {
          "internalType": "bytes",
          "name": "",
          "type": "bytes"
        }
      ],
      "stateMutability": "view",
      "type": "function"
    },
    {
      "inputs": [
        {
          "internalType": "string",
          "name": "a",
          "type": "string"
        },
        {
          "internalType": "string",
          "name": "b",
          "type": "string"
        }
      ],
      "name": "compareStrings",
      "outputs": [
        {
          "internalType": "bool",
          "name": "",
          "type": "bool"
        }
      ],
      "stateMutability": "pure",
      "type": "function"
    },
    {
      "inputs": [
        {
          "internalType": "uint256",
          "name": "tokenId",
          "type": "uint256"
        }
      ],
      "name": "getApproved",
      "outputs": [
        {
          "internalType": "address",
          "name": "",
          "type": "address"
        }
      ],
      "stateMutability": "view",
      "type": "function"
    },
    {
      "inputs": [
        {
          "internalType": "address",
          "name": "owner",
          "type": "address"
        },
        {
          "internalType": "address",
          "name": "operator",
          "type": "address"
        }
      ],
      "name": "isApprovedForAll",
      "outputs": [
        {
          "internalType": "bool",
          "name": "",
          "type": "bool"
        }
      ],
      "stateMutability": "view",
      "type": "function"
    },
    {
      "inputs": [],
      "name": "name",
      "outputs": [
        {
          "internalType": "string",
          "name": "",
          "type": "string"
        }
      ],
      "stateMutability": "view",
      "type": "function"
    },
    {
      "inputs": [
        {
          "internalType": "uint256",
          "name": "_tokenId",
          "type": "uint256"
        }
      ],
      "name": "numberStage",
      "outputs": [
        {
          "internalType": "uint256",
          "name": "",
          "type": "uint256"
        }
      ],
      "stateMutability": "view",
      "type": "function"
    },
    {
      "inputs": [
        {
          "internalType": "uint256",
          "name": "tokenId",
          "type": "uint256"
        }
      ],
      "name": "ownerOf",
      "outputs": [
        {
          "internalType": "address",
          "name": "",
          "type": "address"
        }
      ],
      "stateMutability": "view",
      "type": "function"
    },
    {
      "inputs": [
        {
          "internalType": "bytes",
          "name": "",
          "type": "bytes"
        }
      ],
      "name": "performUpkeep",
      "outputs": [],
      "stateMutability": "nonpayable",
      "type": "function"
    },
    {
      "inputs": [
        {
          "internalType": "address",
          "name": "to",
          "type": "address"
        }
      ],
      "name": "safeMint",
      "outputs": [],
      "stateMutability": "nonpayable",
      "type": "function"
    },
    {
      "inputs": [
        {
          "internalType": "address",
          "name": "from",
          "type": "address"
        },
        {
          "internalType": "address",
          "name": "to",
          "type": "address"
        },
        {
          "internalType": "uint256",
          "name": "tokenId",
          "type": "uint256"
        }
      ],
      "name": "safeTransferFrom",
      "outputs": [],
      "stateMutability": "nonpayable",
      "type": "function"
    },
    {
      "inputs": [
        {
          "internalType": "address",
          "name": "from",
          "type": "address"
        },
        {
          "internalType": "address",
          "name": "to",
          "type": "address"
        },
        {
          "internalType": "uint256",
          "name": "tokenId",
          "type": "uint256"
        },
        {
          "internalType": "bytes",
          "name": "data",
          "type": "bytes"
        }
      ],
      "name": "safeTransferFrom",
      "outputs": [],
      "stateMutability": "nonpayable",
      "type": "function"
    },
    {
      "inputs": [
        {
          "internalType": "address",
          "name": "operator",
          "type": "address"
        },
        {
          "internalType": "bool",
          "name": "approved",
          "type": "bool"
        }
      ],
      "name": "setApprovalForAll",
      "outputs": [],
      "stateMutability": "nonpayable",
      "type": "function"
    },
    {
      "inputs": [
        {
          "internalType": "bytes4",
          "name": "interfaceId",
          "type": "bytes4"
        }
      ],
      "name": "supportsInterface",
      "outputs": [
        {
          "internalType": "bool",
          "name": "",
          "type": "bool"
        }
      ],
      "stateMutability": "view",
      "type": "function"
    },
    {
      "inputs": [],
      "name": "symbol",
      "outputs": [
        {
          "internalType": "string",
          "name": "",
          "type": "string"
        }
      ],
      "stateMutability": "view",
      "type": "function"
    },
    {
      "inputs": [],
      "name": "tokenIdCounter",
      "outputs": [
        {
          "internalType": "uint256",
          "name": "_value",
          "type": "uint256"
        }
      ],
      "stateMutability": "view",
      "type": "function"
    },
    {
      "inputs": [
        {
          "internalType": "uint256",
          "name": "tokenId",
          "type": "uint256"
        }
      ],
      "name": "tokenURI",
      "outputs": [
        {
          "internalType": "string",
          "name": "",
          "type": "string"
        }
      ],
      "stateMutability": "view",
      "type": "function"
    },
    {
      "inputs": [
        {
          "internalType": "address",
          "name": "from",
          "type": "address"
        },
        {
          "internalType": "address",
          "name": "to",
          "type": "address"
        },
        {
          "internalType": "uint256",
          "name": "tokenId",
          "type": "uint256"
        }
      ],
      "name": "transferFrom",
      "outputs": [],
      "stateMutability": "nonpayable",
      "type": "function"
    }
  ],
  "bytecode": "0x60806040526040518060a00160405280604051806080016040528060508152602001620035b060509139815260200160405180608001604052806050815260200162003650605091398152602001604051806080016040528060508152602001620035606050913981526020016040518060800160405280605081526020016200360060509139815260200160405180608001604052806050815260200162003510605091398152506008906005620000ba929190620001a3565b50348015620000c857600080fd5b50604051620036a0380380620036a08339818101604052810190620000ee919062000368565b6040518060400160405280600a81526020017f4e465444696e616d6963000000000000000000000000000000000000000000008152506040518060400160405280600381526020017f444e4300000000000000000000000000000000000000000000000000000000008152508160009080519060200190620001729291906200020a565b5080600190805190602001906200018b9291906200020a565b50505080600a819055504260098190555050620003ff565b828054828255906000526020600020908101928215620001f7579160200282015b82811115620001f6578251829080519060200190620001e59291906200020a565b5091602001919060010190620001c4565b5b5090506200020691906200029b565b5090565b8280546200021890620003c9565b90600052602060002090601f0160209004810192826200023c576000855562000288565b82601f106200025757805160ff191683800117855562000288565b8280016001018555821562000288579182015b82811115620002875782518255916020019190600101906200026a565b5b509050620002979190620002c3565b5090565b5b80821115620002bf5760008181620002b59190620002e2565b506001016200029c565b5090565b5b80821115620002de576000816000905550600101620002c4565b5090565b508054620002f090620003c9565b6000825580601f1062000304575062000325565b601f016020900490600052602060002090810190620003249190620002c3565b5b50565b600080fd5b6000819050919050565b62000342816200032d565b81146200034e57600080fd5b50565b600081519050620003628162000337565b92915050565b60006020828403121562000381576200038062000328565b5b6000620003918482850162000351565b91505092915050565b7f4e487b7100000000000000000000000000000000000000000000000000000000600052602260045260246000fd5b60006002820490506001821680620003e257607f821691505b60208210811415620003f957620003f86200039a565b5b50919050565b613101806200040f6000396000f3fe608060405234801561001057600080fd5b506004361061012c5760003560e01c80636e04ff0d116100ad578063a22cb46511610071578063a22cb46514610354578063b88d4fde14610370578063bed34bba1461038c578063c87b56dd146103bc578063e985e9c5146103ec5761012c565b80636e04ff0d1461028757806370a08231146102b857806385bf9d5b146102e857806395d89b411461031857806398bdf6f5146103365761012c565b806323b872dd116100f457806323b872dd146101e757806340d097c31461020357806342842e0e1461021f5780634585e33b1461023b5780636352211e146102575761012c565b806301ffc9a71461013157806306fdde031461016157806307391dd61461017f578063081812fc1461019b578063095ea7b3146101cb575b600080fd5b61014b60048036038101906101469190611fc1565b61041c565b6040516101589190612009565b60405180910390f35b6101696104fe565b60405161017691906120bd565b60405180910390f35b61019960048036038101906101949190612115565b610590565b005b6101b560048036038101906101b09190612115565b610679565b6040516101c29190612183565b60405180910390f35b6101e560048036038101906101e091906121ca565b6106bf565b005b61020160048036038101906101fc919061220a565b6107d7565b005b61021d6004803603810190610218919061225d565b610837565b005b6102396004803603810190610234919061220a565b61090e565b005b610255600480360381019061025091906122ef565b61092e565b005b610271600480360381019061026c9190612115565b610975565b60405161027e9190612183565b60405180910390f35b6102a1600480360381019061029c91906122ef565b610a27565b6040516102af929190612391565b60405180910390f35b6102d260048036038101906102cd919061225d565b610a83565b6040516102df91906123d0565b60405180910390f35b61030260048036038101906102fd9190612115565b610b3b565b60405161030f91906123d0565b60405180910390f35b610320610e54565b60405161032d91906120bd565b60405180910390f35b61033e610ee6565b60405161034b91906123d0565b60405180910390f35b61036e60048036038101906103699190612417565b610ef2565b005b61038a60048036038101906103859190612587565b610f08565b005b6103a660048036038101906103a191906126ab565b610f6a565b6040516103b39190612009565b60405180910390f35b6103d660048036038101906103d19190612115565b610fc3565b6040516103e391906120bd565b60405180910390f35b61040660048036038101906104019190612723565b610fd5565b6040516104139190612009565b60405180910390f35b60007f80ac58cd000000000000000000000000000000000000000000000000000000007bffffffffffffffffffffffffffffffffffffffffffffffffffffffff1916827bffffffffffffffffffffffffffffffffffffffffffffffffffffffff191614806104e757507f5b5e139f000000000000000000000000000000000000000000000000000000007bffffffffffffffffffffffffffffffffffffffffffffffffffffffff1916827bffffffffffffffffffffffffffffffffffffffffffffffffffffffff1916145b806104f757506104f682611069565b5b9050919050565b60606000805461050d90612792565b80601f016020809104026020016040519081016040528092919081815260200182805461053990612792565b80156105865780601f1061055b57610100808354040283529160200191610586565b820191906000526020600020905b81548152906001019060200180831161056957829003601f168201915b5050505050905090565b600461059b82610b3b565b106105a557610676565b600060016105b283610b3b565b6105bc91906127f3565b90506000600882815481106105d4576105d3612849565b5b9060005260206000200180546105e990612792565b80601f016020809104026020016040519081016040528092919081815260200182805461061590612792565b80156106625780601f1061063757610100808354040283529160200191610662565b820191906000526020600020905b81548152906001019060200180831161064557829003601f168201915b5050505050905061067383826110d3565b50505b50565b600061068482611147565b6004600083815260200190815260200160002060009054906101000a900473ffffffffffffffffffffffffffffffffffffffff169050919050565b60006106ca82610975565b90508073ffffffffffffffffffffffffffffffffffffffff168373ffffffffffffffffffffffffffffffffffffffff16141561073b576040517f08c379a0000000000000000000000000000000000000000000000000000000008152600401610732906128ea565b60405180910390fd5b8073ffffffffffffffffffffffffffffffffffffffff1661075a611192565b73ffffffffffffffffffffffffffffffffffffffff161480610789575061078881610783611192565b610fd5565b5b6107c8576040517f08c379a00000000000000000000000000000000000000000000000000000000081526004016107bf9061297c565b60405180910390fd5b6107d2838361119a565b505050565b6107e86107e2611192565b82611253565b610827576040517f08c379a000000000000000000000000000000000000000000000000000000000815260040161081e90612a0e565b60405180910390fd5b6108328383836112e8565b505050565b6000610843600761154f565b905061084f600761155d565b6108598282611573565b61090a81600860008154811061087257610871612849565b5b90600052602060002001805461088790612792565b80601f01602080910402602001604051908101604052809291908181526020018280546108b390612792565b80156109005780601f106108d557610100808354040283529160200191610900565b820191906000526020600020905b8154815290600101906020018083116108e357829003601f168201915b50505050506110d3565b5050565b61092983838360405180602001604052806000815250610f08565b505050565b600a546009544261093f9190612a2e565b111561097157426009819055506000600161095a600761154f565b6109649190612a2e565b905061096f81610590565b505b5050565b6000806002600084815260200190815260200160002060009054906101000a900473ffffffffffffffffffffffffffffffffffffffff169050600073ffffffffffffffffffffffffffffffffffffffff168173ffffffffffffffffffffffffffffffffffffffff161415610a1e576040517f08c379a0000000000000000000000000000000000000000000000000000000008152600401610a1590612aae565b60405180910390fd5b80915050919050565b6000606060006001610a39600761154f565b610a439190612a2e565b905060006004610a5283610b3b565b10610a5c57600190505b80158015610a785750600a5460095442610a769190612a2e565b115b935050509250929050565b60008073ffffffffffffffffffffffffffffffffffffffff168273ffffffffffffffffffffffffffffffffffffffff161415610af4576040517f08c379a0000000000000000000000000000000000000000000000000000000008152600401610aeb90612b40565b60405180910390fd5b600360008373ffffffffffffffffffffffffffffffffffffffff1673ffffffffffffffffffffffffffffffffffffffff168152602001908152602001600020549050919050565b600080610b4783610fc3565b9050610bfa816008600081548110610b6257610b61612849565b5b906000526020600020018054610b7790612792565b80601f0160208091040260200160405190810160405280929190818152602001828054610ba390612792565b8015610bf05780601f10610bc557610100808354040283529160200191610bf0565b820191906000526020600020905b815481529060010190602001808311610bd357829003601f168201915b5050505050610f6a565b15610c09576000915050610e4f565b610cba816008600181548110610c2257610c21612849565b5b906000526020600020018054610c3790612792565b80601f0160208091040260200160405190810160405280929190818152602001828054610c6390612792565b8015610cb05780601f10610c8557610100808354040283529160200191610cb0565b820191906000526020600020905b815481529060010190602001808311610c9357829003601f168201915b5050505050610f6a565b15610cc9576001915050610e4f565b610d7a816008600281548110610ce257610ce1612849565b5b906000526020600020018054610cf790612792565b80601f0160208091040260200160405190810160405280929190818152602001828054610d2390612792565b8015610d705780601f10610d4557610100808354040283529160200191610d70565b820191906000526020600020905b815481529060010190602001808311610d5357829003601f168201915b5050505050610f6a565b15610d89576002915050610e4f565b610e3a816008600381548110610da257610da1612849565b5b906000526020600020018054610db790612792565b80601f0160208091040260200160405190810160405280929190818152602001828054610de390612792565b8015610e305780601f10610e0557610100808354040283529160200191610e30565b820191906000526020600020905b815481529060010190602001808311610e1357829003601f168201915b5050505050610f6a565b15610e49576003915050610e4f565b60049150505b919050565b606060018054610e6390612792565b80601f0160208091040260200160405190810160405280929190818152602001828054610e8f90612792565b8015610edc5780601f10610eb157610100808354040283529160200191610edc565b820191906000526020600020905b815481529060010190602001808311610ebf57829003601f168201915b5050505050905090565b60078060000154905081565b610f04610efd611192565b8383611591565b5050565b610f19610f13611192565b83611253565b610f58576040517f08c379a0000000000000000000000000000000000000000000000000000000008152600401610f4f90612a0e565b60405180910390fd5b610f64848484846116fe565b50505050565b600081604051602001610f7d9190612b9c565b6040516020818303038152906040528051906020012083604051602001610fa49190612b9c565b6040516020818303038152906040528051906020012014905092915050565b6060610fce8261175a565b9050919050565b6000600560008473ffffffffffffffffffffffffffffffffffffffff1673ffffffffffffffffffffffffffffffffffffffff16815260200190815260200160002060008373ffffffffffffffffffffffffffffffffffffffff1673ffffffffffffffffffffffffffffffffffffffff16815260200190815260200160002060009054906101000a900460ff16905092915050565b60007f01ffc9a7000000000000000000000000000000000000000000000000000000007bffffffffffffffffffffffffffffffffffffffffffffffffffffffff1916827bffffffffffffffffffffffffffffffffffffffffffffffffffffffff1916149050919050565b6110dc8261186d565b61111b576040517f08c379a000000000000000000000000000000000000000000000000000000000815260040161111290612c25565b60405180910390fd5b80600660008481526020019081526020016000209080519060200190611142929190611eb2565b505050565b6111508161186d565b61118f576040517f08c379a000000000000000000000000000000000000000000000000000000000815260040161118690612aae565b60405180910390fd5b50565b600033905090565b816004600083815260200190815260200160002060006101000a81548173ffffffffffffffffffffffffffffffffffffffff021916908373ffffffffffffffffffffffffffffffffffffffff160217905550808273ffffffffffffffffffffffffffffffffffffffff1661120d83610975565b73ffffffffffffffffffffffffffffffffffffffff167f8c5be1e5ebec7d5bd14f71427d1e84f3dd0314c0f7b2291e5b200ac8c7c3b92560405160405180910390a45050565b60008061125f83610975565b90508073ffffffffffffffffffffffffffffffffffffffff168473ffffffffffffffffffffffffffffffffffffffff1614806112a157506112a08185610fd5565b5b806112df57508373ffffffffffffffffffffffffffffffffffffffff166112c784610679565b73ffffffffffffffffffffffffffffffffffffffff16145b91505092915050565b8273ffffffffffffffffffffffffffffffffffffffff1661130882610975565b73ffffffffffffffffffffffffffffffffffffffff161461135e576040517f08c379a000000000000000000000000000000000000000000000000000000000815260040161135590612cb7565b60405180910390fd5b600073ffffffffffffffffffffffffffffffffffffffff168273ffffffffffffffffffffffffffffffffffffffff1614156113ce576040517f08c379a00000000000000000000000000000000000000000000000000000000081526004016113c590612d49565b60405180910390fd5b6113d98383836118d9565b6113e460008261119a565b6001600360008573ffffffffffffffffffffffffffffffffffffffff1673ffffffffffffffffffffffffffffffffffffffff16815260200190815260200160002060008282546114349190612a2e565b925050819055506001600360008473ffffffffffffffffffffffffffffffffffffffff1673ffffffffffffffffffffffffffffffffffffffff168152602001908152602001600020600082825461148b91906127f3565b92505081905550816002600083815260200190815260200160002060006101000a81548173ffffffffffffffffffffffffffffffffffffffff021916908373ffffffffffffffffffffffffffffffffffffffff160217905550808273ffffffffffffffffffffffffffffffffffffffff168473ffffffffffffffffffffffffffffffffffffffff167fddf252ad1be2c89b69c2b068fc378daa952ba7f163c4a11628f55a4df523b3ef60405160405180910390a461154a8383836118de565b505050565b600081600001549050919050565b6001816000016000828254019250508190555050565b61158d8282604051806020016040528060008152506118e3565b5050565b8173ffffffffffffffffffffffffffffffffffffffff168373ffffffffffffffffffffffffffffffffffffffff161415611600576040517f08c379a00000000000000000000000000000000000000000000000000000000081526004016115f790612db5565b60405180910390fd5b80600560008573ffffffffffffffffffffffffffffffffffffffff1673ffffffffffffffffffffffffffffffffffffffff16815260200190815260200160002060008473ffffffffffffffffffffffffffffffffffffffff1673ffffffffffffffffffffffffffffffffffffffff16815260200190815260200160002060006101000a81548160ff0219169083151502179055508173ffffffffffffffffffffffffffffffffffffffff168373ffffffffffffffffffffffffffffffffffffffff167f17307eab39ab6107e8899845ad3d59bd9653f200f220920489ca2b5937696c31836040516116f19190612009565b60405180910390a3505050565b6117098484846112e8565b6117158484848461193e565b611754576040517f08c379a000000000000000000000000000000000000000000000000000000000815260040161174b90612e47565b60405180910390fd5b50505050565b606061176582611147565b600060066000848152602001908152602001600020805461178590612792565b80601f01602080910402602001604051908101604052809291908181526020018280546117b190612792565b80156117fe5780601f106117d3576101008083540402835291602001916117fe565b820191906000526020600020905b8154815290600101906020018083116117e157829003601f168201915b50505050509050600061180f611ad5565b9050600081511415611825578192505050611868565b60008251111561185a578082604051602001611842929190612e67565b60405160208183030381529060405292505050611868565b61186384611aec565b925050505b919050565b60008073ffffffffffffffffffffffffffffffffffffffff166002600084815260200190815260200160002060009054906101000a900473ffffffffffffffffffffffffffffffffffffffff1673ffffffffffffffffffffffffffffffffffffffff1614159050919050565b505050565b505050565b6118ed8383611b54565b6118fa600084848461193e565b611939576040517f08c379a000000000000000000000000000000000000000000000000000000000815260040161193090612e47565b60405180910390fd5b505050565b600061195f8473ffffffffffffffffffffffffffffffffffffffff16611d2e565b15611ac8578373ffffffffffffffffffffffffffffffffffffffff1663150b7a02611988611192565b8786866040518563ffffffff1660e01b81526004016119aa9493929190612e8b565b602060405180830381600087803b1580156119c457600080fd5b505af19250505080156119f557506040513d601f19601f820116820180604052508101906119f29190612eec565b60015b611a78573d8060008114611a25576040519150601f19603f3d011682016040523d82523d6000602084013e611a2a565b606091505b50600081511415611a70576040517f08c379a0000000000000000000000000000000000000000000000000000000008152600401611a6790612e47565b60405180910390fd5b805181602001fd5b63150b7a0260e01b7bffffffffffffffffffffffffffffffffffffffffffffffffffffffff1916817bffffffffffffffffffffffffffffffffffffffffffffffffffffffff191614915050611acd565b600190505b949350505050565b606060405180602001604052806000815250905090565b6060611af782611147565b6000611b01611ad5565b90506000815111611b215760405180602001604052806000815250611b4c565b80611b2b84611d51565b604051602001611b3c929190612e67565b6040516020818303038152906040525b915050919050565b600073ffffffffffffffffffffffffffffffffffffffff168273ffffffffffffffffffffffffffffffffffffffff161415611bc4576040517f08c379a0000000000000000000000000000000000000000000000000000000008152600401611bbb90612f65565b60405180910390fd5b611bcd8161186d565b15611c0d576040517f08c379a0000000000000000000000000000000000000000000000000000000008152600401611c0490612fd1565b60405180910390fd5b611c19600083836118d9565b6001600360008473ffffffffffffffffffffffffffffffffffffffff1673ffffffffffffffffffffffffffffffffffffffff1681526020019081526020016000206000828254611c6991906127f3565b92505081905550816002600083815260200190815260200160002060006101000a81548173ffffffffffffffffffffffffffffffffffffffff021916908373ffffffffffffffffffffffffffffffffffffffff160217905550808273ffffffffffffffffffffffffffffffffffffffff16600073ffffffffffffffffffffffffffffffffffffffff167fddf252ad1be2c89b69c2b068fc378daa952ba7f163c4a11628f55a4df523b3ef60405160405180910390a4611d2a600083836118de565b5050565b6000808273ffffffffffffffffffffffffffffffffffffffff163b119050919050565b60606000821415611d99576040518060400160405280600181526020017f30000000000000000000000000000000000000000000000000000000000000008152509050611ead565b600082905060005b60008214611dcb578080611db490612ff1565b915050600a82611dc49190613069565b9150611da1565b60008167ffffffffffffffff811115611de757611de661245c565b5b6040519080825280601f01601f191660200182016040528015611e195781602001600182028036833780820191505090505b5090505b60008514611ea657600182611e329190612a2e565b9150600a85611e41919061309a565b6030611e4d91906127f3565b60f81b818381518110611e6357611e62612849565b5b60200101907effffffffffffffffffffffffffffffffffffffffffffffffffffffffffffff1916908160001a905350600a85611e9f9190613069565b9450611e1d565b8093505050505b919050565b828054611ebe90612792565b90600052602060002090601f016020900481019282611ee05760008555611f27565b82601f10611ef957805160ff1916838001178555611f27565b82800160010185558215611f27579182015b82811115611f26578251825591602001919060010190611f0b565b5b509050611f349190611f38565b5090565b5b80821115611f51576000816000905550600101611f39565b5090565b6000604051905090565b600080fd5b600080fd5b60007fffffffff0000000000000000000000000000000000000000000000000000000082169050919050565b611f9e81611f69565b8114611fa957600080fd5b50565b600081359050611fbb81611f95565b92915050565b600060208284031215611fd757611fd6611f5f565b5b6000611fe584828501611fac565b91505092915050565b60008115159050919050565b61200381611fee565b82525050565b600060208201905061201e6000830184611ffa565b92915050565b600081519050919050565b600082825260208201905092915050565b60005b8381101561205e578082015181840152602081019050612043565b8381111561206d576000848401525b50505050565b6000601f19601f8301169050919050565b600061208f82612024565b612099818561202f565b93506120a9818560208601612040565b6120b281612073565b840191505092915050565b600060208201905081810360008301526120d78184612084565b905092915050565b6000819050919050565b6120f2816120df565b81146120fd57600080fd5b50565b60008135905061210f816120e9565b92915050565b60006020828403121561212b5761212a611f5f565b5b600061213984828501612100565b91505092915050565b600073ffffffffffffffffffffffffffffffffffffffff82169050919050565b600061216d82612142565b9050919050565b61217d81612162565b82525050565b60006020820190506121986000830184612174565b92915050565b6121a781612162565b81146121b257600080fd5b50565b6000813590506121c48161219e565b92915050565b600080604083850312156121e1576121e0611f5f565b5b60006121ef858286016121b5565b925050602061220085828601612100565b9150509250929050565b60008060006060848603121561222357612222611f5f565b5b6000612231868287016121b5565b9350506020612242868287016121b5565b925050604061225386828701612100565b9150509250925092565b60006020828403121561227357612272611f5f565b5b6000612281848285016121b5565b91505092915050565b600080fd5b600080fd5b600080fd5b60008083601f8401126122af576122ae61228a565b5b8235905067ffffffffffffffff8111156122cc576122cb61228f565b5b6020830191508360018202830111156122e8576122e7612294565b5b9250929050565b6000806020838503121561230657612305611f5f565b5b600083013567ffffffffffffffff81111561232457612323611f64565b5b61233085828601612299565b92509250509250929050565b600081519050919050565b600082825260208201905092915050565b60006123638261233c565b61236d8185612347565b935061237d818560208601612040565b61238681612073565b840191505092915050565b60006040820190506123a66000830185611ffa565b81810360208301526123b88184612358565b90509392505050565b6123ca816120df565b82525050565b60006020820190506123e560008301846123c1565b92915050565b6123f481611fee565b81146123ff57600080fd5b50565b600081359050612411816123eb565b92915050565b6000806040838503121561242e5761242d611f5f565b5b600061243c858286016121b5565b925050602061244d85828601612402565b9150509250929050565b600080fd5b7f4e487b7100000000000000000000000000000000000000000000000000000000600052604160045260246000fd5b61249482612073565b810181811067ffffffffffffffff821117156124b3576124b261245c565b5b80604052505050565b60006124c6611f55565b90506124d2828261248b565b919050565b600067ffffffffffffffff8211156124f2576124f161245c565b5b6124fb82612073565b9050602081019050919050565b82818337600083830152505050565b600061252a612525846124d7565b6124bc565b90508281526020810184848401111561254657612545612457565b5b612551848285612508565b509392505050565b600082601f83011261256e5761256d61228a565b5b813561257e848260208601612517565b91505092915050565b600080600080608085870312156125a1576125a0611f5f565b5b60006125af878288016121b5565b94505060206125c0878288016121b5565b93505060406125d187828801612100565b925050606085013567ffffffffffffffff8111156125f2576125f1611f64565b5b6125fe87828801612559565b91505092959194509250565b600067ffffffffffffffff8211156126255761262461245c565b5b61262e82612073565b9050602081019050919050565b600061264e6126498461260a565b6124bc565b90508281526020810184848401111561266a57612669612457565b5b612675848285612508565b509392505050565b600082601f8301126126925761269161228a565b5b81356126a284826020860161263b565b91505092915050565b600080604083850312156126c2576126c1611f5f565b5b600083013567ffffffffffffffff8111156126e0576126df611f64565b5b6126ec8582860161267d565b925050602083013567ffffffffffffffff81111561270d5761270c611f64565b5b6127198582860161267d565b9150509250929050565b6000806040838503121561273a57612739611f5f565b5b6000612748858286016121b5565b9250506020612759858286016121b5565b9150509250929050565b7f4e487b7100000000000000000000000000000000000000000000000000000000600052602260045260246000fd5b600060028204905060018216806127aa57607f821691505b602082108114156127be576127bd612763565b5b50919050565b7f4e487b7100000000000000000000000000000000000000000000000000000000600052601160045260246000fd5b60006127fe826120df565b9150612809836120df565b9250827fffffffffffffffffffffffffffffffffffffffffffffffffffffffffffffffff0382111561283e5761283d6127c4565b5b828201905092915050565b7f4e487b7100000000000000000000000000000000000000000000000000000000600052603260045260246000fd5b7f4552433732313a20617070726f76616c20746f2063757272656e74206f776e6560008201527f7200000000000000000000000000000000000000000000000000000000000000602082015250565b60006128d460218361202f565b91506128df82612878565b604082019050919050565b60006020820190508181036000830152612903816128c7565b9050919050565b7f4552433732313a20617070726f76652063616c6c6572206973206e6f7420746f60008201527f6b656e206f776e6572206e6f7220617070726f76656420666f7220616c6c0000602082015250565b6000612966603e8361202f565b91506129718261290a565b604082019050919050565b6000602082019050818103600083015261299581612959565b9050919050565b7f4552433732313a2063616c6c6572206973206e6f7420746f6b656e206f776e6560008201527f72206e6f7220617070726f766564000000000000000000000000000000000000602082015250565b60006129f8602e8361202f565b9150612a038261299c565b604082019050919050565b60006020820190508181036000830152612a27816129eb565b9050919050565b6000612a39826120df565b9150612a44836120df565b925082821015612a5757612a566127c4565b5b828203905092915050565b7f4552433732313a20696e76616c696420746f6b656e2049440000000000000000600082015250565b6000612a9860188361202f565b9150612aa382612a62565b602082019050919050565b60006020820190508181036000830152612ac781612a8b565b9050919050565b7f4552433732313a2061646472657373207a65726f206973206e6f74206120766160008201527f6c6964206f776e65720000000000000000000000000000000000000000000000602082015250565b6000612b2a60298361202f565b9150612b3582612ace565b604082019050919050565b60006020820190508181036000830152612b5981612b1d565b9050919050565b600081905092915050565b6000612b7682612024565b612b808185612b60565b9350612b90818560208601612040565b80840191505092915050565b6000612ba88284612b6b565b915081905092915050565b7f45524337323155524953746f726167653a2055524920736574206f66206e6f6e60008201527f6578697374656e7420746f6b656e000000000000000000000000000000000000602082015250565b6000612c0f602e8361202f565b9150612c1a82612bb3565b604082019050919050565b60006020820190508181036000830152612c3e81612c02565b9050919050565b7f4552433732313a207472616e736665722066726f6d20696e636f72726563742060008201527f6f776e6572000000000000000000000000000000000000000000000000000000602082015250565b6000612ca160258361202f565b9150612cac82612c45565b604082019050919050565b60006020820190508181036000830152612cd081612c94565b9050919050565b7f4552433732313a207472616e7366657220746f20746865207a65726f2061646460008201527f7265737300000000000000000000000000000000000000000000000000000000602082015250565b6000612d3360248361202f565b9150612d3e82612cd7565b604082019050919050565b60006020820190508181036000830152612d6281612d26565b9050919050565b7f4552433732313a20617070726f766520746f2063616c6c657200000000000000600082015250565b6000612d9f60198361202f565b9150612daa82612d69565b602082019050919050565b60006020820190508181036000830152612dce81612d92565b9050919050565b7f4552433732313a207472616e7366657220746f206e6f6e20455243373231526560008201527f63656976657220696d706c656d656e7465720000000000000000000000000000602082015250565b6000612e3160328361202f565b9150612e3c82612dd5565b604082019050919050565b60006020820190508181036000830152612e6081612e24565b9050919050565b6000612e738285612b6b565b9150612e7f8284612b6b565b91508190509392505050565b6000608082019050612ea06000830187612174565b612ead6020830186612174565b612eba60408301856123c1565b8181036060830152612ecc8184612358565b905095945050505050565b600081519050612ee681611f95565b92915050565b600060208284031215612f0257612f01611f5f565b5b6000612f1084828501612ed7565b91505092915050565b7f4552433732313a206d696e7420746f20746865207a65726f2061646472657373600082015250565b6000612f4f60208361202f565b9150612f5a82612f19565b602082019050919050565b60006020820190508181036000830152612f7e81612f42565b9050919050565b7f4552433732313a20746f6b656e20616c7265616479206d696e74656400000000600082015250565b6000612fbb601c8361202f565b9150612fc682612f85565b602082019050919050565b60006020820190508181036000830152612fea81612fae565b9050919050565b6000612ffc826120df565b91507fffffffffffffffffffffffffffffffffffffffffffffffffffffffffffffffff82141561302f5761302e6127c4565b5b600182019050919050565b7f4e487b7100000000000000000000000000000000000000000000000000000000600052601260045260246000fd5b6000613074826120df565b915061307f836120df565b92508261308f5761308e61303a565b5b828204905092915050565b60006130a5826120df565b91506130b0836120df565b9250826130c0576130bf61303a565b5b82820690509291505056fea264697066735822122036ef2d8bb7af932411444045df89e5fa76789004dfe3a8ce6636af83eb6289e064736f6c6343000809003368747470733a2f2f676174657761792e70696e6174612e636c6f75642f697066732f516d585446595269784c757964434c795a5a31547561446f756e4748476b7739614469584568434b59587973597168747470733a2f2f676174657761792e70696e6174612e636c6f75642f697066732f516d52413241397831536f7a6448484c5338346363443472746764695661614878534778676f4b6e6d445063786a68747470733a2f2f676174657761792e70696e6174612e636c6f75642f697066732f516d5572434d4e41465256477a52465a6e556b65747042575862586b793259676661366979567a686f4e51686d4b68747470733a2f2f676174657761792e70696e6174612e636c6f75642f697066732f516d58664452446672444a384b424d61523548747363754135664c5a793475577a79637234467741344a6b7a533368747470733a2f2f676174657761792e70696e6174612e636c6f75642f697066732f516d65443865444c69327732475370426f78696433726e5a4c586f376945655a4a324e7667676846513346566177",
  "linkReferences": {},
  "deployedLinkReferences": {}
}