{
  "_format": "hh-sol-artifact-1",
  "contractName": "NFTManual",
  "sourceName": "src/blockchain/hardhat/contracts/NFTManual.sol",
  "abi": [
    {
      "inputs": [],
      "stateMutability": "nonpayable",
      "type": "constructor"
    },
    {
      "anonymous": false,
      "inputs": [
        {
          "indexed": true,
          "internalType": "address",
          "name": "owner",
          "type": "address"
        },
        {
          "indexed": true,
          "internalType": "address",
          "name": "approved",
          "type": "address"
        },
        {
          "indexed": true,
          "internalType": "uint256",
          "name": "tokenId",
          "type": "uint256"
        }
      ],
      "name": "Approval",
      "type": "event"
    },
    {
      "anonymous": false,
      "inputs": [
        {
          "indexed": true,
          "internalType": "address",
          "name": "owner",
          "type": "address"
        },
        {
          "indexed": true,
          "internalType": "address",
          "name": "operator",
          "type": "address"
        },
        {
          "indexed": false,
          "internalType": "bool",
          "name": "approved",
          "type": "bool"
        }
      ],
      "name": "ApprovalForAll",
      "type": "event"
    },
    {
      "anonymous": false,
      "inputs": [
        {
          "indexed": true,
          "internalType": "address",
          "name": "from",
          "type": "address"
        },
        {
          "indexed": true,
          "internalType": "address",
          "name": "to",
          "type": "address"
        },
        {
          "indexed": true,
          "internalType": "uint256",
          "name": "tokenId",
          "type": "uint256"
        }
      ],
      "name": "Transfer",
      "type": "event"
    },
    {
      "inputs": [
        {
          "internalType": "address",
          "name": "to",
          "type": "address"
        },
        {
          "internalType": "uint256",
          "name": "tokenId",
          "type": "uint256"
        }
      ],
      "name": "approve",
      "outputs": [],
      "stateMutability": "nonpayable",
      "type": "function"
    },
    {
      "inputs": [
        {
          "internalType": "address",
          "name": "owner",
          "type": "address"
        }
      ],
      "name": "balanceOf",
      "outputs": [
        {
          "internalType": "uint256",
          "name": "",
          "type": "uint256"
        }
      ],
      "stateMutability": "view",
      "type": "function"
    },
    {
      "inputs": [
        {
          "internalType": "uint256",
          "name": "_tokenId",
          "type": "uint256"
        }
      ],
      "name": "changeNumber",
      "outputs": [],
      "stateMutability": "nonpayable",
      "type": "function"
    },
    {
      "inputs": [
        {
          "internalType": "string",
          "name": "a",
          "type": "string"
        },
        {
          "internalType": "string",
          "name": "b",
          "type": "string"
        }
      ],
      "name": "compareStrings",
      "outputs": [
        {
          "internalType": "bool",
          "name": "",
          "type": "bool"
        }
      ],
      "stateMutability": "pure",
      "type": "function"
    },
    {
      "inputs": [
        {
          "internalType": "uint256",
          "name": "tokenId",
          "type": "uint256"
        }
      ],
      "name": "getApproved",
      "outputs": [
        {
          "internalType": "address",
          "name": "",
          "type": "address"
        }
      ],
      "stateMutability": "view",
      "type": "function"
    },
    {
      "inputs": [
        {
          "internalType": "address",
          "name": "owner",
          "type": "address"
        },
        {
          "internalType": "address",
          "name": "operator",
          "type": "address"
        }
      ],
      "name": "isApprovedForAll",
      "outputs": [
        {
          "internalType": "bool",
          "name": "",
          "type": "bool"
        }
      ],
      "stateMutability": "view",
      "type": "function"
    },
    {
      "inputs": [],
      "name": "name",
      "outputs": [
        {
          "internalType": "string",
          "name": "",
          "type": "string"
        }
      ],
      "stateMutability": "view",
      "type": "function"
    },
    {
      "inputs": [
        {
          "internalType": "uint256",
          "name": "_tokenId",
          "type": "uint256"
        }
      ],
      "name": "numberStage",
      "outputs": [
        {
          "internalType": "uint256",
          "name": "",
          "type": "uint256"
        }
      ],
      "stateMutability": "view",
      "type": "function"
    },
    {
      "inputs": [
        {
          "internalType": "uint256",
          "name": "tokenId",
          "type": "uint256"
        }
      ],
      "name": "ownerOf",
      "outputs": [
        {
          "internalType": "address",
          "name": "",
          "type": "address"
        }
      ],
      "stateMutability": "view",
      "type": "function"
    },
    {
      "inputs": [
        {
          "internalType": "address",
          "name": "to",
          "type": "address"
        }
      ],
      "name": "safeMint",
      "outputs": [],
      "stateMutability": "nonpayable",
      "type": "function"
    },
    {
      "inputs": [
        {
          "internalType": "address",
          "name": "from",
          "type": "address"
        },
        {
          "internalType": "address",
          "name": "to",
          "type": "address"
        },
        {
          "internalType": "uint256",
          "name": "tokenId",
          "type": "uint256"
        }
      ],
      "name": "safeTransferFrom",
      "outputs": [],
      "stateMutability": "nonpayable",
      "type": "function"
    },
    {
      "inputs": [
        {
          "internalType": "address",
          "name": "from",
          "type": "address"
        },
        {
          "internalType": "address",
          "name": "to",
          "type": "address"
        },
        {
          "internalType": "uint256",
          "name": "tokenId",
          "type": "uint256"
        },
        {
          "internalType": "bytes",
          "name": "data",
          "type": "bytes"
        }
      ],
      "name": "safeTransferFrom",
      "outputs": [],
      "stateMutability": "nonpayable",
      "type": "function"
    },
    {
      "inputs": [
        {
          "internalType": "address",
          "name": "operator",
          "type": "address"
        },
        {
          "internalType": "bool",
          "name": "approved",
          "type": "bool"
        }
      ],
      "name": "setApprovalForAll",
      "outputs": [],
      "stateMutability": "nonpayable",
      "type": "function"
    },
    {
      "inputs": [
        {
          "internalType": "bytes4",
          "name": "interfaceId",
          "type": "bytes4"
        }
      ],
      "name": "supportsInterface",
      "outputs": [
        {
          "internalType": "bool",
          "name": "",
          "type": "bool"
        }
      ],
      "stateMutability": "view",
      "type": "function"
    },
    {
      "inputs": [],
      "name": "symbol",
      "outputs": [
        {
          "internalType": "string",
          "name": "",
          "type": "string"
        }
      ],
      "stateMutability": "view",
      "type": "function"
    },
    {
      "inputs": [],
      "name": "tokenIdCounter",
      "outputs": [
        {
          "internalType": "uint256",
          "name": "_value",
          "type": "uint256"
        }
      ],
      "stateMutability": "view",
      "type": "function"
    },
    {
      "inputs": [
        {
          "internalType": "uint256",
          "name": "tokenId",
          "type": "uint256"
        }
      ],
      "name": "tokenURI",
      "outputs": [
        {
          "internalType": "string",
          "name": "",
          "type": "string"
        }
      ],
      "stateMutability": "view",
      "type": "function"
    },
    {
      "inputs": [
        {
          "internalType": "address",
          "name": "from",
          "type": "address"
        },
        {
          "internalType": "address",
          "name": "to",
          "type": "address"
        },
        {
          "internalType": "uint256",
          "name": "tokenId",
          "type": "uint256"
        }
      ],
      "name": "transferFrom",
      "outputs": [],
      "stateMutability": "nonpayable",
      "type": "function"
    }
  ],
  "bytecode": "0x60806040526040518060a00160405280604051806080016040528060508152602001620033d860509139815260200160405180608001604052806050815260200162003478605091398152602001604051806080016040528060508152602001620033886050913981526020016040518060800160405280605081526020016200342860509139815260200160405180608001604052806050815260200162003338605091398152506008906005620000ba9291906200016f565b50348015620000c857600080fd5b506040518060400160405280600981526020017f4e46544d616e75616c00000000000000000000000000000000000000000000008152506040518060400160405280600381526020017f4d4e4c000000000000000000000000000000000000000000000000000000000081525081600090805190602001906200014d929190620001d6565b50806001908051906020019062000166929190620001d6565b50505062000359565b828054828255906000526020600020908101928215620001c3579160200282015b82811115620001c2578251829080519060200190620001b1929190620001d6565b509160200191906001019062000190565b5b509050620001d2919062000267565b5090565b828054620001e49062000323565b90600052602060002090601f01602090048101928262000208576000855562000254565b82601f106200022357805160ff191683800117855562000254565b8280016001018555821562000254579182015b828111156200025357825182559160200191906001019062000236565b5b5090506200026391906200028f565b5090565b5b808211156200028b5760008181620002819190620002ae565b5060010162000268565b5090565b5b80821115620002aa57600081600090555060010162000290565b5090565b508054620002bc9062000323565b6000825580601f10620002d05750620002f1565b601f016020900490600052602060002090810190620002f091906200028f565b5b50565b7f4e487b7100000000000000000000000000000000000000000000000000000000600052602260045260246000fd5b600060028204905060018216806200033c57607f821691505b60208210811415620003535762000352620002f4565b5b50919050565b612fcf80620003696000396000f3fe608060405234801561001057600080fd5b50600436106101165760003560e01c806370a08231116100a2578063a22cb46511610071578063a22cb465146102f1578063b88d4fde1461030d578063bed34bba14610329578063c87b56dd14610359578063e985e9c51461038957610116565b806370a082311461025557806385bf9d5b1461028557806395d89b41146102b557806398bdf6f5146102d357610116565b8063095ea7b3116100e9578063095ea7b3146101b557806323b872dd146101d157806340d097c3146101ed57806342842e0e146102095780636352211e1461022557610116565b806301ffc9a71461011b57806306fdde031461014b57806307391dd614610169578063081812fc14610185575b600080fd5b61013560048036038101906101309190611f6c565b6103b9565b6040516101429190611fb4565b60405180910390f35b61015361049b565b6040516101609190612068565b60405180910390f35b610183600480360381019061017e91906120c0565b61052d565b005b61019f600480360381019061019a91906120c0565b6106c7565b6040516101ac919061212e565b60405180910390f35b6101cf60048036038101906101ca9190612175565b61070d565b005b6101eb60048036038101906101e691906121b5565b610825565b005b61020760048036038101906102029190612208565b610885565b005b610223600480360381019061021e91906121b5565b61095c565b005b61023f600480360381019061023a91906120c0565b61097c565b60405161024c919061212e565b60405180910390f35b61026f600480360381019061026a9190612208565b610a2e565b60405161027c9190612244565b60405180910390f35b61029f600480360381019061029a91906120c0565b610ae6565b6040516102ac9190612244565b60405180910390f35b6102bd610dff565b6040516102ca9190612068565b60405180910390f35b6102db610e91565b6040516102e89190612244565b60405180910390f35b61030b6004803603810190610306919061228b565b610e9d565b005b61032760048036038101906103229190612400565b610eb3565b005b610343600480360381019061033e9190612524565b610f15565b6040516103509190611fb4565b60405180910390f35b610373600480360381019061036e91906120c0565b610f6e565b6040516103809190612068565b60405180910390f35b6103a3600480360381019061039e919061259c565b610f80565b6040516103b09190611fb4565b60405180910390f35b60007f80ac58cd000000000000000000000000000000000000000000000000000000007bffffffffffffffffffffffffffffffffffffffffffffffffffffffff1916827bffffffffffffffffffffffffffffffffffffffffffffffffffffffff1916148061048457507f5b5e139f000000000000000000000000000000000000000000000000000000007bffffffffffffffffffffffffffffffffffffffffffffffffffffffff1916827bffffffffffffffffffffffffffffffffffffffffffffffffffffffff1916145b80610494575061049382611014565b5b9050919050565b6060600080546104aa9061260b565b80601f01602080910402602001604051908101604052809291908181526020018280546104d69061260b565b80156105235780601f106104f857610100808354040283529160200191610523565b820191906000526020600020905b81548152906001019060200180831161050657829003601f168201915b5050505050905090565b600461053882610ae6565b106105f3576105ee8160086000815481106105565761055561263d565b5b90600052602060002001805461056b9061260b565b80601f01602080910402602001604051908101604052809291908181526020018280546105979061260b565b80156105e45780601f106105b9576101008083540402835291602001916105e4565b820191906000526020600020905b8154815290600101906020018083116105c757829003601f168201915b505050505061107e565b6106c4565b6000600161060083610ae6565b61060a919061269b565b90506000600882815481106106225761062161263d565b5b9060005260206000200180546106379061260b565b80601f01602080910402602001604051908101604052809291908181526020018280546106639061260b565b80156106b05780601f10610685576101008083540402835291602001916106b0565b820191906000526020600020905b81548152906001019060200180831161069357829003601f168201915b505050505090506106c1838261107e565b50505b50565b60006106d2826110f2565b6004600083815260200190815260200160002060009054906101000a900473ffffffffffffffffffffffffffffffffffffffff169050919050565b60006107188261097c565b90508073ffffffffffffffffffffffffffffffffffffffff168373ffffffffffffffffffffffffffffffffffffffff161415610789576040517f08c379a000000000000000000000000000000000000000000000000000000000815260040161078090612763565b60405180910390fd5b8073ffffffffffffffffffffffffffffffffffffffff166107a861113d565b73ffffffffffffffffffffffffffffffffffffffff1614806107d757506107d6816107d161113d565b610f80565b5b610816576040517f08c379a000000000000000000000000000000000000000000000000000000000815260040161080d906127f5565b60405180910390fd5b6108208383611145565b505050565b61083661083061113d565b826111fe565b610875576040517f08c379a000000000000000000000000000000000000000000000000000000000815260040161086c90612887565b60405180910390fd5b610880838383611293565b505050565b600061089160076114fa565b905061089d6007611508565b6108a7828261151e565b6109588160086000815481106108c0576108bf61263d565b5b9060005260206000200180546108d59061260b565b80601f01602080910402602001604051908101604052809291908181526020018280546109019061260b565b801561094e5780601f106109235761010080835404028352916020019161094e565b820191906000526020600020905b81548152906001019060200180831161093157829003601f168201915b505050505061107e565b5050565b61097783838360405180602001604052806000815250610eb3565b505050565b6000806002600084815260200190815260200160002060009054906101000a900473ffffffffffffffffffffffffffffffffffffffff169050600073ffffffffffffffffffffffffffffffffffffffff168173ffffffffffffffffffffffffffffffffffffffff161415610a25576040517f08c379a0000000000000000000000000000000000000000000000000000000008152600401610a1c906128f3565b60405180910390fd5b80915050919050565b60008073ffffffffffffffffffffffffffffffffffffffff168273ffffffffffffffffffffffffffffffffffffffff161415610a9f576040517f08c379a0000000000000000000000000000000000000000000000000000000008152600401610a9690612985565b60405180910390fd5b600360008373ffffffffffffffffffffffffffffffffffffffff1673ffffffffffffffffffffffffffffffffffffffff168152602001908152602001600020549050919050565b600080610af283610f6e565b9050610ba5816008600081548110610b0d57610b0c61263d565b5b906000526020600020018054610b229061260b565b80601f0160208091040260200160405190810160405280929190818152602001828054610b4e9061260b565b8015610b9b5780601f10610b7057610100808354040283529160200191610b9b565b820191906000526020600020905b815481529060010190602001808311610b7e57829003601f168201915b5050505050610f15565b15610bb4576000915050610dfa565b610c65816008600181548110610bcd57610bcc61263d565b5b906000526020600020018054610be29061260b565b80601f0160208091040260200160405190810160405280929190818152602001828054610c0e9061260b565b8015610c5b5780601f10610c3057610100808354040283529160200191610c5b565b820191906000526020600020905b815481529060010190602001808311610c3e57829003601f168201915b5050505050610f15565b15610c74576001915050610dfa565b610d25816008600281548110610c8d57610c8c61263d565b5b906000526020600020018054610ca29061260b565b80601f0160208091040260200160405190810160405280929190818152602001828054610cce9061260b565b8015610d1b5780601f10610cf057610100808354040283529160200191610d1b565b820191906000526020600020905b815481529060010190602001808311610cfe57829003601f168201915b5050505050610f15565b15610d34576002915050610dfa565b610de5816008600381548110610d4d57610d4c61263d565b5b906000526020600020018054610d629061260b565b80601f0160208091040260200160405190810160405280929190818152602001828054610d8e9061260b565b8015610ddb5780601f10610db057610100808354040283529160200191610ddb565b820191906000526020600020905b815481529060010190602001808311610dbe57829003601f168201915b5050505050610f15565b15610df4576003915050610dfa565b60049150505b919050565b606060018054610e0e9061260b565b80601f0160208091040260200160405190810160405280929190818152602001828054610e3a9061260b565b8015610e875780601f10610e5c57610100808354040283529160200191610e87565b820191906000526020600020905b815481529060010190602001808311610e6a57829003601f168201915b5050505050905090565b60078060000154905081565b610eaf610ea861113d565b838361153c565b5050565b610ec4610ebe61113d565b836111fe565b610f03576040517f08c379a0000000000000000000000000000000000000000000000000000000008152600401610efa90612887565b60405180910390fd5b610f0f848484846116a9565b50505050565b600081604051602001610f2891906129e1565b6040516020818303038152906040528051906020012083604051602001610f4f91906129e1565b6040516020818303038152906040528051906020012014905092915050565b6060610f7982611705565b9050919050565b6000600560008473ffffffffffffffffffffffffffffffffffffffff1673ffffffffffffffffffffffffffffffffffffffff16815260200190815260200160002060008373ffffffffffffffffffffffffffffffffffffffff1673ffffffffffffffffffffffffffffffffffffffff16815260200190815260200160002060009054906101000a900460ff16905092915050565b60007f01ffc9a7000000000000000000000000000000000000000000000000000000007bffffffffffffffffffffffffffffffffffffffffffffffffffffffff1916827bffffffffffffffffffffffffffffffffffffffffffffffffffffffff1916149050919050565b61108782611818565b6110c6576040517f08c379a00000000000000000000000000000000000000000000000000000000081526004016110bd90612a6a565b60405180910390fd5b806006600084815260200190815260200160002090805190602001906110ed929190611e5d565b505050565b6110fb81611818565b61113a576040517f08c379a0000000000000000000000000000000000000000000000000000000008152600401611131906128f3565b60405180910390fd5b50565b600033905090565b816004600083815260200190815260200160002060006101000a81548173ffffffffffffffffffffffffffffffffffffffff021916908373ffffffffffffffffffffffffffffffffffffffff160217905550808273ffffffffffffffffffffffffffffffffffffffff166111b88361097c565b73ffffffffffffffffffffffffffffffffffffffff167f8c5be1e5ebec7d5bd14f71427d1e84f3dd0314c0f7b2291e5b200ac8c7c3b92560405160405180910390a45050565b60008061120a8361097c565b90508073ffffffffffffffffffffffffffffffffffffffff168473ffffffffffffffffffffffffffffffffffffffff16148061124c575061124b8185610f80565b5b8061128a57508373ffffffffffffffffffffffffffffffffffffffff16611272846106c7565b73ffffffffffffffffffffffffffffffffffffffff16145b91505092915050565b8273ffffffffffffffffffffffffffffffffffffffff166112b38261097c565b73ffffffffffffffffffffffffffffffffffffffff1614611309576040517f08c379a000000000000000000000000000000000000000000000000000000000815260040161130090612afc565b60405180910390fd5b600073ffffffffffffffffffffffffffffffffffffffff168273ffffffffffffffffffffffffffffffffffffffff161415611379576040517f08c379a000000000000000000000000000000000000000000000000000000000815260040161137090612b8e565b60405180910390fd5b611384838383611884565b61138f600082611145565b6001600360008573ffffffffffffffffffffffffffffffffffffffff1673ffffffffffffffffffffffffffffffffffffffff16815260200190815260200160002060008282546113df9190612bae565b925050819055506001600360008473ffffffffffffffffffffffffffffffffffffffff1673ffffffffffffffffffffffffffffffffffffffff1681526020019081526020016000206000828254611436919061269b565b92505081905550816002600083815260200190815260200160002060006101000a81548173ffffffffffffffffffffffffffffffffffffffff021916908373ffffffffffffffffffffffffffffffffffffffff160217905550808273ffffffffffffffffffffffffffffffffffffffff168473ffffffffffffffffffffffffffffffffffffffff167fddf252ad1be2c89b69c2b068fc378daa952ba7f163c4a11628f55a4df523b3ef60405160405180910390a46114f5838383611889565b505050565b600081600001549050919050565b6001816000016000828254019250508190555050565b61153882826040518060200160405280600081525061188e565b5050565b8173ffffffffffffffffffffffffffffffffffffffff168373ffffffffffffffffffffffffffffffffffffffff1614156115ab576040517f08c379a00000000000000000000000000000000000000000000000000000000081526004016115a290612c2e565b60405180910390fd5b80600560008573ffffffffffffffffffffffffffffffffffffffff1673ffffffffffffffffffffffffffffffffffffffff16815260200190815260200160002060008473ffffffffffffffffffffffffffffffffffffffff1673ffffffffffffffffffffffffffffffffffffffff16815260200190815260200160002060006101000a81548160ff0219169083151502179055508173ffffffffffffffffffffffffffffffffffffffff168373ffffffffffffffffffffffffffffffffffffffff167f17307eab39ab6107e8899845ad3d59bd9653f200f220920489ca2b5937696c318360405161169c9190611fb4565b60405180910390a3505050565b6116b4848484611293565b6116c0848484846118e9565b6116ff576040517f08c379a00000000000000000000000000000000000000000000000000000000081526004016116f690612cc0565b60405180910390fd5b50505050565b6060611710826110f2565b60006006600084815260200190815260200160002080546117309061260b565b80601f016020809104026020016040519081016040528092919081815260200182805461175c9061260b565b80156117a95780601f1061177e576101008083540402835291602001916117a9565b820191906000526020600020905b81548152906001019060200180831161178c57829003601f168201915b5050505050905060006117ba611a80565b90506000815114156117d0578192505050611813565b6000825111156118055780826040516020016117ed929190612ce0565b60405160208183030381529060405292505050611813565b61180e84611a97565b925050505b919050565b60008073ffffffffffffffffffffffffffffffffffffffff166002600084815260200190815260200160002060009054906101000a900473ffffffffffffffffffffffffffffffffffffffff1673ffffffffffffffffffffffffffffffffffffffff1614159050919050565b505050565b505050565b6118988383611aff565b6118a560008484846118e9565b6118e4576040517f08c379a00000000000000000000000000000000000000000000000000000000081526004016118db90612cc0565b60405180910390fd5b505050565b600061190a8473ffffffffffffffffffffffffffffffffffffffff16611cd9565b15611a73578373ffffffffffffffffffffffffffffffffffffffff1663150b7a0261193361113d565b8786866040518563ffffffff1660e01b81526004016119559493929190612d59565b602060405180830381600087803b15801561196f57600080fd5b505af19250505080156119a057506040513d601f19601f8201168201806040525081019061199d9190612dba565b60015b611a23573d80600081146119d0576040519150601f19603f3d011682016040523d82523d6000602084013e6119d5565b606091505b50600081511415611a1b576040517f08c379a0000000000000000000000000000000000000000000000000000000008152600401611a1290612cc0565b60405180910390fd5b805181602001fd5b63150b7a0260e01b7bffffffffffffffffffffffffffffffffffffffffffffffffffffffff1916817bffffffffffffffffffffffffffffffffffffffffffffffffffffffff191614915050611a78565b600190505b949350505050565b606060405180602001604052806000815250905090565b6060611aa2826110f2565b6000611aac611a80565b90506000815111611acc5760405180602001604052806000815250611af7565b80611ad684611cfc565b604051602001611ae7929190612ce0565b6040516020818303038152906040525b915050919050565b600073ffffffffffffffffffffffffffffffffffffffff168273ffffffffffffffffffffffffffffffffffffffff161415611b6f576040517f08c379a0000000000000000000000000000000000000000000000000000000008152600401611b6690612e33565b60405180910390fd5b611b7881611818565b15611bb8576040517f08c379a0000000000000000000000000000000000000000000000000000000008152600401611baf90612e9f565b60405180910390fd5b611bc460008383611884565b6001600360008473ffffffffffffffffffffffffffffffffffffffff1673ffffffffffffffffffffffffffffffffffffffff1681526020019081526020016000206000828254611c14919061269b565b92505081905550816002600083815260200190815260200160002060006101000a81548173ffffffffffffffffffffffffffffffffffffffff021916908373ffffffffffffffffffffffffffffffffffffffff160217905550808273ffffffffffffffffffffffffffffffffffffffff16600073ffffffffffffffffffffffffffffffffffffffff167fddf252ad1be2c89b69c2b068fc378daa952ba7f163c4a11628f55a4df523b3ef60405160405180910390a4611cd560008383611889565b5050565b6000808273ffffffffffffffffffffffffffffffffffffffff163b119050919050565b60606000821415611d44576040518060400160405280600181526020017f30000000000000000000000000000000000000000000000000000000000000008152509050611e58565b600082905060005b60008214611d76578080611d5f90612ebf565b915050600a82611d6f9190612f37565b9150611d4c565b60008167ffffffffffffffff811115611d9257611d916122d5565b5b6040519080825280601f01601f191660200182016040528015611dc45781602001600182028036833780820191505090505b5090505b60008514611e5157600182611ddd9190612bae565b9150600a85611dec9190612f68565b6030611df8919061269b565b60f81b818381518110611e0e57611e0d61263d565b5b60200101907effffffffffffffffffffffffffffffffffffffffffffffffffffffffffffff1916908160001a905350600a85611e4a9190612f37565b9450611dc8565b8093505050505b919050565b828054611e699061260b565b90600052602060002090601f016020900481019282611e8b5760008555611ed2565b82601f10611ea457805160ff1916838001178555611ed2565b82800160010185558215611ed2579182015b82811115611ed1578251825591602001919060010190611eb6565b5b509050611edf9190611ee3565b5090565b5b80821115611efc576000816000905550600101611ee4565b5090565b6000604051905090565b600080fd5b600080fd5b60007fffffffff0000000000000000000000000000000000000000000000000000000082169050919050565b611f4981611f14565b8114611f5457600080fd5b50565b600081359050611f6681611f40565b92915050565b600060208284031215611f8257611f81611f0a565b5b6000611f9084828501611f57565b91505092915050565b60008115159050919050565b611fae81611f99565b82525050565b6000602082019050611fc96000830184611fa5565b92915050565b600081519050919050565b600082825260208201905092915050565b60005b83811015612009578082015181840152602081019050611fee565b83811115612018576000848401525b50505050565b6000601f19601f8301169050919050565b600061203a82611fcf565b6120448185611fda565b9350612054818560208601611feb565b61205d8161201e565b840191505092915050565b60006020820190508181036000830152612082818461202f565b905092915050565b6000819050919050565b61209d8161208a565b81146120a857600080fd5b50565b6000813590506120ba81612094565b92915050565b6000602082840312156120d6576120d5611f0a565b5b60006120e4848285016120ab565b91505092915050565b600073ffffffffffffffffffffffffffffffffffffffff82169050919050565b6000612118826120ed565b9050919050565b6121288161210d565b82525050565b6000602082019050612143600083018461211f565b92915050565b6121528161210d565b811461215d57600080fd5b50565b60008135905061216f81612149565b92915050565b6000806040838503121561218c5761218b611f0a565b5b600061219a85828601612160565b92505060206121ab858286016120ab565b9150509250929050565b6000806000606084860312156121ce576121cd611f0a565b5b60006121dc86828701612160565b93505060206121ed86828701612160565b92505060406121fe868287016120ab565b9150509250925092565b60006020828403121561221e5761221d611f0a565b5b600061222c84828501612160565b91505092915050565b61223e8161208a565b82525050565b60006020820190506122596000830184612235565b92915050565b61226881611f99565b811461227357600080fd5b50565b6000813590506122858161225f565b92915050565b600080604083850312156122a2576122a1611f0a565b5b60006122b085828601612160565b92505060206122c185828601612276565b9150509250929050565b600080fd5b600080fd5b7f4e487b7100000000000000000000000000000000000000000000000000000000600052604160045260246000fd5b61230d8261201e565b810181811067ffffffffffffffff8211171561232c5761232b6122d5565b5b80604052505050565b600061233f611f00565b905061234b8282612304565b919050565b600067ffffffffffffffff82111561236b5761236a6122d5565b5b6123748261201e565b9050602081019050919050565b82818337600083830152505050565b60006123a361239e84612350565b612335565b9050828152602081018484840111156123bf576123be6122d0565b5b6123ca848285612381565b509392505050565b600082601f8301126123e7576123e66122cb565b5b81356123f7848260208601612390565b91505092915050565b6000806000806080858703121561241a57612419611f0a565b5b600061242887828801612160565b945050602061243987828801612160565b935050604061244a878288016120ab565b925050606085013567ffffffffffffffff81111561246b5761246a611f0f565b5b612477878288016123d2565b91505092959194509250565b600067ffffffffffffffff82111561249e5761249d6122d5565b5b6124a78261201e565b9050602081019050919050565b60006124c76124c284612483565b612335565b9050828152602081018484840111156124e3576124e26122d0565b5b6124ee848285612381565b509392505050565b600082601f83011261250b5761250a6122cb565b5b813561251b8482602086016124b4565b91505092915050565b6000806040838503121561253b5761253a611f0a565b5b600083013567ffffffffffffffff81111561255957612558611f0f565b5b612565858286016124f6565b925050602083013567ffffffffffffffff81111561258657612585611f0f565b5b612592858286016124f6565b9150509250929050565b600080604083850312156125b3576125b2611f0a565b5b60006125c185828601612160565b92505060206125d285828601612160565b9150509250929050565b7f4e487b7100000000000000000000000000000000000000000000000000000000600052602260045260246000fd5b6000600282049050600182168061262357607f821691505b60208210811415612637576126366125dc565b5b50919050565b7f4e487b7100000000000000000000000000000000000000000000000000000000600052603260045260246000fd5b7f4e487b7100000000000000000000000000000000000000000000000000000000600052601160045260246000fd5b60006126a68261208a565b91506126b18361208a565b9250827fffffffffffffffffffffffffffffffffffffffffffffffffffffffffffffffff038211156126e6576126e561266c565b5b828201905092915050565b7f4552433732313a20617070726f76616c20746f2063757272656e74206f776e6560008201527f7200000000000000000000000000000000000000000000000000000000000000602082015250565b600061274d602183611fda565b9150612758826126f1565b604082019050919050565b6000602082019050818103600083015261277c81612740565b9050919050565b7f4552433732313a20617070726f76652063616c6c6572206973206e6f7420746f60008201527f6b656e206f776e6572206e6f7220617070726f76656420666f7220616c6c0000602082015250565b60006127df603e83611fda565b91506127ea82612783565b604082019050919050565b6000602082019050818103600083015261280e816127d2565b9050919050565b7f4552433732313a2063616c6c6572206973206e6f7420746f6b656e206f776e6560008201527f72206e6f7220617070726f766564000000000000000000000000000000000000602082015250565b6000612871602e83611fda565b915061287c82612815565b604082019050919050565b600060208201905081810360008301526128a081612864565b9050919050565b7f4552433732313a20696e76616c696420746f6b656e2049440000000000000000600082015250565b60006128dd601883611fda565b91506128e8826128a7565b602082019050919050565b6000602082019050818103600083015261290c816128d0565b9050919050565b7f4552433732313a2061646472657373207a65726f206973206e6f74206120766160008201527f6c6964206f776e65720000000000000000000000000000000000000000000000602082015250565b600061296f602983611fda565b915061297a82612913565b604082019050919050565b6000602082019050818103600083015261299e81612962565b9050919050565b600081905092915050565b60006129bb82611fcf565b6129c581856129a5565b93506129d5818560208601611feb565b80840191505092915050565b60006129ed82846129b0565b915081905092915050565b7f45524337323155524953746f726167653a2055524920736574206f66206e6f6e60008201527f6578697374656e7420746f6b656e000000000000000000000000000000000000602082015250565b6000612a54602e83611fda565b9150612a5f826129f8565b604082019050919050565b60006020820190508181036000830152612a8381612a47565b9050919050565b7f4552433732313a207472616e736665722066726f6d20696e636f72726563742060008201527f6f776e6572000000000000000000000000000000000000000000000000000000602082015250565b6000612ae6602583611fda565b9150612af182612a8a565b604082019050919050565b60006020820190508181036000830152612b1581612ad9565b9050919050565b7f4552433732313a207472616e7366657220746f20746865207a65726f2061646460008201527f7265737300000000000000000000000000000000000000000000000000000000602082015250565b6000612b78602483611fda565b9150612b8382612b1c565b604082019050919050565b60006020820190508181036000830152612ba781612b6b565b9050919050565b6000612bb98261208a565b9150612bc48361208a565b925082821015612bd757612bd661266c565b5b828203905092915050565b7f4552433732313a20617070726f766520746f2063616c6c657200000000000000600082015250565b6000612c18601983611fda565b9150612c2382612be2565b602082019050919050565b60006020820190508181036000830152612c4781612c0b565b9050919050565b7f4552433732313a207472616e7366657220746f206e6f6e20455243373231526560008201527f63656976657220696d706c656d656e7465720000000000000000000000000000602082015250565b6000612caa603283611fda565b9150612cb582612c4e565b604082019050919050565b60006020820190508181036000830152612cd981612c9d565b9050919050565b6000612cec82856129b0565b9150612cf882846129b0565b91508190509392505050565b600081519050919050565b600082825260208201905092915050565b6000612d2b82612d04565b612d358185612d0f565b9350612d45818560208601611feb565b612d4e8161201e565b840191505092915050565b6000608082019050612d6e600083018761211f565b612d7b602083018661211f565b612d886040830185612235565b8181036060830152612d9a8184612d20565b905095945050505050565b600081519050612db481611f40565b92915050565b600060208284031215612dd057612dcf611f0a565b5b6000612dde84828501612da5565b91505092915050565b7f4552433732313a206d696e7420746f20746865207a65726f2061646472657373600082015250565b6000612e1d602083611fda565b9150612e2882612de7565b602082019050919050565b60006020820190508181036000830152612e4c81612e10565b9050919050565b7f4552433732313a20746f6b656e20616c7265616479206d696e74656400000000600082015250565b6000612e89601c83611fda565b9150612e9482612e53565b602082019050919050565b60006020820190508181036000830152612eb881612e7c565b9050919050565b6000612eca8261208a565b91507fffffffffffffffffffffffffffffffffffffffffffffffffffffffffffffffff821415612efd57612efc61266c565b5b600182019050919050565b7f4e487b7100000000000000000000000000000000000000000000000000000000600052601260045260246000fd5b6000612f428261208a565b9150612f4d8361208a565b925082612f5d57612f5c612f08565b5b828204905092915050565b6000612f738261208a565b9150612f7e8361208a565b925082612f8e57612f8d612f08565b5b82820690509291505056fea26469706673582212203419d9d8fe6302b39ac2a4f8d8ca610ffa3dbaff19d6d97e0b6555a3b9e3c35564736f6c6343000809003368747470733a2f2f676174657761792e70696e6174612e636c6f75642f697066732f516d585446595269784c757964434c795a5a31547561446f756e4748476b7739614469584568434b59587973597168747470733a2f2f676174657761792e70696e6174612e636c6f75642f697066732f516d52413241397831536f7a6448484c5338346363443472746764695661614878534778676f4b6e6d445063786a68747470733a2f2f676174657761792e70696e6174612e636c6f75642f697066732f516d5572434d4e41465256477a52465a6e556b65747042575862586b793259676661366979567a686f4e51686d4b68747470733a2f2f676174657761792e70696e6174612e636c6f75642f697066732f516d58664452446672444a384b424d61523548747363754135664c5a793475577a79637234467741344a6b7a533368747470733a2f2f676174657761792e70696e6174612e636c6f75642f697066732f516d65443865444c69327732475370426f78696433726e5a4c586f376945655a4a324e7667676846513346566177",
  "linkReferences": {},
  "deployedLinkReferences": {}
}