{
  "_format": "hh-sol-artifact-1",
  "contractName": "KeeperFlower",
  "sourceName": "contracts/KeeperFlower.sol",
  "abi": [
    {
      "inputs": [
        {
          "internalType": "uint256",
          "name": "_interval",
          "type": "uint256"
        },
        {
          "internalType": "string[]",
          "name": "_ifpsUris",
          "type": "string[]"
        }
      ],
      "stateMutability": "nonpayable",
      "type": "constructor"
    },
    {
      "anonymous": false,
      "inputs": [
        {
          "indexed": true,
          "internalType": "address",
          "name": "owner",
          "type": "address"
        },
        {
          "indexed": true,
          "internalType": "address",
          "name": "approved",
          "type": "address"
        },
        {
          "indexed": true,
          "internalType": "uint256",
          "name": "tokenId",
          "type": "uint256"
        }
      ],
      "name": "Approval",
      "type": "event"
    },
    {
      "anonymous": false,
      "inputs": [
        {
          "indexed": true,
          "internalType": "address",
          "name": "owner",
          "type": "address"
        },
        {
          "indexed": true,
          "internalType": "address",
          "name": "operator",
          "type": "address"
        },
        {
          "indexed": false,
          "internalType": "bool",
          "name": "approved",
          "type": "bool"
        }
      ],
      "name": "ApprovalForAll",
      "type": "event"
    },
    {
      "anonymous": false,
      "inputs": [
        {
          "indexed": true,
          "internalType": "address",
          "name": "from",
          "type": "address"
        },
        {
          "indexed": true,
          "internalType": "address",
          "name": "to",
          "type": "address"
        },
        {
          "indexed": true,
          "internalType": "uint256",
          "name": "tokenId",
          "type": "uint256"
        }
      ],
      "name": "Transfer",
      "type": "event"
    },
    {
      "inputs": [
        {
          "internalType": "address",
          "name": "to",
          "type": "address"
        },
        {
          "internalType": "uint256",
          "name": "tokenId",
          "type": "uint256"
        }
      ],
      "name": "approve",
      "outputs": [],
      "stateMutability": "nonpayable",
      "type": "function"
    },
    {
      "inputs": [
        {
          "internalType": "address",
          "name": "owner",
          "type": "address"
        }
      ],
      "name": "balanceOf",
      "outputs": [
        {
          "internalType": "uint256",
          "name": "",
          "type": "uint256"
        }
      ],
      "stateMutability": "view",
      "type": "function"
    },
    {
      "inputs": [
        {
          "internalType": "uint256",
          "name": "tokenId",
          "type": "uint256"
        }
      ],
      "name": "burnToken",
      "outputs": [],
      "stateMutability": "nonpayable",
      "type": "function"
    },
    {
      "inputs": [
        {
          "internalType": "bytes",
          "name": "",
          "type": "bytes"
        }
      ],
      "name": "checkUpkeep",
      "outputs": [
        {
          "internalType": "bool",
          "name": "upkeepNeeded",
          "type": "bool"
        },
        {
          "internalType": "bytes",
          "name": "",
          "type": "bytes"
        }
      ],
      "stateMutability": "view",
      "type": "function"
    },
    {
      "inputs": [
        {
          "internalType": "string",
          "name": "a",
          "type": "string"
        },
        {
          "internalType": "string",
          "name": "b",
          "type": "string"
        }
      ],
      "name": "compareStrings",
      "outputs": [
        {
          "internalType": "bool",
          "name": "",
          "type": "bool"
        }
      ],
      "stateMutability": "pure",
      "type": "function"
    },
    {
      "inputs": [
        {
          "internalType": "uint256",
          "name": "_tokenId",
          "type": "uint256"
        }
      ],
      "name": "flowerStage",
      "outputs": [
        {
          "internalType": "uint256",
          "name": "",
          "type": "uint256"
        }
      ],
      "stateMutability": "view",
      "type": "function"
    },
    {
      "inputs": [
        {
          "internalType": "uint256",
          "name": "tokenId",
          "type": "uint256"
        }
      ],
      "name": "getApproved",
      "outputs": [
        {
          "internalType": "address",
          "name": "",
          "type": "address"
        }
      ],
      "stateMutability": "view",
      "type": "function"
    },
    {
      "inputs": [],
      "name": "getTokensId",
      "outputs": [
        {
          "internalType": "uint256[]",
          "name": "",
          "type": "uint256[]"
        }
      ],
      "stateMutability": "view",
      "type": "function"
    },
    {
      "inputs": [
        {
          "internalType": "uint256",
          "name": "_tokenId",
          "type": "uint256"
        }
      ],
      "name": "growFlower",
      "outputs": [],
      "stateMutability": "nonpayable",
      "type": "function"
    },
    {
      "inputs": [
        {
          "internalType": "address",
          "name": "owner",
          "type": "address"
        },
        {
          "internalType": "address",
          "name": "operator",
          "type": "address"
        }
      ],
      "name": "isApprovedForAll",
      "outputs": [
        {
          "internalType": "bool",
          "name": "",
          "type": "bool"
        }
      ],
      "stateMutability": "view",
      "type": "function"
    },
    {
      "inputs": [],
      "name": "name",
      "outputs": [
        {
          "internalType": "string",
          "name": "",
          "type": "string"
        }
      ],
      "stateMutability": "view",
      "type": "function"
    },
    {
      "inputs": [
        {
          "internalType": "uint256",
          "name": "tokenId",
          "type": "uint256"
        }
      ],
      "name": "ownerOf",
      "outputs": [
        {
          "internalType": "address",
          "name": "",
          "type": "address"
        }
      ],
      "stateMutability": "view",
      "type": "function"
    },
    {
      "inputs": [
        {
          "internalType": "bytes",
          "name": "",
          "type": "bytes"
        }
      ],
      "name": "performUpkeep",
      "outputs": [],
      "stateMutability": "nonpayable",
      "type": "function"
    },
    {
      "inputs": [
        {
          "internalType": "address",
          "name": "to",
          "type": "address"
        },
        {
          "internalType": "string[]",
          "name": "_ifpsUris",
          "type": "string[]"
        }
      ],
      "name": "safeMint",
      "outputs": [],
      "stateMutability": "nonpayable",
      "type": "function"
    },
    {
      "inputs": [
        {
          "internalType": "address",
          "name": "from",
          "type": "address"
        },
        {
          "internalType": "address",
          "name": "to",
          "type": "address"
        },
        {
          "internalType": "uint256",
          "name": "tokenId",
          "type": "uint256"
        }
      ],
      "name": "safeTransferFrom",
      "outputs": [],
      "stateMutability": "nonpayable",
      "type": "function"
    },
    {
      "inputs": [
        {
          "internalType": "address",
          "name": "from",
          "type": "address"
        },
        {
          "internalType": "address",
          "name": "to",
          "type": "address"
        },
        {
          "internalType": "uint256",
          "name": "tokenId",
          "type": "uint256"
        },
        {
          "internalType": "bytes",
          "name": "_data",
          "type": "bytes"
        }
      ],
      "name": "safeTransferFrom",
      "outputs": [],
      "stateMutability": "nonpayable",
      "type": "function"
    },
    {
      "inputs": [
        {
          "internalType": "address",
          "name": "operator",
          "type": "address"
        },
        {
          "internalType": "bool",
          "name": "approved",
          "type": "bool"
        }
      ],
      "name": "setApprovalForAll",
      "outputs": [],
      "stateMutability": "nonpayable",
      "type": "function"
    },
    {
      "inputs": [
        {
          "internalType": "bytes4",
          "name": "interfaceId",
          "type": "bytes4"
        }
      ],
      "name": "supportsInterface",
      "outputs": [
        {
          "internalType": "bool",
          "name": "",
          "type": "bool"
        }
      ],
      "stateMutability": "view",
      "type": "function"
    },
    {
      "inputs": [],
      "name": "symbol",
      "outputs": [
        {
          "internalType": "string",
          "name": "",
          "type": "string"
        }
      ],
      "stateMutability": "view",
      "type": "function"
    },
    {
      "inputs": [],
      "name": "tokenIdCounter",
      "outputs": [
        {
          "internalType": "uint256",
          "name": "_value",
          "type": "uint256"
        }
      ],
      "stateMutability": "view",
      "type": "function"
    },
    {
      "inputs": [
        {
          "internalType": "uint256",
          "name": "tokenId",
          "type": "uint256"
        }
      ],
      "name": "tokenURI",
      "outputs": [
        {
          "internalType": "string",
          "name": "",
          "type": "string"
        }
      ],
      "stateMutability": "view",
      "type": "function"
    },
    {
      "inputs": [
        {
          "internalType": "address",
          "name": "from",
          "type": "address"
        },
        {
          "internalType": "address",
          "name": "to",
          "type": "address"
        },
        {
          "internalType": "uint256",
          "name": "tokenId",
          "type": "uint256"
        }
      ],
      "name": "transferFrom",
      "outputs": [],
      "stateMutability": "nonpayable",
      "type": "function"
    }
  ],
  "bytecode": "0x60806040523480156200001157600080fd5b506040516200445e3803806200445e8339818101604052810190620000379190620003ef565b6040518060400160405280600d81526020017f466c6f77657220506c61747a69000000000000000000000000000000000000008152506040518060400160405280600581526020017f46504c545a0000000000000000000000000000000000000000000000000000008152508160009080519060200190620000bb92919062000106565b508060019080519060200190620000d492919062000106565b50505081600c8190555042600b819055508060089080519060200190620000fd92919062000197565b50505062000631565b828054620001149062000523565b90600052602060002090601f01602090048101928262000138576000855562000184565b82601f106200015357805160ff191683800117855562000184565b8280016001018555821562000184579182015b828111156200018357825182559160200191906001019062000166565b5b509050620001939190620001fe565b5090565b828054828255906000526020600020908101928215620001eb579160200282015b82811115620001ea578251829080519060200190620001d992919062000106565b5091602001919060010190620001b8565b5b509050620001fa91906200021d565b5090565b5b8082111562000219576000816000905550600101620001ff565b5090565b5b8082111562000241576000818162000237919062000245565b506001016200021e565b5090565b508054620002539062000523565b6000825580601f1062000267575062000288565b601f016020900490600052602060002090810190620002879190620001fe565b5b50565b6000620002a26200029c846200047e565b62000455565b90508083825260208201905082856020860282011115620002c857620002c7620005f2565b5b60005b858110156200031d57815167ffffffffffffffff811115620002f257620002f1620005ed565b5b808601620003018982620003a5565b85526020850194506020840193505050600181019050620002cb565b5050509392505050565b60006200033e6200033884620004ad565b62000455565b9050828152602081018484840111156200035d576200035c620005f7565b5b6200036a848285620004ed565b509392505050565b600082601f8301126200038a5762000389620005ed565b5b81516200039c8482602086016200028b565b91505092915050565b600082601f830112620003bd57620003bc620005ed565b5b8151620003cf84826020860162000327565b91505092915050565b600081519050620003e98162000617565b92915050565b6000806040838503121562000409576200040862000601565b5b60006200041985828601620003d8565b925050602083015167ffffffffffffffff8111156200043d576200043c620005fc565b5b6200044b8582860162000372565b9150509250929050565b60006200046162000474565b90506200046f828262000559565b919050565b6000604051905090565b600067ffffffffffffffff8211156200049c576200049b620005be565b5b602082029050602081019050919050565b600067ffffffffffffffff821115620004cb57620004ca620005be565b5b620004d68262000606565b9050602081019050919050565b6000819050919050565b60005b838110156200050d578082015181840152602081019050620004f0565b838111156200051d576000848401525b50505050565b600060028204905060018216806200053c57607f821691505b602082108114156200055357620005526200058f565b5b50919050565b620005648262000606565b810181811067ffffffffffffffff82111715620005865762000585620005be565b5b80604052505050565b7f4e487b7100000000000000000000000000000000000000000000000000000000600052602260045260246000fd5b7f4e487b7100000000000000000000000000000000000000000000000000000000600052604160045260246000fd5b600080fd5b600080fd5b600080fd5b600080fd5b600080fd5b6000601f19601f8301169050919050565b6200062281620004e3565b81146200062e57600080fd5b50565b613e1d80620006416000396000f3fe608060405234801561001057600080fd5b50600436106101425760003560e01c80636f98e3d8116100b8578063a22cb4651161007c578063a22cb46514610374578063b88d4fde14610390578063bed34bba146103ac578063c87b56dd146103dc578063d9f2f7a21461040c578063e985e9c51461043c57610142565b80636f98e3d8146102d057806370a08231146102ec5780637b47ec1a1461031c57806395d89b411461033857806398bdf6f51461035657610142565b80632b98af8d1161010a5780632b98af8d146101fd57806342842e0e14610219578063440a4a16146102355780634585e33b146102535780636352211e1461026f5780636e04ff0d1461029f57610142565b806301ffc9a71461014757806306fdde0314610177578063081812fc14610195578063095ea7b3146101c557806323b872dd146101e1575b600080fd5b610161600480360381019061015c9190612c59565b61046c565b60405161016e91906131ee565b60405180910390f35b61017f61054e565b60405161018c9190613239565b60405180910390f35b6101af60048036038101906101aa9190612d78565b6105e0565b6040516101bc9190613165565b60405180910390f35b6101df60048036038101906101da9190612c19565b610665565b005b6101fb60048036038101906101f69190612aa7565b61077d565b005b61021760048036038101906102129190612d78565b6107dd565b005b610233600480360381019061022e9190612aa7565b6108d7565b005b61023d6108f7565b60405161024a91906131cc565b60405180910390f35b61026d60048036038101906102689190612cb3565b61098c565b005b61028960048036038101906102849190612d78565b6109d3565b6040516102969190613165565b60405180910390f35b6102b960048036038101906102b49190612cb3565b610a85565b6040516102c7929190613209565b60405180910390f35b6102ea60048036038101906102e59190612b7d565b610ae1565b005b61030660048036038101906103019190612a3a565b610d39565b604051610313919061345b565b60405180910390f35b61033660048036038101906103319190612d78565b610df1565b005b610340610e62565b60405161034d9190613239565b60405180910390f35b61035e610ef4565b60405161036b919061345b565b60405180910390f35b61038e60048036038101906103899190612bd9565b610f00565b005b6103aa60048036038101906103a59190612afa565b610f16565b005b6103c660048036038101906103c19190612d00565b610f78565b6040516103d391906131ee565b60405180910390f35b6103f660048036038101906103f19190612d78565b610fd1565b6040516104039190613239565b60405180910390f35b61042660048036038101906104219190612d78565b610fe3565b604051610433919061345b565b60405180910390f35b61045660048036038101906104519190612a67565b611340565b60405161046391906131ee565b60405180910390f35b60007f80ac58cd000000000000000000000000000000000000000000000000000000007bffffffffffffffffffffffffffffffffffffffffffffffffffffffff1916827bffffffffffffffffffffffffffffffffffffffffffffffffffffffff1916148061053757507f5b5e139f000000000000000000000000000000000000000000000000000000007bffffffffffffffffffffffffffffffffffffffffffffffffffffffff1916827bffffffffffffffffffffffffffffffffffffffffffffffffffffffff1916145b806105475750610546826113d4565b5b9050919050565b60606000805461055d90613716565b80601f016020809104026020016040519081016040528092919081815260200182805461058990613716565b80156105d65780601f106105ab576101008083540402835291602001916105d6565b820191906000526020600020905b8154815290600101906020018083116105b957829003601f168201915b5050505050905090565b60006105eb8261143e565b61062a576040517f08c379a0000000000000000000000000000000000000000000000000000000008152600401610621906133db565b60405180910390fd5b6004600083815260200190815260200160002060009054906101000a900473ffffffffffffffffffffffffffffffffffffffff169050919050565b6000610670826109d3565b90508073ffffffffffffffffffffffffffffffffffffffff168373ffffffffffffffffffffffffffffffffffffffff1614156106e1576040517f08c379a00000000000000000000000000000000000000000000000000000000081526004016106d89061341b565b60405180910390fd5b8073ffffffffffffffffffffffffffffffffffffffff166107006114aa565b73ffffffffffffffffffffffffffffffffffffffff16148061072f575061072e816107296114aa565b611340565b5b61076e576040517f08c379a00000000000000000000000000000000000000000000000000000000081526004016107659061331b565b60405180910390fd5b61077883836114b2565b505050565b61078e6107886114aa565b8261156b565b6107cd576040517f08c379a00000000000000000000000000000000000000000000000000000000081526004016107c49061343b565b60405180910390fd5b6107d8838383611649565b505050565b60046107e882610fe3565b106107f2576108d4565b600060016107ff83610fe3565b61080991906135a5565b9050600060096000848152602001908152602001600020828154811061083257610831613880565b5b90600052602060002001805461084790613716565b80601f016020809104026020016040519081016040528092919081815260200182805461087390613716565b80156108c05780601f10610895576101008083540402835291602001916108c0565b820191906000526020600020905b8154815290600101906020018083116108a357829003601f168201915b505050505090506108d183826118b0565b50505b50565b6108f283838360405180602001604052806000815250610f16565b505050565b6060600a60003373ffffffffffffffffffffffffffffffffffffffff1673ffffffffffffffffffffffffffffffffffffffff16815260200190815260200160002080548060200260200160405190810160405280929190818152602001828054801561098257602002820191906000526020600020905b81548152602001906001019080831161096e575b5050505050905090565b600c54600b544261099d919061362c565b11156109cf5742600b81905550600060016109b86007611924565b6109c2919061362c565b90506109cd816107dd565b505b5050565b6000806002600084815260200190815260200160002060009054906101000a900473ffffffffffffffffffffffffffffffffffffffff169050600073ffffffffffffffffffffffffffffffffffffffff168173ffffffffffffffffffffffffffffffffffffffff161415610a7c576040517f08c379a0000000000000000000000000000000000000000000000000000000008152600401610a739061335b565b60405180910390fd5b80915050919050565b6000606060006001610a976007611924565b610aa1919061362c565b905060006004610ab083610fe3565b10610aba57600190505b80158015610ad65750600c54600b5442610ad4919061362c565b115b935050509250929050565b6000610aed6007611924565b90506000825114610afe5781610bd1565b6008805480602002602001604051908101604052809291908181526020016000905b82821015610bcc578382906000526020600020018054610b3f90613716565b80601f0160208091040260200160405190810160405280929190818152602001828054610b6b90613716565b8015610bb85780601f10610b8d57610100808354040283529160200191610bb8565b820191906000526020600020905b815481529060010190602001808311610b9b57829003601f168201915b505050505081526020019060010190610b20565b505050505b600960008381526020019081526020016000209080519060200190610bf792919061260a565b50610c026007611932565b610c0c8382611948565b610cce8160096000848152602001908152602001600020600081548110610c3657610c35613880565b5b906000526020600020018054610c4b90613716565b80601f0160208091040260200160405190810160405280929190818152602001828054610c7790613716565b8015610cc45780601f10610c9957610100808354040283529160200191610cc4565b820191906000526020600020905b815481529060010190602001808311610ca757829003601f168201915b50505050506118b0565b600a60003373ffffffffffffffffffffffffffffffffffffffff1673ffffffffffffffffffffffffffffffffffffffff168152602001908152602001600020819080600181540180825580915050600190039060005260206000200160009091909190915055505050565b60008073ffffffffffffffffffffffffffffffffffffffff168273ffffffffffffffffffffffffffffffffffffffff161415610daa576040517f08c379a0000000000000000000000000000000000000000000000000000000008152600401610da19061333b565b60405180910390fd5b600360008373ffffffffffffffffffffffffffffffffffffffff1673ffffffffffffffffffffffffffffffffffffffff168152602001908152602001600020549050919050565b3373ffffffffffffffffffffffffffffffffffffffff16610e11826109d3565b73ffffffffffffffffffffffffffffffffffffffff161415610e5f57610e3681611966565b600960008281526020019081526020016000206000610e55919061266a565b610e5e81611972565b5b50565b606060018054610e7190613716565b80601f0160208091040260200160405190810160405280929190818152602001828054610e9d90613716565b8015610eea5780601f10610ebf57610100808354040283529160200191610eea565b820191906000526020600020905b815481529060010190602001808311610ecd57829003601f168201915b5050505050905090565b60078060000154905081565b610f12610f0b6114aa565b8383611b67565b5050565b610f27610f216114aa565b8361156b565b610f66576040517f08c379a0000000000000000000000000000000000000000000000000000000008152600401610f5d9061343b565b60405180910390fd5b610f7284848484611cd4565b50505050565b600081604051602001610f8b919061312a565b6040516020818303038152906040528051906020012083604051602001610fb2919061312a565b6040516020818303038152906040528051906020012014905092915050565b6060610fdc82611d30565b9050919050565b600080610fef83610fd1565b90506110b3816009600086815260200190815260200160002060008154811061101b5761101a613880565b5b90600052602060002001805461103090613716565b80601f016020809104026020016040519081016040528092919081815260200182805461105c90613716565b80156110a95780601f1061107e576101008083540402835291602001916110a9565b820191906000526020600020905b81548152906001019060200180831161108c57829003601f168201915b5050505050610f78565b156110c257600091505061133b565b61118481600960008681526020019081526020016000206001815481106110ec576110eb613880565b5b90600052602060002001805461110190613716565b80601f016020809104026020016040519081016040528092919081815260200182805461112d90613716565b801561117a5780601f1061114f5761010080835404028352916020019161117a565b820191906000526020600020905b81548152906001019060200180831161115d57829003601f168201915b5050505050610f78565b1561119357600191505061133b565b61125581600960008681526020019081526020016000206002815481106111bd576111bc613880565b5b9060005260206000200180546111d290613716565b80601f01602080910402602001604051908101604052809291908181526020018280546111fe90613716565b801561124b5780601f106112205761010080835404028352916020019161124b565b820191906000526020600020905b81548152906001019060200180831161122e57829003601f168201915b5050505050610f78565b1561126457600291505061133b565b611326816009600086815260200190815260200160002060038154811061128e5761128d613880565b5b9060005260206000200180546112a390613716565b80601f01602080910402602001604051908101604052809291908181526020018280546112cf90613716565b801561131c5780601f106112f15761010080835404028352916020019161131c565b820191906000526020600020905b8154815290600101906020018083116112ff57829003601f168201915b5050505050610f78565b1561133557600391505061133b565b60049150505b919050565b6000600560008473ffffffffffffffffffffffffffffffffffffffff1673ffffffffffffffffffffffffffffffffffffffff16815260200190815260200160002060008373ffffffffffffffffffffffffffffffffffffffff1673ffffffffffffffffffffffffffffffffffffffff16815260200190815260200160002060009054906101000a900460ff16905092915050565b60007f01ffc9a7000000000000000000000000000000000000000000000000000000007bffffffffffffffffffffffffffffffffffffffffffffffffffffffff1916827bffffffffffffffffffffffffffffffffffffffffffffffffffffffff1916149050919050565b60008073ffffffffffffffffffffffffffffffffffffffff166002600084815260200190815260200160002060009054906101000a900473ffffffffffffffffffffffffffffffffffffffff1673ffffffffffffffffffffffffffffffffffffffff1614159050919050565b600033905090565b816004600083815260200190815260200160002060006101000a81548173ffffffffffffffffffffffffffffffffffffffff021916908373ffffffffffffffffffffffffffffffffffffffff160217905550808273ffffffffffffffffffffffffffffffffffffffff16611525836109d3565b73ffffffffffffffffffffffffffffffffffffffff167f8c5be1e5ebec7d5bd14f71427d1e84f3dd0314c0f7b2291e5b200ac8c7c3b92560405160405180910390a45050565b60006115768261143e565b6115b5576040517f08c379a00000000000000000000000000000000000000000000000000000000081526004016115ac906132fb565b60405180910390fd5b60006115c0836109d3565b90508073ffffffffffffffffffffffffffffffffffffffff168473ffffffffffffffffffffffffffffffffffffffff16148061160257506116018185611340565b5b8061164057508373ffffffffffffffffffffffffffffffffffffffff16611628846105e0565b73ffffffffffffffffffffffffffffffffffffffff16145b91505092915050565b8273ffffffffffffffffffffffffffffffffffffffff16611669826109d3565b73ffffffffffffffffffffffffffffffffffffffff16146116bf576040517f08c379a00000000000000000000000000000000000000000000000000000000081526004016116b69061327b565b60405180910390fd5b600073ffffffffffffffffffffffffffffffffffffffff168273ffffffffffffffffffffffffffffffffffffffff16141561172f576040517f08c379a0000000000000000000000000000000000000000000000000000000008152600401611726906132bb565b60405180910390fd5b61173a838383611e82565b6117456000826114b2565b6001600360008573ffffffffffffffffffffffffffffffffffffffff1673ffffffffffffffffffffffffffffffffffffffff1681526020019081526020016000206000828254611795919061362c565b925050819055506001600360008473ffffffffffffffffffffffffffffffffffffffff1673ffffffffffffffffffffffffffffffffffffffff16815260200190815260200160002060008282546117ec91906135a5565b92505081905550816002600083815260200190815260200160002060006101000a81548173ffffffffffffffffffffffffffffffffffffffff021916908373ffffffffffffffffffffffffffffffffffffffff160217905550808273ffffffffffffffffffffffffffffffffffffffff168473ffffffffffffffffffffffffffffffffffffffff167fddf252ad1be2c89b69c2b068fc378daa952ba7f163c4a11628f55a4df523b3ef60405160405180910390a46118ab838383611e87565b505050565b6118b98261143e565b6118f8576040517f08c379a00000000000000000000000000000000000000000000000000000000081526004016118ef9061337b565b60405180910390fd5b8060066000848152602001908152602001600020908051906020019061191f92919061268b565b505050565b600081600001549050919050565b6001816000016000828254019250508190555050565b611962828260405180602001604052806000815250611e8c565b5050565b61196f81611ee7565b50565b6000600a60003373ffffffffffffffffffffffffffffffffffffffff1673ffffffffffffffffffffffffffffffffffffffff1681526020019081526020016000208054806020026020016040519081016040528092919081815260200182805480156119fd57602002820191906000526020600020905b8154815260200190600101908083116119e9575b50505050509050600067ffffffffffffffff811115611a1f57611a1e6138af565b5b604051908082528060200260200182016040528015611a4d5781602001602082028036833780820191505090505b50600a60003373ffffffffffffffffffffffffffffffffffffffff1673ffffffffffffffffffffffffffffffffffffffff1681526020019081526020016000209080519060200190611aa0929190612711565b5060005b8082511115611b625782828281518110611ac157611ac0613880565b5b602002602001015114611b4f57600a60003373ffffffffffffffffffffffffffffffffffffffff1673ffffffffffffffffffffffffffffffffffffffff168152602001908152602001600020828281518110611b2057611b1f613880565b5b602002602001015190806001815401808255809150506001900390600052602060002001600090919091909150555b8080611b5a90613779565b915050611aa4565b505050565b8173ffffffffffffffffffffffffffffffffffffffff168373ffffffffffffffffffffffffffffffffffffffff161415611bd6576040517f08c379a0000000000000000000000000000000000000000000000000000000008152600401611bcd906132db565b60405180910390fd5b80600560008573ffffffffffffffffffffffffffffffffffffffff1673ffffffffffffffffffffffffffffffffffffffff16815260200190815260200160002060008473ffffffffffffffffffffffffffffffffffffffff1673ffffffffffffffffffffffffffffffffffffffff16815260200190815260200160002060006101000a81548160ff0219169083151502179055508173ffffffffffffffffffffffffffffffffffffffff168373ffffffffffffffffffffffffffffffffffffffff167f17307eab39ab6107e8899845ad3d59bd9653f200f220920489ca2b5937696c3183604051611cc791906131ee565b60405180910390a3505050565b611cdf848484611649565b611ceb84848484611f3a565b611d2a576040517f08c379a0000000000000000000000000000000000000000000000000000000008152600401611d219061325b565b60405180910390fd5b50505050565b6060611d3b8261143e565b611d7a576040517f08c379a0000000000000000000000000000000000000000000000000000000008152600401611d71906133bb565b60405180910390fd5b6000600660008481526020019081526020016000208054611d9a90613716565b80601f0160208091040260200160405190810160405280929190818152602001828054611dc690613716565b8015611e135780601f10611de857610100808354040283529160200191611e13565b820191906000526020600020905b815481529060010190602001808311611df657829003601f168201915b505050505090506000611e246120d1565b9050600081511415611e3a578192505050611e7d565b600082511115611e6f578082604051602001611e57929190613141565b60405160208183030381529060405292505050611e7d565b611e78846120e8565b925050505b919050565b505050565b505050565b611e96838361218f565b611ea36000848484611f3a565b611ee2576040517f08c379a0000000000000000000000000000000000000000000000000000000008152600401611ed99061325b565b60405180910390fd5b505050565b611ef081612369565b6000600660008381526020019081526020016000208054611f1090613716565b905014611f3757600660008281526020019081526020016000206000611f36919061275e565b5b50565b6000611f5b8473ffffffffffffffffffffffffffffffffffffffff16612486565b156120c4578373ffffffffffffffffffffffffffffffffffffffff1663150b7a02611f846114aa565b8786866040518563ffffffff1660e01b8152600401611fa69493929190613180565b602060405180830381600087803b158015611fc057600080fd5b505af1925050508015611ff157506040513d601f19601f82011682018060405250810190611fee9190612c86565b60015b612074573d8060008114612021576040519150601f19603f3d011682016040523d82523d6000602084013e612026565b606091505b5060008151141561206c576040517f08c379a00000000000000000000000000000000000000000000000000000000081526004016120639061325b565b60405180910390fd5b805181602001fd5b63150b7a0260e01b7bffffffffffffffffffffffffffffffffffffffffffffffffffffffff1916817bffffffffffffffffffffffffffffffffffffffffffffffffffffffff1916149150506120c9565b600190505b949350505050565b606060405180602001604052806000815250905090565b60606120f38261143e565b612132576040517f08c379a0000000000000000000000000000000000000000000000000000000008152600401612129906133fb565b60405180910390fd5b600061213c6120d1565b9050600081511161215c5760405180602001604052806000815250612187565b80612166846124a9565b604051602001612177929190613141565b6040516020818303038152906040525b915050919050565b600073ffffffffffffffffffffffffffffffffffffffff168273ffffffffffffffffffffffffffffffffffffffff1614156121ff576040517f08c379a00000000000000000000000000000000000000000000000000000000081526004016121f69061339b565b60405180910390fd5b6122088161143e565b15612248576040517f08c379a000000000000000000000000000000000000000000000000000000000815260040161223f9061329b565b60405180910390fd5b61225460008383611e82565b6001600360008473ffffffffffffffffffffffffffffffffffffffff1673ffffffffffffffffffffffffffffffffffffffff16815260200190815260200160002060008282546122a491906135a5565b92505081905550816002600083815260200190815260200160002060006101000a81548173ffffffffffffffffffffffffffffffffffffffff021916908373ffffffffffffffffffffffffffffffffffffffff160217905550808273ffffffffffffffffffffffffffffffffffffffff16600073ffffffffffffffffffffffffffffffffffffffff167fddf252ad1be2c89b69c2b068fc378daa952ba7f163c4a11628f55a4df523b3ef60405160405180910390a461236560008383611e87565b5050565b6000612374826109d3565b905061238281600084611e82565b61238d6000836114b2565b6001600360008373ffffffffffffffffffffffffffffffffffffffff1673ffffffffffffffffffffffffffffffffffffffff16815260200190815260200160002060008282546123dd919061362c565b925050819055506002600083815260200190815260200160002060006101000a81549073ffffffffffffffffffffffffffffffffffffffff021916905581600073ffffffffffffffffffffffffffffffffffffffff168273ffffffffffffffffffffffffffffffffffffffff167fddf252ad1be2c89b69c2b068fc378daa952ba7f163c4a11628f55a4df523b3ef60405160405180910390a461248281600084611e87565b5050565b6000808273ffffffffffffffffffffffffffffffffffffffff163b119050919050565b606060008214156124f1576040518060400160405280600181526020017f30000000000000000000000000000000000000000000000000000000000000008152509050612605565b600082905060005b6000821461252357808061250c90613779565b915050600a8261251c91906135fb565b91506124f9565b60008167ffffffffffffffff81111561253f5761253e6138af565b5b6040519080825280601f01601f1916602001820160405280156125715781602001600182028036833780820191505090505b5090505b600085146125fe5760018261258a919061362c565b9150600a8561259991906137c2565b60306125a591906135a5565b60f81b8183815181106125bb576125ba613880565b5b60200101907effffffffffffffffffffffffffffffffffffffffffffffffffffffffffffff1916908160001a905350600a856125f791906135fb565b9450612575565b8093505050505b919050565b828054828255906000526020600020908101928215612659579160200282015b8281111561265857825182908051906020019061264892919061268b565b509160200191906001019061262a565b5b509050612666919061279e565b5090565b5080546000825590600052602060002090810190612688919061279e565b50565b82805461269790613716565b90600052602060002090601f0160209004810192826126b95760008555612700565b82601f106126d257805160ff1916838001178555612700565b82800160010185558215612700579182015b828111156126ff5782518255916020019190600101906126e4565b5b50905061270d91906127c2565b5090565b82805482825590600052602060002090810192821561274d579160200282015b8281111561274c578251825591602001919060010190612731565b5b50905061275a91906127c2565b5090565b50805461276a90613716565b6000825580601f1061277c575061279b565b601f01602090049060005260206000209081019061279a91906127c2565b5b50565b5b808211156127be57600081816127b5919061275e565b5060010161279f565b5090565b5b808211156127db5760008160009055506001016127c3565b5090565b60006127f26127ed8461349b565b613476565b90508083825260208201905082856020860282011115612815576128146138e8565b5b60005b8581101561286357813567ffffffffffffffff81111561283b5761283a6138e3565b5b80860161284889826129f7565b85526020850194506020840193505050600181019050612818565b5050509392505050565b600061288061287b846134c7565b613476565b90508281526020810184848401111561289c5761289b6138ed565b5b6128a78482856136d4565b509392505050565b60006128c26128bd846134f8565b613476565b9050828152602081018484840111156128de576128dd6138ed565b5b6128e98482856136d4565b509392505050565b60008135905061290081613d8b565b92915050565b600082601f83011261291b5761291a6138e3565b5b813561292b8482602086016127df565b91505092915050565b60008135905061294381613da2565b92915050565b60008135905061295881613db9565b92915050565b60008151905061296d81613db9565b92915050565b60008083601f840112612989576129886138e3565b5b8235905067ffffffffffffffff8111156129a6576129a56138de565b5b6020830191508360018202830111156129c2576129c16138e8565b5b9250929050565b600082601f8301126129de576129dd6138e3565b5b81356129ee84826020860161286d565b91505092915050565b600082601f830112612a0c57612a0b6138e3565b5b8135612a1c8482602086016128af565b91505092915050565b600081359050612a3481613dd0565b92915050565b600060208284031215612a5057612a4f6138f7565b5b6000612a5e848285016128f1565b91505092915050565b60008060408385031215612a7e57612a7d6138f7565b5b6000612a8c858286016128f1565b9250506020612a9d858286016128f1565b9150509250929050565b600080600060608486031215612ac057612abf6138f7565b5b6000612ace868287016128f1565b9350506020612adf868287016128f1565b9250506040612af086828701612a25565b9150509250925092565b60008060008060808587031215612b1457612b136138f7565b5b6000612b22878288016128f1565b9450506020612b33878288016128f1565b9350506040612b4487828801612a25565b925050606085013567ffffffffffffffff811115612b6557612b646138f2565b5b612b71878288016129c9565b91505092959194509250565b60008060408385031215612b9457612b936138f7565b5b6000612ba2858286016128f1565b925050602083013567ffffffffffffffff811115612bc357612bc26138f2565b5b612bcf85828601612906565b9150509250929050565b60008060408385031215612bf057612bef6138f7565b5b6000612bfe858286016128f1565b9250506020612c0f85828601612934565b9150509250929050565b60008060408385031215612c3057612c2f6138f7565b5b6000612c3e858286016128f1565b9250506020612c4f85828601612a25565b9150509250929050565b600060208284031215612c6f57612c6e6138f7565b5b6000612c7d84828501612949565b91505092915050565b600060208284031215612c9c57612c9b6138f7565b5b6000612caa8482850161295e565b91505092915050565b60008060208385031215612cca57612cc96138f7565b5b600083013567ffffffffffffffff811115612ce857612ce76138f2565b5b612cf485828601612973565b92509250509250929050565b60008060408385031215612d1757612d166138f7565b5b600083013567ffffffffffffffff811115612d3557612d346138f2565b5b612d41858286016129f7565b925050602083013567ffffffffffffffff811115612d6257612d616138f2565b5b612d6e858286016129f7565b9150509250929050565b600060208284031215612d8e57612d8d6138f7565b5b6000612d9c84828501612a25565b91505092915050565b6000612db1838361310c565b60208301905092915050565b612dc681613660565b82525050565b6000612dd782613539565b612de18185613567565b9350612dec83613529565b8060005b83811015612e1d578151612e048882612da5565b9750612e0f8361355a565b925050600181019050612df0565b5085935050505092915050565b612e3381613672565b82525050565b6000612e4482613544565b612e4e8185613578565b9350612e5e8185602086016136e3565b612e67816138fc565b840191505092915050565b6000612e7d8261354f565b612e878185613589565b9350612e978185602086016136e3565b612ea0816138fc565b840191505092915050565b6000612eb68261354f565b612ec0818561359a565b9350612ed08185602086016136e3565b80840191505092915050565b6000612ee9603283613589565b9150612ef48261390d565b604082019050919050565b6000612f0c602583613589565b9150612f178261395c565b604082019050919050565b6000612f2f601c83613589565b9150612f3a826139ab565b602082019050919050565b6000612f52602483613589565b9150612f5d826139d4565b604082019050919050565b6000612f75601983613589565b9150612f8082613a23565b602082019050919050565b6000612f98602c83613589565b9150612fa382613a4c565b604082019050919050565b6000612fbb603883613589565b9150612fc682613a9b565b604082019050919050565b6000612fde602a83613589565b9150612fe982613aea565b604082019050919050565b6000613001602983613589565b915061300c82613b39565b604082019050919050565b6000613024602e83613589565b915061302f82613b88565b604082019050919050565b6000613047602083613589565b915061305282613bd7565b602082019050919050565b600061306a603183613589565b915061307582613c00565b604082019050919050565b600061308d602c83613589565b915061309882613c4f565b604082019050919050565b60006130b0602f83613589565b91506130bb82613c9e565b604082019050919050565b60006130d3602183613589565b91506130de82613ced565b604082019050919050565b60006130f6603183613589565b915061310182613d3c565b604082019050919050565b613115816136ca565b82525050565b613124816136ca565b82525050565b60006131368284612eab565b915081905092915050565b600061314d8285612eab565b91506131598284612eab565b91508190509392505050565b600060208201905061317a6000830184612dbd565b92915050565b60006080820190506131956000830187612dbd565b6131a26020830186612dbd565b6131af604083018561311b565b81810360608301526131c18184612e39565b905095945050505050565b600060208201905081810360008301526131e68184612dcc565b905092915050565b60006020820190506132036000830184612e2a565b92915050565b600060408201905061321e6000830185612e2a565b81810360208301526132308184612e39565b90509392505050565b600060208201905081810360008301526132538184612e72565b905092915050565b6000602082019050818103600083015261327481612edc565b9050919050565b6000602082019050818103600083015261329481612eff565b9050919050565b600060208201905081810360008301526132b481612f22565b9050919050565b600060208201905081810360008301526132d481612f45565b9050919050565b600060208201905081810360008301526132f481612f68565b9050919050565b6000602082019050818103600083015261331481612f8b565b9050919050565b6000602082019050818103600083015261333481612fae565b9050919050565b6000602082019050818103600083015261335481612fd1565b9050919050565b6000602082019050818103600083015261337481612ff4565b9050919050565b6000602082019050818103600083015261339481613017565b9050919050565b600060208201905081810360008301526133b48161303a565b9050919050565b600060208201905081810360008301526133d48161305d565b9050919050565b600060208201905081810360008301526133f481613080565b9050919050565b60006020820190508181036000830152613414816130a3565b9050919050565b60006020820190508181036000830152613434816130c6565b9050919050565b60006020820190508181036000830152613454816130e9565b9050919050565b6000602082019050613470600083018461311b565b92915050565b6000613480613491565b905061348c8282613748565b919050565b6000604051905090565b600067ffffffffffffffff8211156134b6576134b56138af565b5b602082029050602081019050919050565b600067ffffffffffffffff8211156134e2576134e16138af565b5b6134eb826138fc565b9050602081019050919050565b600067ffffffffffffffff821115613513576135126138af565b5b61351c826138fc565b9050602081019050919050565b6000819050602082019050919050565b600081519050919050565b600081519050919050565b600081519050919050565b6000602082019050919050565b600082825260208201905092915050565b600082825260208201905092915050565b600082825260208201905092915050565b600081905092915050565b60006135b0826136ca565b91506135bb836136ca565b9250827fffffffffffffffffffffffffffffffffffffffffffffffffffffffffffffffff038211156135f0576135ef6137f3565b5b828201905092915050565b6000613606826136ca565b9150613611836136ca565b92508261362157613620613822565b5b828204905092915050565b6000613637826136ca565b9150613642836136ca565b925082821015613655576136546137f3565b5b828203905092915050565b600061366b826136aa565b9050919050565b60008115159050919050565b60007fffffffff0000000000000000000000000000000000000000000000000000000082169050919050565b600073ffffffffffffffffffffffffffffffffffffffff82169050919050565b6000819050919050565b82818337600083830152505050565b60005b838110156137015780820151818401526020810190506136e6565b83811115613710576000848401525b50505050565b6000600282049050600182168061372e57607f821691505b6020821081141561374257613741613851565b5b50919050565b613751826138fc565b810181811067ffffffffffffffff821117156137705761376f6138af565b5b80604052505050565b6000613784826136ca565b91507fffffffffffffffffffffffffffffffffffffffffffffffffffffffffffffffff8214156137b7576137b66137f3565b5b600182019050919050565b60006137cd826136ca565b91506137d8836136ca565b9250826137e8576137e7613822565b5b828206905092915050565b7f4e487b7100000000000000000000000000000000000000000000000000000000600052601160045260246000fd5b7f4e487b7100000000000000000000000000000000000000000000000000000000600052601260045260246000fd5b7f4e487b7100000000000000000000000000000000000000000000000000000000600052602260045260246000fd5b7f4e487b7100000000000000000000000000000000000000000000000000000000600052603260045260246000fd5b7f4e487b7100000000000000000000000000000000000000000000000000000000600052604160045260246000fd5b600080fd5b600080fd5b600080fd5b600080fd5b600080fd5b600080fd5b6000601f19601f8301169050919050565b7f4552433732313a207472616e7366657220746f206e6f6e20455243373231526560008201527f63656976657220696d706c656d656e7465720000000000000000000000000000602082015250565b7f4552433732313a207472616e736665722066726f6d20696e636f72726563742060008201527f6f776e6572000000000000000000000000000000000000000000000000000000602082015250565b7f4552433732313a20746f6b656e20616c7265616479206d696e74656400000000600082015250565b7f4552433732313a207472616e7366657220746f20746865207a65726f2061646460008201527f7265737300000000000000000000000000000000000000000000000000000000602082015250565b7f4552433732313a20617070726f766520746f2063616c6c657200000000000000600082015250565b7f4552433732313a206f70657261746f7220717565727920666f72206e6f6e657860008201527f697374656e7420746f6b656e0000000000000000000000000000000000000000602082015250565b7f4552433732313a20617070726f76652063616c6c6572206973206e6f74206f7760008201527f6e6572206e6f7220617070726f76656420666f7220616c6c0000000000000000602082015250565b7f4552433732313a2062616c616e636520717565727920666f7220746865207a6560008201527f726f206164647265737300000000000000000000000000000000000000000000602082015250565b7f4552433732313a206f776e657220717565727920666f72206e6f6e657869737460008201527f656e7420746f6b656e0000000000000000000000000000000000000000000000602082015250565b7f45524337323155524953746f726167653a2055524920736574206f66206e6f6e60008201527f6578697374656e7420746f6b656e000000000000000000000000000000000000602082015250565b7f4552433732313a206d696e7420746f20746865207a65726f2061646472657373600082015250565b7f45524337323155524953746f726167653a2055524920717565727920666f722060008201527f6e6f6e6578697374656e7420746f6b656e000000000000000000000000000000602082015250565b7f4552433732313a20617070726f76656420717565727920666f72206e6f6e657860008201527f697374656e7420746f6b656e0000000000000000000000000000000000000000602082015250565b7f4552433732314d657461646174613a2055524920717565727920666f72206e6f60008201527f6e6578697374656e7420746f6b656e0000000000000000000000000000000000602082015250565b7f4552433732313a20617070726f76616c20746f2063757272656e74206f776e6560008201527f7200000000000000000000000000000000000000000000000000000000000000602082015250565b7f4552433732313a207472616e736665722063616c6c6572206973206e6f74206f60008201527f776e6572206e6f7220617070726f766564000000000000000000000000000000602082015250565b613d9481613660565b8114613d9f57600080fd5b50565b613dab81613672565b8114613db657600080fd5b50565b613dc28161367e565b8114613dcd57600080fd5b50565b613dd9816136ca565b8114613de457600080fd5b5056fea2646970667358221220ba1231905a80b7279fb0b9930c9fbfb6aa2a89927f486f03b8146691e8dd60a364736f6c63430008060033",
  "linkReferences": {},
  "deployedLinkReferences": {}
}