{
  "address": "0xf58c4d372442AFc750Ece3fb1672690f8414f113",
  "abi": [
    {
      "inputs": [
        {
          "internalType": "uint256",
          "name": "_interval",
          "type": "uint256"
        },
        {
          "internalType": "string[]",
          "name": "_ifpsUris",
          "type": "string[]"
        }
      ],
      "stateMutability": "nonpayable",
      "type": "constructor"
    },
    {
      "anonymous": false,
      "inputs": [
        {
          "indexed": true,
          "internalType": "address",
          "name": "owner",
          "type": "address"
        },
        {
          "indexed": true,
          "internalType": "address",
          "name": "approved",
          "type": "address"
        },
        {
          "indexed": true,
          "internalType": "uint256",
          "name": "tokenId",
          "type": "uint256"
        }
      ],
      "name": "Approval",
      "type": "event"
    },
    {
      "anonymous": false,
      "inputs": [
        {
          "indexed": true,
          "internalType": "address",
          "name": "owner",
          "type": "address"
        },
        {
          "indexed": true,
          "internalType": "address",
          "name": "operator",
          "type": "address"
        },
        {
          "indexed": false,
          "internalType": "bool",
          "name": "approved",
          "type": "bool"
        }
      ],
      "name": "ApprovalForAll",
      "type": "event"
    },
    {
      "anonymous": false,
      "inputs": [
        {
          "indexed": true,
          "internalType": "address",
          "name": "from",
          "type": "address"
        },
        {
          "indexed": true,
          "internalType": "address",
          "name": "to",
          "type": "address"
        },
        {
          "indexed": true,
          "internalType": "uint256",
          "name": "tokenId",
          "type": "uint256"
        }
      ],
      "name": "Transfer",
      "type": "event"
    },
    {
      "inputs": [
        {
          "internalType": "address",
          "name": "to",
          "type": "address"
        },
        {
          "internalType": "uint256",
          "name": "tokenId",
          "type": "uint256"
        }
      ],
      "name": "approve",
      "outputs": [],
      "stateMutability": "nonpayable",
      "type": "function"
    },
    {
      "inputs": [
        {
          "internalType": "address",
          "name": "owner",
          "type": "address"
        }
      ],
      "name": "balanceOf",
      "outputs": [
        {
          "internalType": "uint256",
          "name": "",
          "type": "uint256"
        }
      ],
      "stateMutability": "view",
      "type": "function"
    },
    {
      "inputs": [
        {
          "internalType": "uint256",
          "name": "tokenId",
          "type": "uint256"
        }
      ],
      "name": "burnToken",
      "outputs": [],
      "stateMutability": "nonpayable",
      "type": "function"
    },
    {
      "inputs": [
        {
          "internalType": "bytes",
          "name": "",
          "type": "bytes"
        }
      ],
      "name": "checkUpkeep",
      "outputs": [
        {
          "internalType": "bool",
          "name": "upkeepNeeded",
          "type": "bool"
        },
        {
          "internalType": "bytes",
          "name": "",
          "type": "bytes"
        }
      ],
      "stateMutability": "view",
      "type": "function"
    },
    {
      "inputs": [
        {
          "internalType": "string",
          "name": "a",
          "type": "string"
        },
        {
          "internalType": "string",
          "name": "b",
          "type": "string"
        }
      ],
      "name": "compareStrings",
      "outputs": [
        {
          "internalType": "bool",
          "name": "",
          "type": "bool"
        }
      ],
      "stateMutability": "pure",
      "type": "function"
    },
    {
      "inputs": [
        {
          "internalType": "uint256",
          "name": "_tokenId",
          "type": "uint256"
        }
      ],
      "name": "flowerStage",
      "outputs": [
        {
          "internalType": "uint256",
          "name": "",
          "type": "uint256"
        }
      ],
      "stateMutability": "view",
      "type": "function"
    },
    {
      "inputs": [
        {
          "internalType": "uint256",
          "name": "tokenId",
          "type": "uint256"
        }
      ],
      "name": "getApproved",
      "outputs": [
        {
          "internalType": "address",
          "name": "",
          "type": "address"
        }
      ],
      "stateMutability": "view",
      "type": "function"
    },
    {
      "inputs": [],
      "name": "getTokensId",
      "outputs": [
        {
          "internalType": "uint256[]",
          "name": "",
          "type": "uint256[]"
        }
      ],
      "stateMutability": "view",
      "type": "function"
    },
    {
      "inputs": [
        {
          "internalType": "uint256",
          "name": "_tokenId",
          "type": "uint256"
        }
      ],
      "name": "growFlower",
      "outputs": [],
      "stateMutability": "nonpayable",
      "type": "function"
    },
    {
      "inputs": [
        {
          "internalType": "address",
          "name": "owner",
          "type": "address"
        },
        {
          "internalType": "address",
          "name": "operator",
          "type": "address"
        }
      ],
      "name": "isApprovedForAll",
      "outputs": [
        {
          "internalType": "bool",
          "name": "",
          "type": "bool"
        }
      ],
      "stateMutability": "view",
      "type": "function"
    },
    {
      "inputs": [],
      "name": "name",
      "outputs": [
        {
          "internalType": "string",
          "name": "",
          "type": "string"
        }
      ],
      "stateMutability": "view",
      "type": "function"
    },
    {
      "inputs": [
        {
          "internalType": "uint256",
          "name": "tokenId",
          "type": "uint256"
        }
      ],
      "name": "ownerOf",
      "outputs": [
        {
          "internalType": "address",
          "name": "",
          "type": "address"
        }
      ],
      "stateMutability": "view",
      "type": "function"
    },
    {
      "inputs": [
        {
          "internalType": "bytes",
          "name": "",
          "type": "bytes"
        }
      ],
      "name": "performUpkeep",
      "outputs": [],
      "stateMutability": "nonpayable",
      "type": "function"
    },
    {
      "inputs": [
        {
          "internalType": "uint256",
          "name": "tokenId",
          "type": "uint256"
        }
      ],
      "name": "removeTokenIdFromOwner",
      "outputs": [],
      "stateMutability": "nonpayable",
      "type": "function"
    },
    {
      "inputs": [
        {
          "internalType": "address",
          "name": "to",
          "type": "address"
        },
        {
          "internalType": "string[]",
          "name": "_ifpsUris",
          "type": "string[]"
        }
      ],
      "name": "safeMint",
      "outputs": [],
      "stateMutability": "nonpayable",
      "type": "function"
    },
    {
      "inputs": [
        {
          "internalType": "address",
          "name": "from",
          "type": "address"
        },
        {
          "internalType": "address",
          "name": "to",
          "type": "address"
        },
        {
          "internalType": "uint256",
          "name": "tokenId",
          "type": "uint256"
        }
      ],
      "name": "safeTransferFrom",
      "outputs": [],
      "stateMutability": "nonpayable",
      "type": "function"
    },
    {
      "inputs": [
        {
          "internalType": "address",
          "name": "from",
          "type": "address"
        },
        {
          "internalType": "address",
          "name": "to",
          "type": "address"
        },
        {
          "internalType": "uint256",
          "name": "tokenId",
          "type": "uint256"
        },
        {
          "internalType": "bytes",
          "name": "_data",
          "type": "bytes"
        }
      ],
      "name": "safeTransferFrom",
      "outputs": [],
      "stateMutability": "nonpayable",
      "type": "function"
    },
    {
      "inputs": [
        {
          "internalType": "address",
          "name": "operator",
          "type": "address"
        },
        {
          "internalType": "bool",
          "name": "approved",
          "type": "bool"
        }
      ],
      "name": "setApprovalForAll",
      "outputs": [],
      "stateMutability": "nonpayable",
      "type": "function"
    },
    {
      "inputs": [
        {
          "internalType": "bytes4",
          "name": "interfaceId",
          "type": "bytes4"
        }
      ],
      "name": "supportsInterface",
      "outputs": [
        {
          "internalType": "bool",
          "name": "",
          "type": "bool"
        }
      ],
      "stateMutability": "view",
      "type": "function"
    },
    {
      "inputs": [],
      "name": "symbol",
      "outputs": [
        {
          "internalType": "string",
          "name": "",
          "type": "string"
        }
      ],
      "stateMutability": "view",
      "type": "function"
    },
    {
      "inputs": [],
      "name": "tokenIdCounter",
      "outputs": [
        {
          "internalType": "uint256",
          "name": "_value",
          "type": "uint256"
        }
      ],
      "stateMutability": "view",
      "type": "function"
    },
    {
      "inputs": [
        {
          "internalType": "uint256",
          "name": "tokenId",
          "type": "uint256"
        }
      ],
      "name": "tokenURI",
      "outputs": [
        {
          "internalType": "string",
          "name": "",
          "type": "string"
        }
      ],
      "stateMutability": "view",
      "type": "function"
    },
    {
      "inputs": [
        {
          "internalType": "address",
          "name": "from",
          "type": "address"
        },
        {
          "internalType": "address",
          "name": "to",
          "type": "address"
        },
        {
          "internalType": "uint256",
          "name": "tokenId",
          "type": "uint256"
        }
      ],
      "name": "transferFrom",
      "outputs": [],
      "stateMutability": "nonpayable",
      "type": "function"
    }
  ],
  "transactionHash": "0xaae810f03e0d81818ad325072d727b1bccae15edc1fe5699f4ce48985df0db4f",
  "args": [
    120,
    [
      "https://ipfs.io/ipfs/QmVJyMfWbFi2YkPbR8HboekHK2neG8Bkkee9VkscYSSP7j",
      "https://ipfs.io/ipfs/QmU4QAU181GeZpFQAq9FVf9tdHDXCs2AwSj49shh3rEji2",
      "https://ipfs.io/ipfs/QmWZfUdGhcDrfFfjYK6rK5rfZ1K4xaknGir9tDGEgRuWde",
      "https://ipfs.io/ipfs/QmYk8DJNTmamhjtu8QMu3JXPvQiYDLG1qveWMUwSUMt4o3",
      "https://ipfs.io/ipfs/QmPPgAtAaPGh3X4y8n1NjoB5JGKUmRMbtqKMe9gvxE9mvV"
    ]
  ],
  "numDeployments": 1,
  "solcInputHash": "449874ad73dea2ac93ca89df1995425d",
  "bytecode": "0x60806040523480156200001157600080fd5b5060405162004485380380620044858339818101604052810190620000379190620003ef565b6040518060400160405280600d81526020017f466c6f77657220506c61747a69000000000000000000000000000000000000008152506040518060400160405280600581526020017f46504c545a0000000000000000000000000000000000000000000000000000008152508160009080519060200190620000bb92919062000106565b508060019080519060200190620000d492919062000106565b50505081600c8190555042600b819055508060089080519060200190620000fd92919062000197565b50505062000631565b828054620001149062000523565b90600052602060002090601f01602090048101928262000138576000855562000184565b82601f106200015357805160ff191683800117855562000184565b8280016001018555821562000184579182015b828111156200018357825182559160200191906001019062000166565b5b509050620001939190620001fe565b5090565b828054828255906000526020600020908101928215620001eb579160200282015b82811115620001ea578251829080519060200190620001d992919062000106565b5091602001919060010190620001b8565b5b509050620001fa91906200021d565b5090565b5b8082111562000219576000816000905550600101620001ff565b5090565b5b8082111562000241576000818162000237919062000245565b506001016200021e565b5090565b508054620002539062000523565b6000825580601f1062000267575062000288565b601f016020900490600052602060002090810190620002879190620001fe565b5b50565b6000620002a26200029c846200047e565b62000455565b90508083825260208201905082856020860282011115620002c857620002c7620005f2565b5b60005b858110156200031d57815167ffffffffffffffff811115620002f257620002f1620005ed565b5b808601620003018982620003a5565b85526020850194506020840193505050600181019050620002cb565b5050509392505050565b60006200033e6200033884620004ad565b62000455565b9050828152602081018484840111156200035d576200035c620005f7565b5b6200036a848285620004ed565b509392505050565b600082601f8301126200038a5762000389620005ed565b5b81516200039c8482602086016200028b565b91505092915050565b600082601f830112620003bd57620003bc620005ed565b5b8151620003cf84826020860162000327565b91505092915050565b600081519050620003e98162000617565b92915050565b6000806040838503121562000409576200040862000601565b5b60006200041985828601620003d8565b925050602083015167ffffffffffffffff8111156200043d576200043c620005fc565b5b6200044b8582860162000372565b9150509250929050565b60006200046162000474565b90506200046f828262000559565b919050565b6000604051905090565b600067ffffffffffffffff8211156200049c576200049b620005be565b5b602082029050602081019050919050565b600067ffffffffffffffff821115620004cb57620004ca620005be565b5b620004d68262000606565b9050602081019050919050565b6000819050919050565b60005b838110156200050d578082015181840152602081019050620004f0565b838111156200051d576000848401525b50505050565b600060028204905060018216806200053c57607f821691505b602082108114156200055357620005526200058f565b5b50919050565b620005648262000606565b810181811067ffffffffffffffff82111715620005865762000585620005be565b5b80604052505050565b7f4e487b7100000000000000000000000000000000000000000000000000000000600052602260045260246000fd5b7f4e487b7100000000000000000000000000000000000000000000000000000000600052604160045260246000fd5b600080fd5b600080fd5b600080fd5b600080fd5b600080fd5b6000601f19601f8301169050919050565b6200062281620004e3565b81146200062e57600080fd5b50565b613e4480620006416000396000f3fe608060405234801561001057600080fd5b506004361061014d5760003560e01c80636f98e3d8116100c3578063b88d4fde1161007c578063b88d4fde1461039b578063bed34bba146103b7578063c87b56dd146103e7578063d9f2f7a214610417578063e985e9c514610447578063fea86d93146104775761014d565b80636f98e3d8146102db57806370a08231146102f75780637b47ec1a1461032757806395d89b411461034357806398bdf6f514610361578063a22cb4651461037f5761014d565b80632b98af8d116101155780632b98af8d1461020857806342842e0e14610224578063440a4a16146102405780634585e33b1461025e5780636352211e1461027a5780636e04ff0d146102aa5761014d565b806301ffc9a71461015257806306fdde0314610182578063081812fc146101a0578063095ea7b3146101d057806323b872dd146101ec575b600080fd5b61016c60048036038101906101679190612c80565b610493565b6040516101799190613215565b60405180910390f35b61018a610575565b6040516101979190613260565b60405180910390f35b6101ba60048036038101906101b59190612d9f565b610607565b6040516101c7919061318c565b60405180910390f35b6101ea60048036038101906101e59190612c40565b61068c565b005b61020660048036038101906102019190612ace565b6107a4565b005b610222600480360381019061021d9190612d9f565b610804565b005b61023e60048036038101906102399190612ace565b6108fe565b005b61024861091e565b60405161025591906131f3565b60405180910390f35b61027860048036038101906102739190612cda565b6109b3565b005b610294600480360381019061028f9190612d9f565b6109fa565b6040516102a1919061318c565b60405180910390f35b6102c460048036038101906102bf9190612cda565b610aac565b6040516102d2929190613230565b60405180910390f35b6102f560048036038101906102f09190612ba4565b610b08565b005b610311600480360381019061030c9190612a61565b610d60565b60405161031e9190613482565b60405180910390f35b610341600480360381019061033c9190612d9f565b610e18565b005b61034b610e89565b6040516103589190613260565b60405180910390f35b610369610f1b565b6040516103769190613482565b60405180910390f35b61039960048036038101906103949190612c00565b610f27565b005b6103b560048036038101906103b09190612b21565b610f3d565b005b6103d160048036038101906103cc9190612d27565b610f9f565b6040516103de9190613215565b60405180910390f35b61040160048036038101906103fc9190612d9f565b610ff8565b60405161040e9190613260565b60405180910390f35b610431600480360381019061042c9190612d9f565b61100a565b60405161043e9190613482565b60405180910390f35b610461600480360381019061045c9190612a8e565b611367565b60405161046e9190613215565b60405180910390f35b610491600480360381019061048c9190612d9f565b6113fb565b005b60007f80ac58cd000000000000000000000000000000000000000000000000000000007bffffffffffffffffffffffffffffffffffffffffffffffffffffffff1916827bffffffffffffffffffffffffffffffffffffffffffffffffffffffff1916148061055e57507f5b5e139f000000000000000000000000000000000000000000000000000000007bffffffffffffffffffffffffffffffffffffffffffffffffffffffff1916827bffffffffffffffffffffffffffffffffffffffffffffffffffffffff1916145b8061056e575061056d826115f0565b5b9050919050565b6060600080546105849061373d565b80601f01602080910402602001604051908101604052809291908181526020018280546105b09061373d565b80156105fd5780601f106105d2576101008083540402835291602001916105fd565b820191906000526020600020905b8154815290600101906020018083116105e057829003601f168201915b5050505050905090565b60006106128261165a565b610651576040517f08c379a000000000000000000000000000000000000000000000000000000000815260040161064890613402565b60405180910390fd5b6004600083815260200190815260200160002060009054906101000a900473ffffffffffffffffffffffffffffffffffffffff169050919050565b6000610697826109fa565b90508073ffffffffffffffffffffffffffffffffffffffff168373ffffffffffffffffffffffffffffffffffffffff161415610708576040517f08c379a00000000000000000000000000000000000000000000000000000000081526004016106ff90613442565b60405180910390fd5b8073ffffffffffffffffffffffffffffffffffffffff166107276116c6565b73ffffffffffffffffffffffffffffffffffffffff1614806107565750610755816107506116c6565b611367565b5b610795576040517f08c379a000000000000000000000000000000000000000000000000000000000815260040161078c90613342565b60405180910390fd5b61079f83836116ce565b505050565b6107b56107af6116c6565b82611787565b6107f4576040517f08c379a00000000000000000000000000000000000000000000000000000000081526004016107eb90613462565b60405180910390fd5b6107ff838383611865565b505050565b600461080f8261100a565b10610819576108fb565b600060016108268361100a565b61083091906135cc565b90506000600960008481526020019081526020016000208281548110610859576108586138a7565b5b90600052602060002001805461086e9061373d565b80601f016020809104026020016040519081016040528092919081815260200182805461089a9061373d565b80156108e75780601f106108bc576101008083540402835291602001916108e7565b820191906000526020600020905b8154815290600101906020018083116108ca57829003601f168201915b505050505090506108f88382611acc565b50505b50565b61091983838360405180602001604052806000815250610f3d565b505050565b6060600a60003373ffffffffffffffffffffffffffffffffffffffff1673ffffffffffffffffffffffffffffffffffffffff1681526020019081526020016000208054806020026020016040519081016040528092919081815260200182805480156109a957602002820191906000526020600020905b815481526020019060010190808311610995575b5050505050905090565b600c54600b54426109c49190613653565b11156109f65742600b81905550600060016109df6007611b40565b6109e99190613653565b90506109f481610804565b505b5050565b6000806002600084815260200190815260200160002060009054906101000a900473ffffffffffffffffffffffffffffffffffffffff169050600073ffffffffffffffffffffffffffffffffffffffff168173ffffffffffffffffffffffffffffffffffffffff161415610aa3576040517f08c379a0000000000000000000000000000000000000000000000000000000008152600401610a9a90613382565b60405180910390fd5b80915050919050565b6000606060006001610abe6007611b40565b610ac89190613653565b905060006004610ad78361100a565b10610ae157600190505b80158015610afd5750600c54600b5442610afb9190613653565b115b935050509250929050565b6000610b146007611b40565b90506000825114610b255781610bf8565b6008805480602002602001604051908101604052809291908181526020016000905b82821015610bf3578382906000526020600020018054610b669061373d565b80601f0160208091040260200160405190810160405280929190818152602001828054610b929061373d565b8015610bdf5780601f10610bb457610100808354040283529160200191610bdf565b820191906000526020600020905b815481529060010190602001808311610bc257829003601f168201915b505050505081526020019060010190610b47565b505050505b600960008381526020019081526020016000209080519060200190610c1e929190612631565b50610c296007611b4e565b610c338382611b64565b610cf58160096000848152602001908152602001600020600081548110610c5d57610c5c6138a7565b5b906000526020600020018054610c729061373d565b80601f0160208091040260200160405190810160405280929190818152602001828054610c9e9061373d565b8015610ceb5780601f10610cc057610100808354040283529160200191610ceb565b820191906000526020600020905b815481529060010190602001808311610cce57829003601f168201915b5050505050611acc565b600a60003373ffffffffffffffffffffffffffffffffffffffff1673ffffffffffffffffffffffffffffffffffffffff168152602001908152602001600020819080600181540180825580915050600190039060005260206000200160009091909190915055505050565b60008073ffffffffffffffffffffffffffffffffffffffff168273ffffffffffffffffffffffffffffffffffffffff161415610dd1576040517f08c379a0000000000000000000000000000000000000000000000000000000008152600401610dc890613362565b60405180910390fd5b600360008373ffffffffffffffffffffffffffffffffffffffff1673ffffffffffffffffffffffffffffffffffffffff168152602001908152602001600020549050919050565b3373ffffffffffffffffffffffffffffffffffffffff16610e38826109fa565b73ffffffffffffffffffffffffffffffffffffffff161415610e8657610e5d81611b82565b600960008281526020019081526020016000206000610e7c9190612691565b610e85816113fb565b5b50565b606060018054610e989061373d565b80601f0160208091040260200160405190810160405280929190818152602001828054610ec49061373d565b8015610f115780601f10610ee657610100808354040283529160200191610f11565b820191906000526020600020905b815481529060010190602001808311610ef457829003601f168201915b5050505050905090565b60078060000154905081565b610f39610f326116c6565b8383611b8e565b5050565b610f4e610f486116c6565b83611787565b610f8d576040517f08c379a0000000000000000000000000000000000000000000000000000000008152600401610f8490613462565b60405180910390fd5b610f9984848484611cfb565b50505050565b600081604051602001610fb29190613151565b6040516020818303038152906040528051906020012083604051602001610fd99190613151565b6040516020818303038152906040528051906020012014905092915050565b606061100382611d57565b9050919050565b60008061101683610ff8565b90506110da8160096000868152602001908152602001600020600081548110611042576110416138a7565b5b9060005260206000200180546110579061373d565b80601f01602080910402602001604051908101604052809291908181526020018280546110839061373d565b80156110d05780601f106110a5576101008083540402835291602001916110d0565b820191906000526020600020905b8154815290600101906020018083116110b357829003601f168201915b5050505050610f9f565b156110e9576000915050611362565b6111ab8160096000868152602001908152602001600020600181548110611113576111126138a7565b5b9060005260206000200180546111289061373d565b80601f01602080910402602001604051908101604052809291908181526020018280546111549061373d565b80156111a15780601f10611176576101008083540402835291602001916111a1565b820191906000526020600020905b81548152906001019060200180831161118457829003601f168201915b5050505050610f9f565b156111ba576001915050611362565b61127c81600960008681526020019081526020016000206002815481106111e4576111e36138a7565b5b9060005260206000200180546111f99061373d565b80601f01602080910402602001604051908101604052809291908181526020018280546112259061373d565b80156112725780601f1061124757610100808354040283529160200191611272565b820191906000526020600020905b81548152906001019060200180831161125557829003601f168201915b5050505050610f9f565b1561128b576002915050611362565b61134d81600960008681526020019081526020016000206003815481106112b5576112b46138a7565b5b9060005260206000200180546112ca9061373d565b80601f01602080910402602001604051908101604052809291908181526020018280546112f69061373d565b80156113435780601f1061131857610100808354040283529160200191611343565b820191906000526020600020905b81548152906001019060200180831161132657829003601f168201915b5050505050610f9f565b1561135c576003915050611362565b60049150505b919050565b6000600560008473ffffffffffffffffffffffffffffffffffffffff1673ffffffffffffffffffffffffffffffffffffffff16815260200190815260200160002060008373ffffffffffffffffffffffffffffffffffffffff1673ffffffffffffffffffffffffffffffffffffffff16815260200190815260200160002060009054906101000a900460ff16905092915050565b6000600a60003373ffffffffffffffffffffffffffffffffffffffff1673ffffffffffffffffffffffffffffffffffffffff16815260200190815260200160002080548060200260200160405190810160405280929190818152602001828054801561148657602002820191906000526020600020905b815481526020019060010190808311611472575b50505050509050600067ffffffffffffffff8111156114a8576114a76138d6565b5b6040519080825280602002602001820160405280156114d65781602001602082028036833780820191505090505b50600a60003373ffffffffffffffffffffffffffffffffffffffff1673ffffffffffffffffffffffffffffffffffffffff16815260200190815260200160002090805190602001906115299291906126b2565b5060005b80825111156115eb578282828151811061154a576115496138a7565b5b6020026020010151146115d857600a60003373ffffffffffffffffffffffffffffffffffffffff1673ffffffffffffffffffffffffffffffffffffffff1681526020019081526020016000208282815181106115a9576115a86138a7565b5b602002602001015190806001815401808255809150506001900390600052602060002001600090919091909150555b80806115e3906137a0565b91505061152d565b505050565b60007f01ffc9a7000000000000000000000000000000000000000000000000000000007bffffffffffffffffffffffffffffffffffffffffffffffffffffffff1916827bffffffffffffffffffffffffffffffffffffffffffffffffffffffff1916149050919050565b60008073ffffffffffffffffffffffffffffffffffffffff166002600084815260200190815260200160002060009054906101000a900473ffffffffffffffffffffffffffffffffffffffff1673ffffffffffffffffffffffffffffffffffffffff1614159050919050565b600033905090565b816004600083815260200190815260200160002060006101000a81548173ffffffffffffffffffffffffffffffffffffffff021916908373ffffffffffffffffffffffffffffffffffffffff160217905550808273ffffffffffffffffffffffffffffffffffffffff16611741836109fa565b73ffffffffffffffffffffffffffffffffffffffff167f8c5be1e5ebec7d5bd14f71427d1e84f3dd0314c0f7b2291e5b200ac8c7c3b92560405160405180910390a45050565b60006117928261165a565b6117d1576040517f08c379a00000000000000000000000000000000000000000000000000000000081526004016117c890613322565b60405180910390fd5b60006117dc836109fa565b90508073ffffffffffffffffffffffffffffffffffffffff168473ffffffffffffffffffffffffffffffffffffffff16148061181e575061181d8185611367565b5b8061185c57508373ffffffffffffffffffffffffffffffffffffffff1661184484610607565b73ffffffffffffffffffffffffffffffffffffffff16145b91505092915050565b8273ffffffffffffffffffffffffffffffffffffffff16611885826109fa565b73ffffffffffffffffffffffffffffffffffffffff16146118db576040517f08c379a00000000000000000000000000000000000000000000000000000000081526004016118d2906132a2565b60405180910390fd5b600073ffffffffffffffffffffffffffffffffffffffff168273ffffffffffffffffffffffffffffffffffffffff16141561194b576040517f08c379a0000000000000000000000000000000000000000000000000000000008152600401611942906132e2565b60405180910390fd5b611956838383611ea9565b6119616000826116ce565b6001600360008573ffffffffffffffffffffffffffffffffffffffff1673ffffffffffffffffffffffffffffffffffffffff16815260200190815260200160002060008282546119b19190613653565b925050819055506001600360008473ffffffffffffffffffffffffffffffffffffffff1673ffffffffffffffffffffffffffffffffffffffff1681526020019081526020016000206000828254611a0891906135cc565b92505081905550816002600083815260200190815260200160002060006101000a81548173ffffffffffffffffffffffffffffffffffffffff021916908373ffffffffffffffffffffffffffffffffffffffff160217905550808273ffffffffffffffffffffffffffffffffffffffff168473ffffffffffffffffffffffffffffffffffffffff167fddf252ad1be2c89b69c2b068fc378daa952ba7f163c4a11628f55a4df523b3ef60405160405180910390a4611ac7838383611eae565b505050565b611ad58261165a565b611b14576040517f08c379a0000000000000000000000000000000000000000000000000000000008152600401611b0b906133a2565b60405180910390fd5b80600660008481526020019081526020016000209080519060200190611b3b9291906126ff565b505050565b600081600001549050919050565b6001816000016000828254019250508190555050565b611b7e828260405180602001604052806000815250611eb3565b5050565b611b8b81611f0e565b50565b8173ffffffffffffffffffffffffffffffffffffffff168373ffffffffffffffffffffffffffffffffffffffff161415611bfd576040517f08c379a0000000000000000000000000000000000000000000000000000000008152600401611bf490613302565b60405180910390fd5b80600560008573ffffffffffffffffffffffffffffffffffffffff1673ffffffffffffffffffffffffffffffffffffffff16815260200190815260200160002060008473ffffffffffffffffffffffffffffffffffffffff1673ffffffffffffffffffffffffffffffffffffffff16815260200190815260200160002060006101000a81548160ff0219169083151502179055508173ffffffffffffffffffffffffffffffffffffffff168373ffffffffffffffffffffffffffffffffffffffff167f17307eab39ab6107e8899845ad3d59bd9653f200f220920489ca2b5937696c3183604051611cee9190613215565b60405180910390a3505050565b611d06848484611865565b611d1284848484611f61565b611d51576040517f08c379a0000000000000000000000000000000000000000000000000000000008152600401611d4890613282565b60405180910390fd5b50505050565b6060611d628261165a565b611da1576040517f08c379a0000000000000000000000000000000000000000000000000000000008152600401611d98906133e2565b60405180910390fd5b6000600660008481526020019081526020016000208054611dc19061373d565b80601f0160208091040260200160405190810160405280929190818152602001828054611ded9061373d565b8015611e3a5780601f10611e0f57610100808354040283529160200191611e3a565b820191906000526020600020905b815481529060010190602001808311611e1d57829003601f168201915b505050505090506000611e4b6120f8565b9050600081511415611e61578192505050611ea4565b600082511115611e96578082604051602001611e7e929190613168565b60405160208183030381529060405292505050611ea4565b611e9f8461210f565b925050505b919050565b505050565b505050565b611ebd83836121b6565b611eca6000848484611f61565b611f09576040517f08c379a0000000000000000000000000000000000000000000000000000000008152600401611f0090613282565b60405180910390fd5b505050565b611f1781612390565b6000600660008381526020019081526020016000208054611f379061373d565b905014611f5e57600660008281526020019081526020016000206000611f5d9190612785565b5b50565b6000611f828473ffffffffffffffffffffffffffffffffffffffff166124ad565b156120eb578373ffffffffffffffffffffffffffffffffffffffff1663150b7a02611fab6116c6565b8786866040518563ffffffff1660e01b8152600401611fcd94939291906131a7565b602060405180830381600087803b158015611fe757600080fd5b505af192505050801561201857506040513d601f19601f820116820180604052508101906120159190612cad565b60015b61209b573d8060008114612048576040519150601f19603f3d011682016040523d82523d6000602084013e61204d565b606091505b50600081511415612093576040517f08c379a000000000000000000000000000000000000000000000000000000000815260040161208a90613282565b60405180910390fd5b805181602001fd5b63150b7a0260e01b7bffffffffffffffffffffffffffffffffffffffffffffffffffffffff1916817bffffffffffffffffffffffffffffffffffffffffffffffffffffffff1916149150506120f0565b600190505b949350505050565b606060405180602001604052806000815250905090565b606061211a8261165a565b612159576040517f08c379a000000000000000000000000000000000000000000000000000000000815260040161215090613422565b60405180910390fd5b60006121636120f8565b9050600081511161218357604051806020016040528060008152506121ae565b8061218d846124d0565b60405160200161219e929190613168565b6040516020818303038152906040525b915050919050565b600073ffffffffffffffffffffffffffffffffffffffff168273ffffffffffffffffffffffffffffffffffffffff161415612226576040517f08c379a000000000000000000000000000000000000000000000000000000000815260040161221d906133c2565b60405180910390fd5b61222f8161165a565b1561226f576040517f08c379a0000000000000000000000000000000000000000000000000000000008152600401612266906132c2565b60405180910390fd5b61227b60008383611ea9565b6001600360008473ffffffffffffffffffffffffffffffffffffffff1673ffffffffffffffffffffffffffffffffffffffff16815260200190815260200160002060008282546122cb91906135cc565b92505081905550816002600083815260200190815260200160002060006101000a81548173ffffffffffffffffffffffffffffffffffffffff021916908373ffffffffffffffffffffffffffffffffffffffff160217905550808273ffffffffffffffffffffffffffffffffffffffff16600073ffffffffffffffffffffffffffffffffffffffff167fddf252ad1be2c89b69c2b068fc378daa952ba7f163c4a11628f55a4df523b3ef60405160405180910390a461238c60008383611eae565b5050565b600061239b826109fa565b90506123a981600084611ea9565b6123b46000836116ce565b6001600360008373ffffffffffffffffffffffffffffffffffffffff1673ffffffffffffffffffffffffffffffffffffffff16815260200190815260200160002060008282546124049190613653565b925050819055506002600083815260200190815260200160002060006101000a81549073ffffffffffffffffffffffffffffffffffffffff021916905581600073ffffffffffffffffffffffffffffffffffffffff168273ffffffffffffffffffffffffffffffffffffffff167fddf252ad1be2c89b69c2b068fc378daa952ba7f163c4a11628f55a4df523b3ef60405160405180910390a46124a981600084611eae565b5050565b6000808273ffffffffffffffffffffffffffffffffffffffff163b119050919050565b60606000821415612518576040518060400160405280600181526020017f3000000000000000000000000000000000000000000000000000000000000000815250905061262c565b600082905060005b6000821461254a578080612533906137a0565b915050600a826125439190613622565b9150612520565b60008167ffffffffffffffff811115612566576125656138d6565b5b6040519080825280601f01601f1916602001820160405280156125985781602001600182028036833780820191505090505b5090505b60008514612625576001826125b19190613653565b9150600a856125c091906137e9565b60306125cc91906135cc565b60f81b8183815181106125e2576125e16138a7565b5b60200101907effffffffffffffffffffffffffffffffffffffffffffffffffffffffffffff1916908160001a905350600a8561261e9190613622565b945061259c565b8093505050505b919050565b828054828255906000526020600020908101928215612680579160200282015b8281111561267f57825182908051906020019061266f9291906126ff565b5091602001919060010190612651565b5b50905061268d91906127c5565b5090565b50805460008255906000526020600020908101906126af91906127c5565b50565b8280548282559060005260206000209081019282156126ee579160200282015b828111156126ed5782518255916020019190600101906126d2565b5b5090506126fb91906127e9565b5090565b82805461270b9061373d565b90600052602060002090601f01602090048101928261272d5760008555612774565b82601f1061274657805160ff1916838001178555612774565b82800160010185558215612774579182015b82811115612773578251825591602001919060010190612758565b5b50905061278191906127e9565b5090565b5080546127919061373d565b6000825580601f106127a357506127c2565b601f0160209004906000526020600020908101906127c191906127e9565b5b50565b5b808211156127e557600081816127dc9190612785565b506001016127c6565b5090565b5b808211156128025760008160009055506001016127ea565b5090565b6000612819612814846134c2565b61349d565b9050808382526020820190508285602086028201111561283c5761283b61390f565b5b60005b8581101561288a57813567ffffffffffffffff8111156128625761286161390a565b5b80860161286f8982612a1e565b8552602085019450602084019350505060018101905061283f565b5050509392505050565b60006128a76128a2846134ee565b61349d565b9050828152602081018484840111156128c3576128c2613914565b5b6128ce8482856136fb565b509392505050565b60006128e96128e48461351f565b61349d565b90508281526020810184848401111561290557612904613914565b5b6129108482856136fb565b509392505050565b60008135905061292781613db2565b92915050565b600082601f8301126129425761294161390a565b5b8135612952848260208601612806565b91505092915050565b60008135905061296a81613dc9565b92915050565b60008135905061297f81613de0565b92915050565b60008151905061299481613de0565b92915050565b60008083601f8401126129b0576129af61390a565b5b8235905067ffffffffffffffff8111156129cd576129cc613905565b5b6020830191508360018202830111156129e9576129e861390f565b5b9250929050565b600082601f830112612a0557612a0461390a565b5b8135612a15848260208601612894565b91505092915050565b600082601f830112612a3357612a3261390a565b5b8135612a438482602086016128d6565b91505092915050565b600081359050612a5b81613df7565b92915050565b600060208284031215612a7757612a7661391e565b5b6000612a8584828501612918565b91505092915050565b60008060408385031215612aa557612aa461391e565b5b6000612ab385828601612918565b9250506020612ac485828601612918565b9150509250929050565b600080600060608486031215612ae757612ae661391e565b5b6000612af586828701612918565b9350506020612b0686828701612918565b9250506040612b1786828701612a4c565b9150509250925092565b60008060008060808587031215612b3b57612b3a61391e565b5b6000612b4987828801612918565b9450506020612b5a87828801612918565b9350506040612b6b87828801612a4c565b925050606085013567ffffffffffffffff811115612b8c57612b8b613919565b5b612b98878288016129f0565b91505092959194509250565b60008060408385031215612bbb57612bba61391e565b5b6000612bc985828601612918565b925050602083013567ffffffffffffffff811115612bea57612be9613919565b5b612bf68582860161292d565b9150509250929050565b60008060408385031215612c1757612c1661391e565b5b6000612c2585828601612918565b9250506020612c368582860161295b565b9150509250929050565b60008060408385031215612c5757612c5661391e565b5b6000612c6585828601612918565b9250506020612c7685828601612a4c565b9150509250929050565b600060208284031215612c9657612c9561391e565b5b6000612ca484828501612970565b91505092915050565b600060208284031215612cc357612cc261391e565b5b6000612cd184828501612985565b91505092915050565b60008060208385031215612cf157612cf061391e565b5b600083013567ffffffffffffffff811115612d0f57612d0e613919565b5b612d1b8582860161299a565b92509250509250929050565b60008060408385031215612d3e57612d3d61391e565b5b600083013567ffffffffffffffff811115612d5c57612d5b613919565b5b612d6885828601612a1e565b925050602083013567ffffffffffffffff811115612d8957612d88613919565b5b612d9585828601612a1e565b9150509250929050565b600060208284031215612db557612db461391e565b5b6000612dc384828501612a4c565b91505092915050565b6000612dd88383613133565b60208301905092915050565b612ded81613687565b82525050565b6000612dfe82613560565b612e08818561358e565b9350612e1383613550565b8060005b83811015612e44578151612e2b8882612dcc565b9750612e3683613581565b925050600181019050612e17565b5085935050505092915050565b612e5a81613699565b82525050565b6000612e6b8261356b565b612e75818561359f565b9350612e8581856020860161370a565b612e8e81613923565b840191505092915050565b6000612ea482613576565b612eae81856135b0565b9350612ebe81856020860161370a565b612ec781613923565b840191505092915050565b6000612edd82613576565b612ee781856135c1565b9350612ef781856020860161370a565b80840191505092915050565b6000612f106032836135b0565b9150612f1b82613934565b604082019050919050565b6000612f336025836135b0565b9150612f3e82613983565b604082019050919050565b6000612f56601c836135b0565b9150612f61826139d2565b602082019050919050565b6000612f796024836135b0565b9150612f84826139fb565b604082019050919050565b6000612f9c6019836135b0565b9150612fa782613a4a565b602082019050919050565b6000612fbf602c836135b0565b9150612fca82613a73565b604082019050919050565b6000612fe26038836135b0565b9150612fed82613ac2565b604082019050919050565b6000613005602a836135b0565b915061301082613b11565b604082019050919050565b60006130286029836135b0565b915061303382613b60565b604082019050919050565b600061304b602e836135b0565b915061305682613baf565b604082019050919050565b600061306e6020836135b0565b915061307982613bfe565b602082019050919050565b60006130916031836135b0565b915061309c82613c27565b604082019050919050565b60006130b4602c836135b0565b91506130bf82613c76565b604082019050919050565b60006130d7602f836135b0565b91506130e282613cc5565b604082019050919050565b60006130fa6021836135b0565b915061310582613d14565b604082019050919050565b600061311d6031836135b0565b915061312882613d63565b604082019050919050565b61313c816136f1565b82525050565b61314b816136f1565b82525050565b600061315d8284612ed2565b915081905092915050565b60006131748285612ed2565b91506131808284612ed2565b91508190509392505050565b60006020820190506131a16000830184612de4565b92915050565b60006080820190506131bc6000830187612de4565b6131c96020830186612de4565b6131d66040830185613142565b81810360608301526131e88184612e60565b905095945050505050565b6000602082019050818103600083015261320d8184612df3565b905092915050565b600060208201905061322a6000830184612e51565b92915050565b60006040820190506132456000830185612e51565b81810360208301526132578184612e60565b90509392505050565b6000602082019050818103600083015261327a8184612e99565b905092915050565b6000602082019050818103600083015261329b81612f03565b9050919050565b600060208201905081810360008301526132bb81612f26565b9050919050565b600060208201905081810360008301526132db81612f49565b9050919050565b600060208201905081810360008301526132fb81612f6c565b9050919050565b6000602082019050818103600083015261331b81612f8f565b9050919050565b6000602082019050818103600083015261333b81612fb2565b9050919050565b6000602082019050818103600083015261335b81612fd5565b9050919050565b6000602082019050818103600083015261337b81612ff8565b9050919050565b6000602082019050818103600083015261339b8161301b565b9050919050565b600060208201905081810360008301526133bb8161303e565b9050919050565b600060208201905081810360008301526133db81613061565b9050919050565b600060208201905081810360008301526133fb81613084565b9050919050565b6000602082019050818103600083015261341b816130a7565b9050919050565b6000602082019050818103600083015261343b816130ca565b9050919050565b6000602082019050818103600083015261345b816130ed565b9050919050565b6000602082019050818103600083015261347b81613110565b9050919050565b60006020820190506134976000830184613142565b92915050565b60006134a76134b8565b90506134b3828261376f565b919050565b6000604051905090565b600067ffffffffffffffff8211156134dd576134dc6138d6565b5b602082029050602081019050919050565b600067ffffffffffffffff821115613509576135086138d6565b5b61351282613923565b9050602081019050919050565b600067ffffffffffffffff82111561353a576135396138d6565b5b61354382613923565b9050602081019050919050565b6000819050602082019050919050565b600081519050919050565b600081519050919050565b600081519050919050565b6000602082019050919050565b600082825260208201905092915050565b600082825260208201905092915050565b600082825260208201905092915050565b600081905092915050565b60006135d7826136f1565b91506135e2836136f1565b9250827fffffffffffffffffffffffffffffffffffffffffffffffffffffffffffffffff038211156136175761361661381a565b5b828201905092915050565b600061362d826136f1565b9150613638836136f1565b92508261364857613647613849565b5b828204905092915050565b600061365e826136f1565b9150613669836136f1565b92508282101561367c5761367b61381a565b5b828203905092915050565b6000613692826136d1565b9050919050565b60008115159050919050565b60007fffffffff0000000000000000000000000000000000000000000000000000000082169050919050565b600073ffffffffffffffffffffffffffffffffffffffff82169050919050565b6000819050919050565b82818337600083830152505050565b60005b8381101561372857808201518184015260208101905061370d565b83811115613737576000848401525b50505050565b6000600282049050600182168061375557607f821691505b6020821081141561376957613768613878565b5b50919050565b61377882613923565b810181811067ffffffffffffffff82111715613797576137966138d6565b5b80604052505050565b60006137ab826136f1565b91507fffffffffffffffffffffffffffffffffffffffffffffffffffffffffffffffff8214156137de576137dd61381a565b5b600182019050919050565b60006137f4826136f1565b91506137ff836136f1565b92508261380f5761380e613849565b5b828206905092915050565b7f4e487b7100000000000000000000000000000000000000000000000000000000600052601160045260246000fd5b7f4e487b7100000000000000000000000000000000000000000000000000000000600052601260045260246000fd5b7f4e487b7100000000000000000000000000000000000000000000000000000000600052602260045260246000fd5b7f4e487b7100000000000000000000000000000000000000000000000000000000600052603260045260246000fd5b7f4e487b7100000000000000000000000000000000000000000000000000000000600052604160045260246000fd5b600080fd5b600080fd5b600080fd5b600080fd5b600080fd5b600080fd5b6000601f19601f8301169050919050565b7f4552433732313a207472616e7366657220746f206e6f6e20455243373231526560008201527f63656976657220696d706c656d656e7465720000000000000000000000000000602082015250565b7f4552433732313a207472616e736665722066726f6d20696e636f72726563742060008201527f6f776e6572000000000000000000000000000000000000000000000000000000602082015250565b7f4552433732313a20746f6b656e20616c7265616479206d696e74656400000000600082015250565b7f4552433732313a207472616e7366657220746f20746865207a65726f2061646460008201527f7265737300000000000000000000000000000000000000000000000000000000602082015250565b7f4552433732313a20617070726f766520746f2063616c6c657200000000000000600082015250565b7f4552433732313a206f70657261746f7220717565727920666f72206e6f6e657860008201527f697374656e7420746f6b656e0000000000000000000000000000000000000000602082015250565b7f4552433732313a20617070726f76652063616c6c6572206973206e6f74206f7760008201527f6e6572206e6f7220617070726f76656420666f7220616c6c0000000000000000602082015250565b7f4552433732313a2062616c616e636520717565727920666f7220746865207a6560008201527f726f206164647265737300000000000000000000000000000000000000000000602082015250565b7f4552433732313a206f776e657220717565727920666f72206e6f6e657869737460008201527f656e7420746f6b656e0000000000000000000000000000000000000000000000602082015250565b7f45524337323155524953746f726167653a2055524920736574206f66206e6f6e60008201527f6578697374656e7420746f6b656e000000000000000000000000000000000000602082015250565b7f4552433732313a206d696e7420746f20746865207a65726f2061646472657373600082015250565b7f45524337323155524953746f726167653a2055524920717565727920666f722060008201527f6e6f6e6578697374656e7420746f6b656e000000000000000000000000000000602082015250565b7f4552433732313a20617070726f76656420717565727920666f72206e6f6e657860008201527f697374656e7420746f6b656e0000000000000000000000000000000000000000602082015250565b7f4552433732314d657461646174613a2055524920717565727920666f72206e6f60008201527f6e6578697374656e7420746f6b656e0000000000000000000000000000000000602082015250565b7f4552433732313a20617070726f76616c20746f2063757272656e74206f776e6560008201527f7200000000000000000000000000000000000000000000000000000000000000602082015250565b7f4552433732313a207472616e736665722063616c6c6572206973206e6f74206f60008201527f776e6572206e6f7220617070726f766564000000000000000000000000000000602082015250565b613dbb81613687565b8114613dc657600080fd5b50565b613dd281613699565b8114613ddd57600080fd5b50565b613de9816136a5565b8114613df457600080fd5b50565b613e00816136f1565b8114613e0b57600080fd5b5056fea2646970667358221220d0d4456a10909f929dc7f9e7fe3177fd912f7130fe2f8f7f4acc82725284fd1c64736f6c63430008060033",
  "devdoc": {
    "kind": "dev",
    "methods": {
      "approve(address,uint256)": {
        "details": "See {IERC721-approve}."
      },
      "balanceOf(address)": {
        "details": "See {IERC721-balanceOf}."
      },
      "getApproved(uint256)": {
        "details": "See {IERC721-getApproved}."
      },
      "isApprovedForAll(address,address)": {
        "details": "See {IERC721-isApprovedForAll}."
      },
      "name()": {
        "details": "See {IERC721Metadata-name}."
      },
      "ownerOf(uint256)": {
        "details": "See {IERC721-ownerOf}."
      },
      "safeTransferFrom(address,address,uint256)": {
        "details": "See {IERC721-safeTransferFrom}."
      },
      "safeTransferFrom(address,address,uint256,bytes)": {
        "details": "See {IERC721-safeTransferFrom}."
      },
      "setApprovalForAll(address,bool)": {
        "details": "See {IERC721-setApprovalForAll}."
      },
      "supportsInterface(bytes4)": {
        "details": "See {IERC165-supportsInterface}."
      },
      "symbol()": {
        "details": "See {IERC721Metadata-symbol}."
      },
      "transferFrom(address,address,uint256)": {
        "details": "See {IERC721-transferFrom}."
      }
    },
    "version": 1
  },
  "userdoc": {
    "kind": "user",
    "methods": {},
    "version": 1
  },
  "storageLayout": {
    "storage": [
      {
        "astId": 83,
        "contract": "contracts/KeeperFlower.sol:KeeperFlower",
        "label": "_name",
        "offset": 0,
        "slot": "0",
        "type": "t_string_storage"
      },
      {
        "astId": 85,
        "contract": "contracts/KeeperFlower.sol:KeeperFlower",
        "label": "_symbol",
        "offset": 0,
        "slot": "1",
        "type": "t_string_storage"
      },
      {
        "astId": 89,
        "contract": "contracts/KeeperFlower.sol:KeeperFlower",
        "label": "_owners",
        "offset": 0,
        "slot": "2",
        "type": "t_mapping(t_uint256,t_address)"
      },
      {
        "astId": 93,
        "contract": "contracts/KeeperFlower.sol:KeeperFlower",
        "label": "_balances",
        "offset": 0,
        "slot": "3",
        "type": "t_mapping(t_address,t_uint256)"
      },
      {
        "astId": 97,
        "contract": "contracts/KeeperFlower.sol:KeeperFlower",
        "label": "_tokenApprovals",
        "offset": 0,
        "slot": "4",
        "type": "t_mapping(t_uint256,t_address)"
      },
      {
        "astId": 103,
        "contract": "contracts/KeeperFlower.sol:KeeperFlower",
        "label": "_operatorApprovals",
        "offset": 0,
        "slot": "5",
        "type": "t_mapping(t_address,t_mapping(t_address,t_bool))"
      },
      {
        "astId": 1070,
        "contract": "contracts/KeeperFlower.sol:KeeperFlower",
        "label": "_tokenURIs",
        "offset": 0,
        "slot": "6",
        "type": "t_mapping(t_uint256,t_string_storage)"
      },
      {
        "astId": 1860,
        "contract": "contracts/KeeperFlower.sol:KeeperFlower",
        "label": "tokenIdCounter",
        "offset": 0,
        "slot": "7",
        "type": "t_struct(Counter)1535_storage"
      },
      {
        "astId": 1863,
        "contract": "contracts/KeeperFlower.sol:KeeperFlower",
        "label": "ipfsUris",
        "offset": 0,
        "slot": "8",
        "type": "t_array(t_string_storage)dyn_storage"
      },
      {
        "astId": 1868,
        "contract": "contracts/KeeperFlower.sol:KeeperFlower",
        "label": "tokenIdToURIS",
        "offset": 0,
        "slot": "9",
        "type": "t_mapping(t_uint256,t_array(t_string_storage)dyn_storage)"
      },
      {
        "astId": 1873,
        "contract": "contracts/KeeperFlower.sol:KeeperFlower",
        "label": "ownerToTokensId",
        "offset": 0,
        "slot": "10",
        "type": "t_mapping(t_address,t_array(t_uint256)dyn_storage)"
      },
      {
        "astId": 1875,
        "contract": "contracts/KeeperFlower.sol:KeeperFlower",
        "label": "lastTimeStamp",
        "offset": 0,
        "slot": "11",
        "type": "t_uint256"
      },
      {
        "astId": 1877,
        "contract": "contracts/KeeperFlower.sol:KeeperFlower",
        "label": "interval",
        "offset": 0,
        "slot": "12",
        "type": "t_uint256"
      }
    ],
    "types": {
      "t_address": {
        "encoding": "inplace",
        "label": "address",
        "numberOfBytes": "20"
      },
      "t_array(t_string_storage)dyn_storage": {
        "base": "t_string_storage",
        "encoding": "dynamic_array",
        "label": "string[]",
        "numberOfBytes": "32"
      },
      "t_array(t_uint256)dyn_storage": {
        "base": "t_uint256",
        "encoding": "dynamic_array",
        "label": "uint256[]",
        "numberOfBytes": "32"
      },
      "t_bool": {
        "encoding": "inplace",
        "label": "bool",
        "numberOfBytes": "1"
      },
      "t_mapping(t_address,t_array(t_uint256)dyn_storage)": {
        "encoding": "mapping",
        "key": "t_address",
        "label": "mapping(address => uint256[])",
        "numberOfBytes": "32",
        "value": "t_array(t_uint256)dyn_storage"
      },
      "t_mapping(t_address,t_bool)": {
        "encoding": "mapping",
        "key": "t_address",
        "label": "mapping(address => bool)",
        "numberOfBytes": "32",
        "value": "t_bool"
      },
      "t_mapping(t_address,t_mapping(t_address,t_bool))": {
        "encoding": "mapping",
        "key": "t_address",
        "label": "mapping(address => mapping(address => bool))",
        "numberOfBytes": "32",
        "value": "t_mapping(t_address,t_bool)"
      },
      "t_mapping(t_address,t_uint256)": {
        "encoding": "mapping",
        "key": "t_address",
        "label": "mapping(address => uint256)",
        "numberOfBytes": "32",
        "value": "t_uint256"
      },
      "t_mapping(t_uint256,t_address)": {
        "encoding": "mapping",
        "key": "t_uint256",
        "label": "mapping(uint256 => address)",
        "numberOfBytes": "32",
        "value": "t_address"
      },
      "t_mapping(t_uint256,t_array(t_string_storage)dyn_storage)": {
        "encoding": "mapping",
        "key": "t_uint256",
        "label": "mapping(uint256 => string[])",
        "numberOfBytes": "32",
        "value": "t_array(t_string_storage)dyn_storage"
      },
      "t_mapping(t_uint256,t_string_storage)": {
        "encoding": "mapping",
        "key": "t_uint256",
        "label": "mapping(uint256 => string)",
        "numberOfBytes": "32",
        "value": "t_string_storage"
      },
      "t_string_storage": {
        "encoding": "bytes",
        "label": "string",
        "numberOfBytes": "32"
      },
      "t_struct(Counter)1535_storage": {
        "encoding": "inplace",
        "label": "struct Counters.Counter",
        "members": [
          {
            "astId": 1534,
            "contract": "contracts/KeeperFlower.sol:KeeperFlower",
            "label": "_value",
            "offset": 0,
            "slot": "0",
            "type": "t_uint256"
          }
        ],
        "numberOfBytes": "32"
      },
      "t_uint256": {
        "encoding": "inplace",
        "label": "uint256",
        "numberOfBytes": "32"
      }
    }
  }
}